{
  "_format": "hh-sol-artifact-1",
  "contractName": "ETHTornado",
  "sourceName": "contracts/TornadoCash_Eth_01.sol",
  "abi": [
    {
      "inputs": [
        {
          "internalType": "address",
          "name": "_verifier",
          "type": "address"
        },
        {
          "internalType": "uint256",
          "name": "_denomination",
          "type": "uint256"
        },
        {
          "internalType": "uint32",
          "name": "_merkleTreeHeight",
          "type": "uint32"
        },
        {
          "internalType": "address",
          "name": "_operator",
          "type": "address"
        },
        {
          "internalType": "address",
          "name": "_hasher",
          "type": "address"
        }
      ],
      "stateMutability": "nonpayable",
      "type": "constructor"
    },
    {
      "anonymous": false,
      "inputs": [
        {
          "indexed": true,
          "internalType": "bytes32",
          "name": "commitment",
          "type": "bytes32"
        },
        {
          "indexed": false,
          "internalType": "uint32",
          "name": "leafIndex",
          "type": "uint32"
        },
        {
          "indexed": false,
          "internalType": "uint256",
          "name": "timestamp",
          "type": "uint256"
        }
      ],
      "name": "Deposit",
      "type": "event"
    },
    {
      "anonymous": false,
      "inputs": [
        {
          "indexed": false,
          "internalType": "address",
          "name": "to",
          "type": "address"
        },
        {
          "indexed": false,
          "internalType": "bytes32",
          "name": "nullifierHash",
          "type": "bytes32"
        },
        {
          "indexed": true,
          "internalType": "address",
          "name": "relayer",
          "type": "address"
        },
        {
          "indexed": false,
          "internalType": "uint256",
          "name": "fee",
          "type": "uint256"
        }
      ],
      "name": "Withdrawal",
      "type": "event"
    },
    {
      "inputs": [],
      "name": "FIELD_SIZE",
      "outputs": [
        {
          "internalType": "uint256",
          "name": "",
          "type": "uint256"
        }
      ],
      "stateMutability": "view",
      "type": "function"
    },
    {
      "inputs": [],
      "name": "ROOT_HISTORY_SIZE",
      "outputs": [
        {
          "internalType": "uint32",
          "name": "",
          "type": "uint32"
        }
      ],
      "stateMutability": "view",
      "type": "function"
    },
    {
      "inputs": [],
      "name": "ZERO_VALUE",
      "outputs": [
        {
          "internalType": "uint256",
          "name": "",
          "type": "uint256"
        }
      ],
      "stateMutability": "view",
      "type": "function"
    },
    {
      "inputs": [
        {
          "internalType": "address",
          "name": "_newOperator",
          "type": "address"
        }
      ],
      "name": "changeOperator",
      "outputs": [],
      "stateMutability": "nonpayable",
      "type": "function"
    },
    {
      "inputs": [
        {
          "internalType": "bytes32",
          "name": "",
          "type": "bytes32"
        }
      ],
      "name": "commitments",
      "outputs": [
        {
          "internalType": "bool",
          "name": "",
          "type": "bool"
        }
      ],
      "stateMutability": "view",
      "type": "function"
    },
    {
      "inputs": [],
      "name": "currentRootIndex",
      "outputs": [
        {
          "internalType": "uint32",
          "name": "",
          "type": "uint32"
        }
      ],
      "stateMutability": "view",
      "type": "function"
    },
    {
      "inputs": [],
      "name": "denomination",
      "outputs": [
        {
          "internalType": "uint256",
          "name": "",
          "type": "uint256"
        }
      ],
      "stateMutability": "view",
      "type": "function"
    },
    {
      "inputs": [
        {
          "internalType": "bytes32",
          "name": "_commitment",
          "type": "bytes32"
        }
      ],
      "name": "deposit",
      "outputs": [],
      "stateMutability": "payable",
      "type": "function"
    },
    {
      "inputs": [
        {
          "internalType": "uint256",
          "name": "",
          "type": "uint256"
        }
      ],
      "name": "filledSubtrees",
      "outputs": [
        {
          "internalType": "bytes32",
          "name": "",
          "type": "bytes32"
        }
      ],
      "stateMutability": "view",
      "type": "function"
    },
    {
      "inputs": [],
      "name": "getLastRoot",
      "outputs": [
        {
          "internalType": "bytes32",
          "name": "",
          "type": "bytes32"
        }
      ],
      "stateMutability": "view",
      "type": "function"
    },
    {
      "inputs": [
        {
          "internalType": "bytes32",
          "name": "_left",
          "type": "bytes32"
        },
        {
          "internalType": "bytes32",
          "name": "_right",
          "type": "bytes32"
        }
      ],
      "name": "hashLeftRight",
      "outputs": [
        {
          "internalType": "bytes32",
          "name": "",
          "type": "bytes32"
        }
      ],
      "stateMutability": "view",
      "type": "function"
    },
    {
      "inputs": [],
      "name": "hasher",
      "outputs": [
        {
          "internalType": "contract IHasher",
          "name": "",
          "type": "address"
        }
      ],
      "stateMutability": "view",
      "type": "function"
    },
    {
      "inputs": [
        {
          "internalType": "bytes32",
          "name": "_root",
          "type": "bytes32"
        }
      ],
      "name": "isKnownRoot",
      "outputs": [
        {
          "internalType": "bool",
          "name": "",
          "type": "bool"
        }
      ],
      "stateMutability": "view",
      "type": "function"
    },
    {
      "inputs": [
        {
          "internalType": "bytes32",
          "name": "_nullifierHash",
          "type": "bytes32"
        }
      ],
      "name": "isSpent",
      "outputs": [
        {
          "internalType": "bool",
          "name": "",
          "type": "bool"
        }
      ],
      "stateMutability": "view",
      "type": "function"
    },
    {
      "inputs": [
        {
          "internalType": "bytes32[]",
          "name": "_nullifierHashes",
          "type": "bytes32[]"
        }
      ],
      "name": "isSpentArray",
      "outputs": [
        {
          "internalType": "bool[]",
          "name": "spent",
          "type": "bool[]"
        }
      ],
      "stateMutability": "view",
      "type": "function"
    },
    {
      "inputs": [],
      "name": "levels",
      "outputs": [
        {
          "internalType": "uint32",
          "name": "",
          "type": "uint32"
        }
      ],
      "stateMutability": "view",
      "type": "function"
    },
    {
      "inputs": [],
      "name": "nextIndex",
      "outputs": [
        {
          "internalType": "uint32",
          "name": "",
          "type": "uint32"
        }
      ],
      "stateMutability": "view",
      "type": "function"
    },
    {
      "inputs": [
        {
          "internalType": "bytes32",
          "name": "",
          "type": "bytes32"
        }
      ],
      "name": "nullifierHashes",
      "outputs": [
        {
          "internalType": "bool",
          "name": "",
          "type": "bool"
        }
      ],
      "stateMutability": "view",
      "type": "function"
    },
    {
      "inputs": [],
      "name": "operator",
      "outputs": [
        {
          "internalType": "address",
          "name": "",
          "type": "address"
        }
      ],
      "stateMutability": "view",
      "type": "function"
    },
    {
      "inputs": [
        {
          "internalType": "uint256",
          "name": "",
          "type": "uint256"
        }
      ],
      "name": "roots",
      "outputs": [
        {
          "internalType": "bytes32",
          "name": "",
          "type": "bytes32"
        }
      ],
      "stateMutability": "view",
      "type": "function"
    },
    {
      "inputs": [
        {
          "internalType": "address",
          "name": "_newVerifier",
          "type": "address"
        }
      ],
      "name": "updateVerifier",
      "outputs": [],
      "stateMutability": "nonpayable",
      "type": "function"
    },
    {
      "inputs": [],
      "name": "verifier",
      "outputs": [
        {
          "internalType": "contract IVerifier",
          "name": "",
          "type": "address"
        }
      ],
      "stateMutability": "view",
      "type": "function"
    },
    {
      "inputs": [
        {
          "internalType": "bytes",
          "name": "_proof",
          "type": "bytes"
        },
        {
          "internalType": "bytes32",
          "name": "_root",
          "type": "bytes32"
        },
        {
          "internalType": "bytes32",
          "name": "_nullifierHash",
          "type": "bytes32"
        },
        {
          "internalType": "address",
          "name": "_recipient",
          "type": "address"
        },
        {
          "internalType": "address",
          "name": "_relayer",
          "type": "address"
        },
        {
          "internalType": "uint256",
          "name": "_fee",
          "type": "uint256"
        },
        {
          "internalType": "uint256",
          "name": "_refund",
          "type": "uint256"
        }
      ],
      "name": "withdraw",
      "outputs": [],
      "stateMutability": "payable",
      "type": "function"
    },
    {
      "inputs": [
        {
          "internalType": "uint256",
          "name": "",
          "type": "uint256"
        }
      ],
      "name": "zeros",
      "outputs": [
        {
          "internalType": "bytes32",
          "name": "",
          "type": "bytes32"
        }
      ],
      "stateMutability": "view",
      "type": "function"
    }
  ],
  "bytecode": "0x6080604052600380546001600160401b03191690553480156200002157600080fd5b5060405162001f7938038062001f798339810160408190526200004491620003e8565b8484848484828160008263ffffffff16116200007d5760405162461bcd60e51b8152600401620000749062000536565b60405180910390fd5b60208263ffffffff1610620000a65760405162461bcd60e51b815260040162000074906200057d565b6000805463ffffffff60a01b1916600160a01b63ffffffff851602176001600160a01b0319166001600160a01b0383161781556002805460018181019092557f2fe54c60d3acabf3343a35b6eba15db4821b340f76e741e2249685ed4899af6c60008051602062001f19833981519152909101819055815480830183559282905260008051602062001f598339815191529092018290555b60005463ffffffff600160a01b90910481169082161015620001be5762000166828062000234565b60028054600181810190925560008051602062001f19833981519152018290558054808201825560009190915260008051602062001f5983398151915201819055915080620001b581620005cd565b9150506200013e565b50620001cb818062000234565b600455505060016068555083620001f65760405162461bcd60e51b815260040162000074906200047b565b50606c80546001600160a01b039586166001600160a01b031991821617909155606d80549290951691161790925560695550620005fe945050505050565b600060008051602062001f398339815191528310620002675760405162461bcd60e51b81526004016200007490620004c0565b60008051602062001f398339815191528210620002985760405162461bcd60e51b81526004016200007490620004f5565b6000805460405163f47d33b560e01b81528592916001600160a01b03169063f47d33b590620002ce9085908590600401620005bf565b604080518083038186803b158015620002e657600080fd5b505afa158015620002fb573d6000803e3d6000fd5b505050506040513d601f19601f8201168201806040525081019062000321919062000457565b909250905060008051602062001f3983398151915284830860005460405163f47d33b560e01b81529193506001600160a01b03169063f47d33b5906200036e9085908590600401620005bf565b604080518083038186803b1580156200038657600080fd5b505afa1580156200039b573d6000803e3d6000fd5b505050506040513d601f19601f82011682018060405250810190620003c1919062000457565b5095945050505050565b80516001600160a01b0381168114620003e357600080fd5b919050565b600080600080600060a0868803121562000400578081fd5b6200040b86620003cb565b945060208601519350604086015163ffffffff811681146200042b578182fd5b92506200043b60608701620003cb565b91506200044b60808701620003cb565b90509295509295909350565b600080604083850312156200046a578182fd5b505080516020909101519092909150565b60208082526025908201527f64656e6f6d696e6174696f6e2073686f756c6420626520677265617465722074604082015264068616e20360dc1b606082015260800190565b6020808252818101527f5f6c6566742073686f756c6420626520696e7369646520746865206669656c64604082015260600190565b60208082526021908201527f5f72696768742073686f756c6420626520696e7369646520746865206669656c6040820152601960fa1b606082015260800190565b60208082526027908201527f5f747265654c6576656c732073686f756c642062652067726561746572207468604082015266616e207a65726f60c81b606082015260800190565b60208082526022908201527f5f747265654c6576656c732073686f756c64206265206c657373207468616e20604082015261199960f11b606082015260800190565b918252602082015260400190565b600063ffffffff80831681811415620005f457634e487b7160e01b83526011600452602483fd5b6001019392505050565b61190b806200060e6000396000f3fe60806040526004361061014b5760003560e01c806397fc007c116100b6578063e5285dcc1161006f578063e5285dcc1461036a578063e82955881461038a578063ec732959146103aa578063ed33639f146103bf578063f178e47c146103d4578063fc7e9c6f146103f45761014b565b806397fc007c146102c05780639fa12d0b146102e0578063b214faa51461030d578063ba70f75714610320578063c2b40ae414610335578063cd87a3b4146103555761014b565b80634ecf518b116101085780634ecf518b1461021f578063570ca735146102415780636d9833e314610256578063839df945146102765780638bca6d161461029657806390eeb02b146102ab5761014b565b806306394c9b1461015057806317cc915c1461017257806321a0adb6146101a85780632b7ac3f3146101bb57806338bf282e146101dd578063414a37ba1461020a575b600080fd5b34801561015c57600080fd5b5061017061016b366004610f7c565b610409565b005b34801561017e57600080fd5b5061019261018d36600461102c565b61045e565b60405161019f91906111b7565b60405180910390f35b6101706101b6366004611065565b610473565b3480156101c757600080fd5b506101d061066a565b60405161019f919061113c565b3480156101e957600080fd5b506101fd6101f8366004611044565b610679565b60405161019f91906111c2565b34801561021657600080fd5b506101fd6107fb565b34801561022b57600080fd5b5061023461080d565b60405161019f9190611619565b34801561024d57600080fd5b506101d0610820565b34801561026257600080fd5b5061019261027136600461102c565b61082f565b34801561028257600080fd5b5061019261029136600461102c565b6108be565b3480156102a257600080fd5b506101fd6108d3565b3480156102b757600080fd5b506102346108d9565b3480156102cc57600080fd5b506101706102db366004610f7c565b6108e5565b3480156102ec57600080fd5b506103006102fb366004610f9d565b610931565b60405161019f9190611171565b61017061031b36600461102c565b610a11565b34801561032c57600080fd5b506101fd610ae9565b34801561034157600080fd5b506101fd61035036600461102c565b610b1d565b34801561036157600080fd5b50610234610b34565b34801561037657600080fd5b5061019261038536600461102c565b610b39565b34801561039657600080fd5b506101fd6103a536600461102c565b610b4e565b3480156103b657600080fd5b506101fd610b6f565b3480156103cb57600080fd5b506101d0610b93565b3480156103e057600080fd5b506101fd6103ef36600461102c565b610ba2565b34801561040057600080fd5b50610234610bb2565b606d546001600160a01b0316331461043c5760405162461bcd60e51b81526004016104339061153a565b60405180910390fd5b606d80546001600160a01b0319166001600160a01b0392909216919091179055565b606a6020526000908152604090205460ff1681565b6001606860008282546104869190611640565b90915550506068546069548311156104b05760405162461bcd60e51b8152600401610433906112ac565b6000868152606a602052604090205460ff16156104df5760405162461bcd60e51b81526004016104339061143a565b6104e88761082f565b6105045760405162461bcd60e51b815260040161043390611275565b606c546040805160c081018252898152602081018990526001600160a01b038881168284015287811660608301526080820187905260a08201869052915163695ef6f960e01b8152919092169163695ef6f991610568918d918d91906004016111cb565b60206040518083038186803b15801561058057600080fd5b505afa158015610594573d6000803e3d6000fd5b505050506040513d601f19601f820116820180604052508101906105b8919061100c565b6105d45760405162461bcd60e51b8152600401610433906113b6565b6000868152606a60205260409020805460ff191660011790556105f985858585610bc6565b836001600160a01b03167fe9e508bad6d4c3227e881ca19068f099da81b5164dd6d62b2eaf1e8bc6c3493186888660405161063693929190611150565b60405180910390a2606854811461065f5760405162461bcd60e51b81526004016104339061157f565b505050505050505050565b606c546001600160a01b031681565b60006000805160206118b683398151915283106106a85760405162461bcd60e51b815260040161043390611340565b6000805160206118b683398151915282106106d55760405162461bcd60e51b815260040161043390611375565b6000805460405163f47d33b560e01b81528592916001600160a01b03169063f47d33b590610709908590859060040161160b565b604080518083038186803b15801561072057600080fd5b505afa158015610734573d6000803e3d6000fd5b505050506040513d601f19601f820116820180604052508101906107589190611116565b90925090506000805160206118b683398151915284830860005460405163f47d33b560e01b81529193506001600160a01b03169063f47d33b5906107a2908590859060040161160b565b604080518083038186803b1580156107b957600080fd5b505afa1580156107cd573d6000803e3d6000fd5b505050506040513d601f19601f820116820180604052508101906107f19190611116565b5095945050505050565b6000805160206118b683398151915281565b600054600160a01b900463ffffffff1681565b606d546001600160a01b031681565b60008161083e575060006108b9565b60035463ffffffff165b60048163ffffffff166064811061086f57634e487b7160e01b600052603260045260246000fd5b01548314156108825760019150506108b9565b63ffffffff8116610891575060645b8061089b81611807565b60035490925063ffffffff8084169116141590506108485760009150505b919050565b606b6020526000908152604090205460ff1681565b60695481565b60035463ffffffff1681565b606d546001600160a01b0316331461090f5760405162461bcd60e51b81526004016104339061153a565b606c80546001600160a01b0319166001600160a01b0392909216919091179055565b60608167ffffffffffffffff81111561095a57634e487b7160e01b600052604160045260246000fd5b604051908082528060200260200182016040528015610983578160200160208202803683370190505b50905060005b82811015610a0a576109c08484838181106109b457634e487b7160e01b600052603260045260246000fd5b90506020020135610b39565b156109f85760018282815181106109e757634e487b7160e01b600052603260045260246000fd5b911515602092830291909101909101525b80610a0281611827565b915050610989565b5092915050565b600160686000828254610a249190611640565b90915550506068546000828152606b602052604090205460ff1615610a5b5760405162461bcd60e51b815260040161043390611471565b6000610a6683610d14565b6000848152606b60205260409020805460ff191660011790559050610a89610f42565b827fa945e51eec50ab98c161376f0db4cf2aeba3ec92755fe2fcd388bdbbb80ff1968242604051610abb92919061162a565b60405180910390a2506068548114610ae55760405162461bcd60e51b81526004016104339061157f565b5050565b60035460009060049063ffffffff1660648110610b1657634e487b7160e01b600052603260045260246000fd5b0154905090565b60048160648110610b2d57600080fd5b0154905081565b606481565b6000908152606a602052604090205460ff1690565b60028181548110610b5e57600080fd5b600091825260209091200154905081565b7f2fe54c60d3acabf3343a35b6eba15db4821b340f76e741e2249685ed4899af6c81565b6000546001600160a01b031681565b60018181548110610b5e57600080fd5b600354640100000000900463ffffffff1681565b3415610be45760405162461bcd60e51b8152600401610433906115b6565b8015610c025760405162461bcd60e51b8152600401610433906113e6565b6000846001600160a01b031683606954610c1c91906117cb565b604051610c2890611139565b60006040518083038185875af1925050503d8060008114610c65576040519150601f19603f3d011682016040523d82523d6000602084013e610c6a565b606091505b5050905080610c8b5760405162461bcd60e51b8152600401610433906114b2565b8215610d0d57836001600160a01b031683604051610ca890611139565b60006040518083038185875af1925050503d8060008114610ce5576040519150601f19603f3d011682016040523d82523d6000602084013e610cea565b606091505b50508091505080610d0d5760405162461bcd60e51b8152600401610433906114f7565b5050505050565b60035460008054909163ffffffff640100000000909104811691610d4291600160a01b9091041660026116e9565b63ffffffff168163ffffffff161415610d6d5760405162461bcd60e51b815260040161043390611226565b6001600360048282829054906101000a900463ffffffff16610d8f9190611658565b92506101000a81548163ffffffff021916908363ffffffff160217905550600083905060008060005b60005463ffffffff600160a01b90910481169082161015610ebb57610dde600286611866565b63ffffffff16610e585783925060028163ffffffff1681548110610e1257634e487b7160e01b600052603260045260246000fd5b906000526020600020015491508360018263ffffffff1681548110610e4757634e487b7160e01b600052603260045260246000fd5b600091825260209091200155610e90565b60018163ffffffff1681548110610e7f57634e487b7160e01b600052603260045260246000fd5b906000526020600020015492508391505b610e9a8383610679565b9350610ea7600286611680565b945080610eb381611842565b915050610db8565b50600354606490610ed39063ffffffff166001611658565b610edd9190611866565b6003805463ffffffff191663ffffffff928316179081905584916004911660648110610f1957634e487b7160e01b600052603260045260246000fd5b0155600354610f3890600190640100000000900463ffffffff166117e2565b9695505050505050565b6069543414610f635760405162461bcd60e51b8152600401610433906112e3565b565b80356001600160a01b03811681146108b957600080fd5b600060208284031215610f8d578081fd5b610f9682610f65565b9392505050565b60008060208385031215610faf578081fd5b823567ffffffffffffffff80821115610fc6578283fd5b818501915085601f830112610fd9578283fd5b813581811115610fe7578384fd5b8660208083028501011115610ffa578384fd5b60209290920196919550909350505050565b60006020828403121561101d578081fd5b81518015158114610f96578182fd5b60006020828403121561103d578081fd5b5035919050565b60008060408385031215611056578182fd5b50508035926020909101359150565b60008060008060008060008060e0898b031215611080578384fd5b883567ffffffffffffffff80821115611097578586fd5b818b0191508b601f8301126110aa578586fd5b8135818111156110b8578687fd5b8c60208285010111156110c9578687fd5b60209283019a509850508901359550604089013594506110eb60608a01610f65565b93506110f960808a01610f65565b925060a0890135915060c089013590509295985092959890939650565b60008060408385031215611128578182fd5b505080516020909101519092909150565b90565b6001600160a01b0391909116815260200190565b6001600160a01b039390931683526020830191909152604082015260600190565b6020808252825182820181905260009190848201906040850190845b818110156111ab57835115158352928401929184019160010161118d565b50909695505050505050565b901515815260200190565b90815260200190565b600060e082528360e0830152610100848682850137828501810191909152601f8401601f191682010160208083018460005b600681101561121a578151835291830191908301906001016111fd565b50505050949350505050565b6020808252602f908201527f4d65726b6c6520747265652069732066756c6c2e204e6f206d6f7265206c656160408201526e199cc818d85b881899481859191959608a1b606082015260800190565b6020808252601c908201527f43616e6e6f742066696e6420796f7572206d65726b6c6520726f6f7400000000604082015260600190565b6020808252601a908201527f4665652065786365656473207472616e736665722076616c7565000000000000604082015260600190565b60208082526038908201527f506c656173652073656e6420606d697844656e6f6d696e6174696f6e6020455460408201527f4820616c6f6e672077697468207472616e73616374696f6e0000000000000000606082015260800190565b6020808252818101527f5f6c6566742073686f756c6420626520696e7369646520746865206669656c64604082015260600190565b60208082526021908201527f5f72696768742073686f756c6420626520696e7369646520746865206669656c6040820152601960fa1b606082015260800190565b60208082526016908201527524b73b30b634b2103bb4ba34323930bb90383937b7b360511b604082015260600190565b60208082526034908201527f526566756e642076616c756520697320737570706f73656420746f206265207a60408201527365726f20666f722045544820696e7374616e636560601b606082015260800190565b6020808252601f908201527f546865206e6f746520686173206265656e20616c7265616479207370656e7400604082015260600190565b60208082526021908201527f54686520636f6d6d69746d656e7420686173206265656e207375626d697474656040820152601960fa1b606082015260800190565b60208082526025908201527f7061796d656e7420746f205f726563697069656e7420646964206e6f7420676f604082015264207468727560d81b606082015260800190565b60208082526023908201527f7061796d656e7420746f205f72656c6179657220646964206e6f7420676f207460408201526268727560e81b606082015260800190565b60208082526025908201527f4f6e6c79206f70657261746f722063616e2063616c6c20746869732066756e636040820152643a34b7b71760d91b606082015260800190565b6020808252601f908201527f5265656e7472616e637947756172643a207265656e7472616e742063616c6c00604082015260600190565b60208082526035908201527f4d6573736167652076616c756520697320737570706f73656420746f206265206040820152747a65726f20666f722045544820696e7374616e636560581b606082015260800190565b918252602082015260400190565b63ffffffff91909116815260200190565b63ffffffff929092168252602082015260400190565b6000821982111561165357611653611889565b500190565b600063ffffffff80831681851680830382111561167757611677611889565b01949350505050565b600063ffffffff808416806116975761169761189f565b92169190910492915050565b80825b60018086116116b557506116e0565b8187048211156116c7576116c7611889565b808616156116d457918102915b9490941c9380026116a6565b94509492505050565b600063ffffffff6116ff81828616838616611707565b949350505050565b60008261171657506001610f96565b8161172357506000610f96565b8160018114611739576002811461174357611770565b6001915050610f96565b60ff84111561175457611754611889565b6001841b91508482111561176a5761176a611889565b50610f96565b5060208310610133831016604e8410600b84101617156117a3575081810a8381111561179e5761179e611889565b610f96565b6117b084848460016116a3565b8086048211156117c2576117c2611889565b02949350505050565b6000828210156117dd576117dd611889565b500390565b600063ffffffff838116908316818110156117ff576117ff611889565b039392505050565b600063ffffffff82168061181d5761181d611889565b6000190192915050565b600060001982141561183b5761183b611889565b5060010190565b600063ffffffff8083168181141561185c5761185c611889565b6001019392505050565b600063ffffffff8084168061187d5761187d61189f565b92169190910692915050565b634e487b7160e01b600052601160045260246000fd5b634e487b7160e01b600052601260045260246000fdfe30644e72e131a029b85045b68181585d2833e84879b9709143e1f593f0000001a2646970667358221220d57d13583d4f6c2b1a2487fea5beab4d24e79c757ebe34d73087ab9692e33b4864736f6c63430008000033405787fa12a823e0f2b7631cc41b3ba8828b3321ca811111fa75cd3aa3bb5ace30644e72e131a029b85045b68181585d2833e84879b9709143e1f593f0000001b10e2d527612073b26eecdfd717e6a320cf44b4afac2b0732d9fcbe2b7fa0cf6",
  "linkReferences": {},
  "deployedLinkReferences": {}
}