{
  "_format": "hh-sol-artifact-1",
  "contractName": "MerkleTreeWithHistory",
  "sourceName": "contracts/TornadoCash_Eth_01.sol",
  "abi": [
    {
      "inputs": [
        {
          "internalType": "uint32",
          "name": "_treeLevels",
          "type": "uint32"
        },
        {
          "internalType": "address",
          "name": "_hasher",
          "type": "address"
        }
      ],
      "stateMutability": "nonpayable",
      "type": "constructor"
    },
    {
      "inputs": [],
      "name": "FIELD_SIZE",
      "outputs": [
        {
          "internalType": "uint256",
          "name": "",
          "type": "uint256"
        }
      ],
      "stateMutability": "view",
      "type": "function"
    },
    {
      "inputs": [],
      "name": "ROOT_HISTORY_SIZE",
      "outputs": [
        {
          "internalType": "uint32",
          "name": "",
          "type": "uint32"
        }
      ],
      "stateMutability": "view",
      "type": "function"
    },
    {
      "inputs": [],
      "name": "ZERO_VALUE",
      "outputs": [
        {
          "internalType": "uint256",
          "name": "",
          "type": "uint256"
        }
      ],
      "stateMutability": "view",
      "type": "function"
    },
    {
      "inputs": [],
      "name": "currentRootIndex",
      "outputs": [
        {
          "internalType": "uint32",
          "name": "",
          "type": "uint32"
        }
      ],
      "stateMutability": "view",
      "type": "function"
    },
    {
      "inputs": [
        {
          "internalType": "uint256",
          "name": "",
          "type": "uint256"
        }
      ],
      "name": "filledSubtrees",
      "outputs": [
        {
          "internalType": "bytes32",
          "name": "",
          "type": "bytes32"
        }
      ],
      "stateMutability": "view",
      "type": "function"
    },
    {
      "inputs": [],
      "name": "getLastRoot",
      "outputs": [
        {
          "internalType": "bytes32",
          "name": "",
          "type": "bytes32"
        }
      ],
      "stateMutability": "view",
      "type": "function"
    },
    {
      "inputs": [
        {
          "internalType": "bytes32",
          "name": "_left",
          "type": "bytes32"
        },
        {
          "internalType": "bytes32",
          "name": "_right",
          "type": "bytes32"
        }
      ],
      "name": "hashLeftRight",
      "outputs": [
        {
          "internalType": "bytes32",
          "name": "",
          "type": "bytes32"
        }
      ],
      "stateMutability": "view",
      "type": "function"
    },
    {
      "inputs": [],
      "name": "hasher",
      "outputs": [
        {
          "internalType": "contract IHasher",
          "name": "",
          "type": "address"
        }
      ],
      "stateMutability": "view",
      "type": "function"
    },
    {
      "inputs": [
        {
          "internalType": "bytes32",
          "name": "_root",
          "type": "bytes32"
        }
      ],
      "name": "isKnownRoot",
      "outputs": [
        {
          "internalType": "bool",
          "name": "",
          "type": "bool"
        }
      ],
      "stateMutability": "view",
      "type": "function"
    },
    {
      "inputs": [],
      "name": "levels",
      "outputs": [
        {
          "internalType": "uint32",
          "name": "",
          "type": "uint32"
        }
      ],
      "stateMutability": "view",
      "type": "function"
    },
    {
      "inputs": [],
      "name": "nextIndex",
      "outputs": [
        {
          "internalType": "uint32",
          "name": "",
          "type": "uint32"
        }
      ],
      "stateMutability": "view",
      "type": "function"
    },
    {
      "inputs": [
        {
          "internalType": "uint256",
          "name": "",
          "type": "uint256"
        }
      ],
      "name": "roots",
      "outputs": [
        {
          "internalType": "bytes32",
          "name": "",
          "type": "bytes32"
        }
      ],
      "stateMutability": "view",
      "type": "function"
    },
    {
      "inputs": [
        {
          "internalType": "uint256",
          "name": "",
          "type": "uint256"
        }
      ],
      "name": "zeros",
      "outputs": [
        {
          "internalType": "bytes32",
          "name": "",
          "type": "bytes32"
        }
      ],
      "stateMutability": "view",
      "type": "function"
    }
  ],
  "bytecode": "0x6080604052600380546001600160401b03191690553480156200002157600080fd5b5060405162000be738038062000be783398101604081905262000044916200038c565b60008263ffffffff1611620000765760405162461bcd60e51b81526004016200006d9062000451565b60405180910390fd5b60208263ffffffff16106200009f5760405162461bcd60e51b81526004016200006d9062000498565b6000805463ffffffff60a01b1916600160a01b63ffffffff851602176001600160a01b0319166001600160a01b0383161781556002805460018181019092557f2fe54c60d3acabf3343a35b6eba15db4821b340f76e741e2249685ed4899af6c60008051602062000b87833981519152909101819055815480830183559282905260008051602062000bc78339815191529092018290555b60005463ffffffff600160a01b90910481169082161015620001b7576200015f8280620001d1565b60028054600181810190925560008051602062000b87833981519152018290558054808201825560009190915260008051602062000bc783398151915201819055915080620001ae81620004e8565b91505062000137565b50620001c48180620001d1565b6004555062000519915050565b600060008051602062000ba78339815191528310620002045760405162461bcd60e51b81526004016200006d90620003db565b60008051602062000ba78339815191528210620002355760405162461bcd60e51b81526004016200006d9062000410565b6000805460405163f47d33b560e01b81528592916001600160a01b03169063f47d33b5906200026b9085908590600401620004da565b604080518083038186803b1580156200028357600080fd5b505afa15801562000298573d6000803e3d6000fd5b505050506040513d601f19601f82011682018060405250810190620002be919062000368565b909250905060008051602062000ba783398151915284830860005460405163f47d33b560e01b81529193506001600160a01b03169063f47d33b5906200030b9085908590600401620004da565b604080518083038186803b1580156200032357600080fd5b505afa15801562000338573d6000803e3d6000fd5b505050506040513d601f19601f820116820180604052508101906200035e919062000368565b5095945050505050565b600080604083850312156200037b578182fd5b505080516020909101519092909150565b600080604083850312156200039f578182fd5b825163ffffffff81168114620003b3578283fd5b60208401519092506001600160a01b0381168114620003d0578182fd5b809150509250929050565b6020808252818101527f5f6c6566742073686f756c6420626520696e7369646520746865206669656c64604082015260600190565b60208082526021908201527f5f72696768742073686f756c6420626520696e7369646520746865206669656c6040820152601960fa1b606082015260800190565b60208082526027908201527f5f747265654c6576656c732073686f756c642062652067726561746572207468604082015266616e207a65726f60c81b606082015260800190565b60208082526022908201527f5f747265654c6576656c732073686f756c64206265206c657373207468616e20604082015261199960f11b606082015260800190565b918252602082015260400190565b600063ffffffff808316818114156200050f57634e487b7160e01b83526011600452602483fd5b6001019392505050565b61065e80620005296000396000f3fe608060405234801561001057600080fd5b50600436106100cf5760003560e01c8063c2b40ae41161008c578063ec73295911610066578063ec73295914610178578063ed33639f14610180578063f178e47c14610195578063fc7e9c6f146101a8576100cf565b8063c2b40ae41461014a578063cd87a3b41461015d578063e829558814610165576100cf565b806338bf282e146100d4578063414a37ba146100fd5780634ecf518b146101055780636d9833e31461011a57806390eeb02b1461013a578063ba70f75714610142575b600080fd5b6100e76100e23660046104db565b6101b0565b6040516100f4919061052a565b60405180910390f35b6100e761033b565b61010d61034d565b6040516100f491906105cb565b61012d6101283660046104c3565b610360565b6040516100f4919061051f565b61010d6103ef565b6100e76103fb565b6100e76101583660046104c3565b61042f565b61010d610446565b6100e76101733660046104c3565b61044b565b6100e761046c565b610188610490565b6040516100f49190610533565b6100e76101a33660046104c3565b61049f565b61010d6104af565b600060008051602061060983398151915283106101e85760405162461bcd60e51b81526004016101df90610547565b60405180910390fd5b60008051602061060983398151915282106102155760405162461bcd60e51b81526004016101df9061057c565b6000805460405163f47d33b560e01b81528592916001600160a01b03169063f47d33b59061024990859085906004016105bd565b604080518083038186803b15801561026057600080fd5b505afa158015610274573d6000803e3d6000fd5b505050506040513d601f19601f8201168201806040525081019061029891906104fc565b909250905060008051602061060983398151915284830860005460405163f47d33b560e01b81529193506001600160a01b03169063f47d33b5906102e290859085906004016105bd565b604080518083038186803b1580156102f957600080fd5b505afa15801561030d573d6000803e3d6000fd5b505050506040513d601f19601f8201168201806040525081019061033191906104fc565b5095945050505050565b60008051602061060983398151915281565b600054600160a01b900463ffffffff1681565b60008161036f575060006103ea565b60035463ffffffff165b60048163ffffffff16606481106103a057634e487b7160e01b600052603260045260246000fd5b01548314156103b35760019150506103ea565b63ffffffff81166103c2575060645b806103cc816105dc565b60035490925063ffffffff8084169116141590506103795760009150505b919050565b60035463ffffffff1681565b60035460009060049063ffffffff166064811061042857634e487b7160e01b600052603260045260246000fd5b0154905090565b6004816064811061043f57600080fd5b0154905081565b606481565b6002818154811061045b57600080fd5b600091825260209091200154905081565b7f2fe54c60d3acabf3343a35b6eba15db4821b340f76e741e2249685ed4899af6c81565b6000546001600160a01b031681565b6001818154811061045b57600080fd5b600354640100000000900463ffffffff1681565b6000602082840312156104d4578081fd5b5035919050565b600080604083850312156104ed578081fd5b50508035926020909101359150565b6000806040838503121561050e578182fd5b505080516020909101519092909150565b901515815260200190565b90815260200190565b6001600160a01b0391909116815260200190565b6020808252818101527f5f6c6566742073686f756c6420626520696e7369646520746865206669656c64604082015260600190565b60208082526021908201527f5f72696768742073686f756c6420626520696e7369646520746865206669656c6040820152601960fa1b606082015260800190565b918252602082015260400190565b63ffffffff91909116815260200190565b600063ffffffff8216806105fe57634e487b7160e01b82526011600452602482fd5b600019019291505056fe30644e72e131a029b85045b68181585d2833e84879b9709143e1f593f0000001a2646970667358221220bd0f543df68aa785f3e75eb9d1aa72a32db03dca6f2928bfb57b6821fddc015964736f6c63430008000033405787fa12a823e0f2b7631cc41b3ba8828b3321ca811111fa75cd3aa3bb5ace30644e72e131a029b85045b68181585d2833e84879b9709143e1f593f0000001b10e2d527612073b26eecdfd717e6a320cf44b4afac2b0732d9fcbe2b7fa0cf6",
  "linkReferences": {},
  "deployedLinkReferences": {}
}