{
  "_format": "hh-sol-artifact-1",
  "contractName": "Tornado",
  "sourceName": "contracts/TornadoCash_Eth_01.sol",
  "abi": [
    {
      "inputs": [
        {
          "internalType": "address",
          "name": "_verifier",
          "type": "address"
        },
        {
          "internalType": "uint256",
          "name": "_denomination",
          "type": "uint256"
        },
        {
          "internalType": "uint32",
          "name": "_merkleTreeHeight",
          "type": "uint32"
        },
        {
          "internalType": "address",
          "name": "_operator",
          "type": "address"
        },
        {
          "internalType": "address",
          "name": "_hasher",
          "type": "address"
        }
      ],
      "stateMutability": "nonpayable",
      "type": "constructor"
    },
    {
      "anonymous": false,
      "inputs": [
        {
          "indexed": true,
          "internalType": "bytes32",
          "name": "commitment",
          "type": "bytes32"
        },
        {
          "indexed": false,
          "internalType": "uint32",
          "name": "leafIndex",
          "type": "uint32"
        },
        {
          "indexed": false,
          "internalType": "uint256",
          "name": "timestamp",
          "type": "uint256"
        }
      ],
      "name": "Deposit",
      "type": "event"
    },
    {
      "anonymous": false,
      "inputs": [
        {
          "indexed": false,
          "internalType": "address",
          "name": "to",
          "type": "address"
        },
        {
          "indexed": false,
          "internalType": "bytes32",
          "name": "nullifierHash",
          "type": "bytes32"
        },
        {
          "indexed": true,
          "internalType": "address",
          "name": "relayer",
          "type": "address"
        },
        {
          "indexed": false,
          "internalType": "uint256",
          "name": "fee",
          "type": "uint256"
        }
      ],
      "name": "Withdrawal",
      "type": "event"
    },
    {
      "inputs": [],
      "name": "FIELD_SIZE",
      "outputs": [
        {
          "internalType": "uint256",
          "name": "",
          "type": "uint256"
        }
      ],
      "stateMutability": "view",
      "type": "function"
    },
    {
      "inputs": [],
      "name": "ROOT_HISTORY_SIZE",
      "outputs": [
        {
          "internalType": "uint32",
          "name": "",
          "type": "uint32"
        }
      ],
      "stateMutability": "view",
      "type": "function"
    },
    {
      "inputs": [],
      "name": "ZERO_VALUE",
      "outputs": [
        {
          "internalType": "uint256",
          "name": "",
          "type": "uint256"
        }
      ],
      "stateMutability": "view",
      "type": "function"
    },
    {
      "inputs": [
        {
          "internalType": "address",
          "name": "_newOperator",
          "type": "address"
        }
      ],
      "name": "changeOperator",
      "outputs": [],
      "stateMutability": "nonpayable",
      "type": "function"
    },
    {
      "inputs": [
        {
          "internalType": "bytes32",
          "name": "",
          "type": "bytes32"
        }
      ],
      "name": "commitments",
      "outputs": [
        {
          "internalType": "bool",
          "name": "",
          "type": "bool"
        }
      ],
      "stateMutability": "view",
      "type": "function"
    },
    {
      "inputs": [],
      "name": "currentRootIndex",
      "outputs": [
        {
          "internalType": "uint32",
          "name": "",
          "type": "uint32"
        }
      ],
      "stateMutability": "view",
      "type": "function"
    },
    {
      "inputs": [],
      "name": "denomination",
      "outputs": [
        {
          "internalType": "uint256",
          "name": "",
          "type": "uint256"
        }
      ],
      "stateMutability": "view",
      "type": "function"
    },
    {
      "inputs": [
        {
          "internalType": "bytes32",
          "name": "_commitment",
          "type": "bytes32"
        }
      ],
      "name": "deposit",
      "outputs": [],
      "stateMutability": "payable",
      "type": "function"
    },
    {
      "inputs": [
        {
          "internalType": "uint256",
          "name": "",
          "type": "uint256"
        }
      ],
      "name": "filledSubtrees",
      "outputs": [
        {
          "internalType": "bytes32",
          "name": "",
          "type": "bytes32"
        }
      ],
      "stateMutability": "view",
      "type": "function"
    },
    {
      "inputs": [],
      "name": "getLastRoot",
      "outputs": [
        {
          "internalType": "bytes32",
          "name": "",
          "type": "bytes32"
        }
      ],
      "stateMutability": "view",
      "type": "function"
    },
    {
      "inputs": [
        {
          "internalType": "bytes32",
          "name": "_left",
          "type": "bytes32"
        },
        {
          "internalType": "bytes32",
          "name": "_right",
          "type": "bytes32"
        }
      ],
      "name": "hashLeftRight",
      "outputs": [
        {
          "internalType": "bytes32",
          "name": "",
          "type": "bytes32"
        }
      ],
      "stateMutability": "view",
      "type": "function"
    },
    {
      "inputs": [],
      "name": "hasher",
      "outputs": [
        {
          "internalType": "contract IHasher",
          "name": "",
          "type": "address"
        }
      ],
      "stateMutability": "view",
      "type": "function"
    },
    {
      "inputs": [
        {
          "internalType": "bytes32",
          "name": "_root",
          "type": "bytes32"
        }
      ],
      "name": "isKnownRoot",
      "outputs": [
        {
          "internalType": "bool",
          "name": "",
          "type": "bool"
        }
      ],
      "stateMutability": "view",
      "type": "function"
    },
    {
      "inputs": [
        {
          "internalType": "bytes32",
          "name": "_nullifierHash",
          "type": "bytes32"
        }
      ],
      "name": "isSpent",
      "outputs": [
        {
          "internalType": "bool",
          "name": "",
          "type": "bool"
        }
      ],
      "stateMutability": "view",
      "type": "function"
    },
    {
      "inputs": [
        {
          "internalType": "bytes32[]",
          "name": "_nullifierHashes",
          "type": "bytes32[]"
        }
      ],
      "name": "isSpentArray",
      "outputs": [
        {
          "internalType": "bool[]",
          "name": "spent",
          "type": "bool[]"
        }
      ],
      "stateMutability": "view",
      "type": "function"
    },
    {
      "inputs": [],
      "name": "levels",
      "outputs": [
        {
          "internalType": "uint32",
          "name": "",
          "type": "uint32"
        }
      ],
      "stateMutability": "view",
      "type": "function"
    },
    {
      "inputs": [],
      "name": "nextIndex",
      "outputs": [
        {
          "internalType": "uint32",
          "name": "",
          "type": "uint32"
        }
      ],
      "stateMutability": "view",
      "type": "function"
    },
    {
      "inputs": [
        {
          "internalType": "bytes32",
          "name": "",
          "type": "bytes32"
        }
      ],
      "name": "nullifierHashes",
      "outputs": [
        {
          "internalType": "bool",
          "name": "",
          "type": "bool"
        }
      ],
      "stateMutability": "view",
      "type": "function"
    },
    {
      "inputs": [],
      "name": "operator",
      "outputs": [
        {
          "internalType": "address",
          "name": "",
          "type": "address"
        }
      ],
      "stateMutability": "view",
      "type": "function"
    },
    {
      "inputs": [
        {
          "internalType": "uint256",
          "name": "",
          "type": "uint256"
        }
      ],
      "name": "roots",
      "outputs": [
        {
          "internalType": "bytes32",
          "name": "",
          "type": "bytes32"
        }
      ],
      "stateMutability": "view",
      "type": "function"
    },
    {
      "inputs": [
        {
          "internalType": "address",
          "name": "_newVerifier",
          "type": "address"
        }
      ],
      "name": "updateVerifier",
      "outputs": [],
      "stateMutability": "nonpayable",
      "type": "function"
    },
    {
      "inputs": [],
      "name": "verifier",
      "outputs": [
        {
          "internalType": "contract IVerifier",
          "name": "",
          "type": "address"
        }
      ],
      "stateMutability": "view",
      "type": "function"
    },
    {
      "inputs": [
        {
          "internalType": "bytes",
          "name": "_proof",
          "type": "bytes"
        },
        {
          "internalType": "bytes32",
          "name": "_root",
          "type": "bytes32"
        },
        {
          "internalType": "bytes32",
          "name": "_nullifierHash",
          "type": "bytes32"
        },
        {
          "internalType": "address",
          "name": "_recipient",
          "type": "address"
        },
        {
          "internalType": "address",
          "name": "_relayer",
          "type": "address"
        },
        {
          "internalType": "uint256",
          "name": "_fee",
          "type": "uint256"
        },
        {
          "internalType": "uint256",
          "name": "_refund",
          "type": "uint256"
        }
      ],
      "name": "withdraw",
      "outputs": [],
      "stateMutability": "payable",
      "type": "function"
    },
    {
      "inputs": [
        {
          "internalType": "uint256",
          "name": "",
          "type": "uint256"
        }
      ],
      "name": "zeros",
      "outputs": [
        {
          "internalType": "bytes32",
          "name": "",
          "type": "bytes32"
        }
      ],
      "stateMutability": "view",
      "type": "function"
    }
  ],
  "bytecode": "0x6080604052600380546001600160401b03191690553480156200002157600080fd5b5060405162001c5d38038062001c5d8339810160408190526200004491620003dd565b828160008263ffffffff1611620000785760405162461bcd60e51b81526004016200006f906200052b565b60405180910390fd5b60208263ffffffff1610620000a15760405162461bcd60e51b81526004016200006f9062000572565b6000805463ffffffff60a01b1916600160a01b63ffffffff851602176001600160a01b0319166001600160a01b0383161781556002805460018181019092557f2fe54c60d3acabf3343a35b6eba15db4821b340f76e741e2249685ed4899af6c60008051602062001bfd833981519152909101819055815480830183559282905260008051602062001c3d8339815191529092018290555b60005463ffffffff600160a01b90910481169082161015620001b95762000161828062000229565b60028054600181810190925560008051602062001bfd833981519152018290558054808201825560009190915260008051602062001c3d83398151915201819055915080620001b081620005c2565b91505062000139565b50620001c6818062000229565b600455505060016068555083620001f15760405162461bcd60e51b81526004016200006f9062000470565b50606c80546001600160a01b039586166001600160a01b031991821617909155606d80549290951691161790925560695550620005f3565b600060008051602062001c1d83398151915283106200025c5760405162461bcd60e51b81526004016200006f90620004b5565b60008051602062001c1d83398151915282106200028d5760405162461bcd60e51b81526004016200006f90620004ea565b6000805460405163f47d33b560e01b81528592916001600160a01b03169063f47d33b590620002c39085908590600401620005b4565b604080518083038186803b158015620002db57600080fd5b505afa158015620002f0573d6000803e3d6000fd5b505050506040513d601f19601f820116820180604052508101906200031691906200044c565b909250905060008051602062001c1d83398151915284830860005460405163f47d33b560e01b81529193506001600160a01b03169063f47d33b590620003639085908590600401620005b4565b604080518083038186803b1580156200037b57600080fd5b505afa15801562000390573d6000803e3d6000fd5b505050506040513d601f19601f82011682018060405250810190620003b691906200044c565b5095945050505050565b80516001600160a01b0381168114620003d857600080fd5b919050565b600080600080600060a08688031215620003f5578081fd5b6200040086620003c0565b945060208601519350604086015163ffffffff8116811462000420578182fd5b92506200043060608701620003c0565b91506200044060808701620003c0565b90509295509295909350565b600080604083850312156200045f578182fd5b505080516020909101519092909150565b60208082526025908201527f64656e6f6d696e6174696f6e2073686f756c6420626520677265617465722074604082015264068616e20360dc1b606082015260800190565b6020808252818101527f5f6c6566742073686f756c6420626520696e7369646520746865206669656c64604082015260600190565b60208082526021908201527f5f72696768742073686f756c6420626520696e7369646520746865206669656c6040820152601960fa1b606082015260800190565b60208082526027908201527f5f747265654c6576656c732073686f756c642062652067726561746572207468604082015266616e207a65726f60c81b606082015260800190565b60208082526022908201527f5f747265654c6576656c732073686f756c64206265206c657373207468616e20604082015261199960f11b606082015260800190565b918252602082015260400190565b600063ffffffff80831681811415620005e957634e487b7160e01b83526011600452602483fd5b6001019392505050565b6115fa80620006036000396000f3fe60806040526004361061014b5760003560e01c806397fc007c116100b6578063e5285dcc1161006f578063e5285dcc1461036a578063e82955881461038a578063ec732959146103aa578063ed33639f146103bf578063f178e47c146103d4578063fc7e9c6f146103f45761014b565b806397fc007c146102c05780639fa12d0b146102e0578063b214faa51461030d578063ba70f75714610320578063c2b40ae414610335578063cd87a3b4146103555761014b565b80634ecf518b116101085780634ecf518b1461021f578063570ca735146102415780636d9833e314610256578063839df945146102765780638bca6d161461029657806390eeb02b146102ab5761014b565b806306394c9b1461015057806317cc915c1461017257806321a0adb6146101a85780632b7ac3f3146101bb57806338bf282e146101dd578063414a37ba1461020a575b600080fd5b34801561015c57600080fd5b5061017061016b366004610e13565b610409565b005b34801561017e57600080fd5b5061019261018d366004610ec3565b61045e565b60405161019f919061104b565b60405180910390f35b6101706101b6366004610efc565b610473565b3480156101c757600080fd5b506101d061066a565b60405161019f9190610fd0565b3480156101e957600080fd5b506101fd6101f8366004610edb565b610679565b60405161019f9190611056565b34801561021657600080fd5b506101fd6107fb565b34801561022b57600080fd5b5061023461080d565b60405161019f919061131f565b34801561024d57600080fd5b506101d0610820565b34801561026257600080fd5b50610192610271366004610ec3565b61082f565b34801561028257600080fd5b50610192610291366004610ec3565b6108be565b3480156102a257600080fd5b506101fd6108d3565b3480156102b757600080fd5b506102346108d9565b3480156102cc57600080fd5b506101706102db366004610e13565b6108e5565b3480156102ec57600080fd5b506103006102fb366004610e34565b610931565b60405161019f9190611005565b61017061031b366004610ec3565b610a11565b34801561032c57600080fd5b506101fd610ae9565b34801561034157600080fd5b506101fd610350366004610ec3565b610b1d565b34801561036157600080fd5b50610234610b34565b34801561037657600080fd5b50610192610385366004610ec3565b610b39565b34801561039657600080fd5b506101fd6103a5366004610ec3565b610b4e565b3480156103b657600080fd5b506101fd610b6f565b3480156103cb57600080fd5b506101d0610b93565b3480156103e057600080fd5b506101fd6103ef366004610ec3565b610ba2565b34801561040057600080fd5b50610234610bb2565b606d546001600160a01b0316331461043c5760405162461bcd60e51b815260040161043390611295565b60405180910390fd5b606d80546001600160a01b0319166001600160a01b0392909216919091179055565b606a6020526000908152604090205460ff1681565b6001606860008282546104869190611346565b90915550506068546069548311156104b05760405162461bcd60e51b815260040161043390611140565b6000868152606a602052604090205460ff16156104df5760405162461bcd60e51b81526004016104339061121d565b6104e88761082f565b6105045760405162461bcd60e51b815260040161043390611109565b606c546040805160c081018252898152602081018990526001600160a01b038881168284015287811660608301526080820187905260a08201869052915163695ef6f960e01b8152919092169163695ef6f991610568918d918d919060040161105f565b60206040518083038186803b15801561058057600080fd5b505afa158015610594573d6000803e3d6000fd5b505050506040513d601f19601f820116820180604052508101906105b89190610ea3565b6105d45760405162461bcd60e51b8152600401610433906111ed565b6000868152606a60205260409020805460ff191660011790556105f985858585610bc6565b836001600160a01b03167fe9e508bad6d4c3227e881ca19068f099da81b5164dd6d62b2eaf1e8bc6c3493186888660405161063693929190610fe4565b60405180910390a2606854811461065f5760405162461bcd60e51b8152600401610433906112da565b505050505050505050565b606c546001600160a01b031681565b60006000805160206115a583398151915283106106a85760405162461bcd60e51b815260040161043390611177565b6000805160206115a583398151915282106106d55760405162461bcd60e51b8152600401610433906111ac565b6000805460405163f47d33b560e01b81528592916001600160a01b03169063f47d33b5906107099085908590600401611311565b604080518083038186803b15801561072057600080fd5b505afa158015610734573d6000803e3d6000fd5b505050506040513d601f19601f820116820180604052508101906107589190610fad565b90925090506000805160206115a583398151915284830860005460405163f47d33b560e01b81529193506001600160a01b03169063f47d33b5906107a29085908590600401611311565b604080518083038186803b1580156107b957600080fd5b505afa1580156107cd573d6000803e3d6000fd5b505050506040513d601f19601f820116820180604052508101906107f19190610fad565b5095945050505050565b6000805160206115a583398151915281565b600054600160a01b900463ffffffff1681565b606d546001600160a01b031681565b60008161083e575060006108b9565b60035463ffffffff165b60048163ffffffff166064811061086f57634e487b7160e01b600052603260045260246000fd5b01548314156108825760019150506108b9565b63ffffffff8116610891575060645b8061089b816114f6565b60035490925063ffffffff8084169116141590506108485760009150505b919050565b606b6020526000908152604090205460ff1681565b60695481565b60035463ffffffff1681565b606d546001600160a01b0316331461090f5760405162461bcd60e51b815260040161043390611295565b606c80546001600160a01b0319166001600160a01b0392909216919091179055565b60608167ffffffffffffffff81111561095a57634e487b7160e01b600052604160045260246000fd5b604051908082528060200260200182016040528015610983578160200160208202803683370190505b50905060005b82811015610a0a576109c08484838181106109b457634e487b7160e01b600052603260045260246000fd5b90506020020135610b39565b156109f85760018282815181106109e757634e487b7160e01b600052603260045260246000fd5b911515602092830291909101909101525b80610a0281611516565b915050610989565b5092915050565b600160686000828254610a249190611346565b90915550506068546000828152606b602052604090205460ff1615610a5b5760405162461bcd60e51b815260040161043390611254565b6000610a6683610bcc565b6000848152606b60205260409020805460ff191660011790559050610a89610dfa565b827fa945e51eec50ab98c161376f0db4cf2aeba3ec92755fe2fcd388bdbbb80ff1968242604051610abb929190611330565b60405180910390a2506068548114610ae55760405162461bcd60e51b8152600401610433906112da565b5050565b60035460009060049063ffffffff1660648110610b1657634e487b7160e01b600052603260045260246000fd5b0154905090565b60048160648110610b2d57600080fd5b0154905081565b606481565b6000908152606a602052604090205460ff1690565b60028181548110610b5e57600080fd5b600091825260209091200154905081565b7f2fe54c60d3acabf3343a35b6eba15db4821b340f76e741e2249685ed4899af6c81565b6000546001600160a01b031681565b60018181548110610b5e57600080fd5b600354640100000000900463ffffffff1681565b50505050565b60035460008054909163ffffffff640100000000909104811691610bfa91600160a01b9091041660026113ef565b63ffffffff168163ffffffff161415610c255760405162461bcd60e51b8152600401610433906110ba565b6001600360048282829054906101000a900463ffffffff16610c47919061135e565b92506101000a81548163ffffffff021916908363ffffffff160217905550600083905060008060005b60005463ffffffff600160a01b90910481169082161015610d7357610c96600286611555565b63ffffffff16610d105783925060028163ffffffff1681548110610cca57634e487b7160e01b600052603260045260246000fd5b906000526020600020015491508360018263ffffffff1681548110610cff57634e487b7160e01b600052603260045260246000fd5b600091825260209091200155610d48565b60018163ffffffff1681548110610d3757634e487b7160e01b600052603260045260246000fd5b906000526020600020015492508391505b610d528383610679565b9350610d5f600286611386565b945080610d6b81611531565b915050610c70565b50600354606490610d8b9063ffffffff16600161135e565b610d959190611555565b6003805463ffffffff191663ffffffff928316179081905584916004911660648110610dd157634e487b7160e01b600052603260045260246000fd5b0155600354610df090600190640100000000900463ffffffff166114d1565b9695505050505050565b565b80356001600160a01b03811681146108b957600080fd5b600060208284031215610e24578081fd5b610e2d82610dfc565b9392505050565b60008060208385031215610e46578081fd5b823567ffffffffffffffff80821115610e5d578283fd5b818501915085601f830112610e70578283fd5b813581811115610e7e578384fd5b8660208083028501011115610e91578384fd5b60209290920196919550909350505050565b600060208284031215610eb4578081fd5b81518015158114610e2d578182fd5b600060208284031215610ed4578081fd5b5035919050565b60008060408385031215610eed578182fd5b50508035926020909101359150565b60008060008060008060008060e0898b031215610f17578384fd5b883567ffffffffffffffff80821115610f2e578586fd5b818b0191508b601f830112610f41578586fd5b813581811115610f4f578687fd5b8c6020828501011115610f60578687fd5b60209283019a50985050890135955060408901359450610f8260608a01610dfc565b9350610f9060808a01610dfc565b925060a0890135915060c089013590509295985092959890939650565b60008060408385031215610fbf578182fd5b505080516020909101519092909150565b6001600160a01b0391909116815260200190565b6001600160a01b039390931683526020830191909152604082015260600190565b6020808252825182820181905260009190848201906040850190845b8181101561103f578351151583529284019291840191600101611021565b50909695505050505050565b901515815260200190565b90815260200190565b600060e082528360e0830152610100848682850137828501810191909152601f8401601f191682010160208083018460005b60068110156110ae57815183529183019190830190600101611091565b50505050949350505050565b6020808252602f908201527f4d65726b6c6520747265652069732066756c6c2e204e6f206d6f7265206c656160408201526e199cc818d85b881899481859191959608a1b606082015260800190565b6020808252601c908201527f43616e6e6f742066696e6420796f7572206d65726b6c6520726f6f7400000000604082015260600190565b6020808252601a908201527f4665652065786365656473207472616e736665722076616c7565000000000000604082015260600190565b6020808252818101527f5f6c6566742073686f756c6420626520696e7369646520746865206669656c64604082015260600190565b60208082526021908201527f5f72696768742073686f756c6420626520696e7369646520746865206669656c6040820152601960fa1b606082015260800190565b60208082526016908201527524b73b30b634b2103bb4ba34323930bb90383937b7b360511b604082015260600190565b6020808252601f908201527f546865206e6f746520686173206265656e20616c7265616479207370656e7400604082015260600190565b60208082526021908201527f54686520636f6d6d69746d656e7420686173206265656e207375626d697474656040820152601960fa1b606082015260800190565b60208082526025908201527f4f6e6c79206f70657261746f722063616e2063616c6c20746869732066756e636040820152643a34b7b71760d91b606082015260800190565b6020808252601f908201527f5265656e7472616e637947756172643a207265656e7472616e742063616c6c00604082015260600190565b918252602082015260400190565b63ffffffff91909116815260200190565b63ffffffff929092168252602082015260400190565b6000821982111561135957611359611578565b500190565b600063ffffffff80831681851680830382111561137d5761137d611578565b01949350505050565b600063ffffffff8084168061139d5761139d61158e565b92169190910492915050565b80825b60018086116113bb57506113e6565b8187048211156113cd576113cd611578565b808616156113da57918102915b9490941c9380026113ac565b94509492505050565b600063ffffffff6114058182861683861661140d565b949350505050565b60008261141c57506001610e2d565b8161142957506000610e2d565b816001811461143f576002811461144957611476565b6001915050610e2d565b60ff84111561145a5761145a611578565b6001841b91508482111561147057611470611578565b50610e2d565b5060208310610133831016604e8410600b84101617156114a9575081810a838111156114a4576114a4611578565b610e2d565b6114b684848460016113a9565b8086048211156114c8576114c8611578565b02949350505050565b600063ffffffff838116908316818110156114ee576114ee611578565b039392505050565b600063ffffffff82168061150c5761150c611578565b6000190192915050565b600060001982141561152a5761152a611578565b5060010190565b600063ffffffff8083168181141561154b5761154b611578565b6001019392505050565b600063ffffffff8084168061156c5761156c61158e565b92169190910692915050565b634e487b7160e01b600052601160045260246000fd5b634e487b7160e01b600052601260045260246000fdfe30644e72e131a029b85045b68181585d2833e84879b9709143e1f593f0000001a264697066735822122001b61b3f4f16f2f3ad015655d924ceaef7bc200b2f974d2190df8976be1a468064736f6c63430008000033405787fa12a823e0f2b7631cc41b3ba8828b3321ca811111fa75cd3aa3bb5ace30644e72e131a029b85045b68181585d2833e84879b9709143e1f593f0000001b10e2d527612073b26eecdfd717e6a320cf44b4afac2b0732d9fcbe2b7fa0cf6",
  "linkReferences": {},
  "deployedLinkReferences": {}
}