{
  "_format": "hh-sol-artifact-1",
  "contractName": "TornadoCash_Eth_01",
  "sourceName": "contracts/TornadoCash_Eth_01.sol",
  "abi": [
    {
      "inputs": [
        {
          "internalType": "address",
          "name": "_verifier",
          "type": "address"
        },
        {
          "internalType": "uint256",
          "name": "_denomination",
          "type": "uint256"
        },
        {
          "internalType": "uint32",
          "name": "_merkleTreeHeight",
          "type": "uint32"
        },
        {
          "internalType": "address",
          "name": "_operator",
          "type": "address"
        },
        {
          "internalType": "address",
          "name": "_hasher",
          "type": "address"
        }
      ],
      "stateMutability": "nonpayable",
      "type": "constructor"
    },
    {
      "anonymous": false,
      "inputs": [
        {
          "indexed": true,
          "internalType": "bytes32",
          "name": "commitment",
          "type": "bytes32"
        },
        {
          "indexed": false,
          "internalType": "uint32",
          "name": "leafIndex",
          "type": "uint32"
        },
        {
          "indexed": false,
          "internalType": "uint256",
          "name": "timestamp",
          "type": "uint256"
        }
      ],
      "name": "Deposit",
      "type": "event"
    },
    {
      "anonymous": false,
      "inputs": [
        {
          "indexed": false,
          "internalType": "address",
          "name": "to",
          "type": "address"
        },
        {
          "indexed": false,
          "internalType": "bytes32",
          "name": "nullifierHash",
          "type": "bytes32"
        },
        {
          "indexed": true,
          "internalType": "address",
          "name": "relayer",
          "type": "address"
        },
        {
          "indexed": false,
          "internalType": "uint256",
          "name": "fee",
          "type": "uint256"
        }
      ],
      "name": "Withdrawal",
      "type": "event"
    },
    {
      "inputs": [],
      "name": "FIELD_SIZE",
      "outputs": [
        {
          "internalType": "uint256",
          "name": "",
          "type": "uint256"
        }
      ],
      "stateMutability": "view",
      "type": "function"
    },
    {
      "inputs": [],
      "name": "ROOT_HISTORY_SIZE",
      "outputs": [
        {
          "internalType": "uint32",
          "name": "",
          "type": "uint32"
        }
      ],
      "stateMutability": "view",
      "type": "function"
    },
    {
      "inputs": [],
      "name": "ZERO_VALUE",
      "outputs": [
        {
          "internalType": "uint256",
          "name": "",
          "type": "uint256"
        }
      ],
      "stateMutability": "view",
      "type": "function"
    },
    {
      "inputs": [
        {
          "internalType": "address",
          "name": "_newOperator",
          "type": "address"
        }
      ],
      "name": "changeOperator",
      "outputs": [],
      "stateMutability": "nonpayable",
      "type": "function"
    },
    {
      "inputs": [
        {
          "internalType": "bytes32",
          "name": "",
          "type": "bytes32"
        }
      ],
      "name": "commitments",
      "outputs": [
        {
          "internalType": "bool",
          "name": "",
          "type": "bool"
        }
      ],
      "stateMutability": "view",
      "type": "function"
    },
    {
      "inputs": [],
      "name": "currentRootIndex",
      "outputs": [
        {
          "internalType": "uint32",
          "name": "",
          "type": "uint32"
        }
      ],
      "stateMutability": "view",
      "type": "function"
    },
    {
      "inputs": [],
      "name": "denomination",
      "outputs": [
        {
          "internalType": "uint256",
          "name": "",
          "type": "uint256"
        }
      ],
      "stateMutability": "view",
      "type": "function"
    },
    {
      "inputs": [
        {
          "internalType": "bytes32",
          "name": "_commitment",
          "type": "bytes32"
        }
      ],
      "name": "deposit",
      "outputs": [],
      "stateMutability": "payable",
      "type": "function"
    },
    {
      "inputs": [
        {
          "internalType": "uint256",
          "name": "",
          "type": "uint256"
        }
      ],
      "name": "filledSubtrees",
      "outputs": [
        {
          "internalType": "bytes32",
          "name": "",
          "type": "bytes32"
        }
      ],
      "stateMutability": "view",
      "type": "function"
    },
    {
      "inputs": [],
      "name": "finishMigration",
      "outputs": [],
      "stateMutability": "payable",
      "type": "function"
    },
    {
      "inputs": [],
      "name": "getLastRoot",
      "outputs": [
        {
          "internalType": "bytes32",
          "name": "",
          "type": "bytes32"
        }
      ],
      "stateMutability": "view",
      "type": "function"
    },
    {
      "inputs": [
        {
          "internalType": "bytes32",
          "name": "_left",
          "type": "bytes32"
        },
        {
          "internalType": "bytes32",
          "name": "_right",
          "type": "bytes32"
        }
      ],
      "name": "hashLeftRight",
      "outputs": [
        {
          "internalType": "bytes32",
          "name": "",
          "type": "bytes32"
        }
      ],
      "stateMutability": "view",
      "type": "function"
    },
    {
      "inputs": [],
      "name": "hasher",
      "outputs": [
        {
          "internalType": "contract IHasher",
          "name": "",
          "type": "address"
        }
      ],
      "stateMutability": "view",
      "type": "function"
    },
    {
      "inputs": [
        {
          "internalType": "bytes32[]",
          "name": "_filledSubtrees",
          "type": "bytes32[]"
        },
        {
          "internalType": "bytes32",
          "name": "_root",
          "type": "bytes32"
        }
      ],
      "name": "initializeTreeForMigration",
      "outputs": [],
      "stateMutability": "nonpayable",
      "type": "function"
    },
    {
      "inputs": [
        {
          "internalType": "bytes32",
          "name": "_root",
          "type": "bytes32"
        }
      ],
      "name": "isKnownRoot",
      "outputs": [
        {
          "internalType": "bool",
          "name": "",
          "type": "bool"
        }
      ],
      "stateMutability": "view",
      "type": "function"
    },
    {
      "inputs": [],
      "name": "isMigrated",
      "outputs": [
        {
          "internalType": "bool",
          "name": "",
          "type": "bool"
        }
      ],
      "stateMutability": "view",
      "type": "function"
    },
    {
      "inputs": [
        {
          "internalType": "bytes32",
          "name": "_nullifierHash",
          "type": "bytes32"
        }
      ],
      "name": "isSpent",
      "outputs": [
        {
          "internalType": "bool",
          "name": "",
          "type": "bool"
        }
      ],
      "stateMutability": "view",
      "type": "function"
    },
    {
      "inputs": [
        {
          "internalType": "bytes32[]",
          "name": "_nullifierHashes",
          "type": "bytes32[]"
        }
      ],
      "name": "isSpentArray",
      "outputs": [
        {
          "internalType": "bool[]",
          "name": "spent",
          "type": "bool[]"
        }
      ],
      "stateMutability": "view",
      "type": "function"
    },
    {
      "inputs": [],
      "name": "levels",
      "outputs": [
        {
          "internalType": "uint32",
          "name": "",
          "type": "uint32"
        }
      ],
      "stateMutability": "view",
      "type": "function"
    },
    {
      "inputs": [
        {
          "internalType": "bytes32[]",
          "name": "_commitments",
          "type": "bytes32[]"
        },
        {
          "internalType": "bytes32[]",
          "name": "_nullifierHashes",
          "type": "bytes32[]"
        }
      ],
      "name": "migrateState",
      "outputs": [],
      "stateMutability": "nonpayable",
      "type": "function"
    },
    {
      "inputs": [],
      "name": "nextIndex",
      "outputs": [
        {
          "internalType": "uint32",
          "name": "",
          "type": "uint32"
        }
      ],
      "stateMutability": "view",
      "type": "function"
    },
    {
      "inputs": [
        {
          "internalType": "bytes32",
          "name": "",
          "type": "bytes32"
        }
      ],
      "name": "nullifierHashes",
      "outputs": [
        {
          "internalType": "bool",
          "name": "",
          "type": "bool"
        }
      ],
      "stateMutability": "view",
      "type": "function"
    },
    {
      "inputs": [],
      "name": "operator",
      "outputs": [
        {
          "internalType": "address",
          "name": "",
          "type": "address"
        }
      ],
      "stateMutability": "view",
      "type": "function"
    },
    {
      "inputs": [
        {
          "internalType": "uint256",
          "name": "",
          "type": "uint256"
        }
      ],
      "name": "roots",
      "outputs": [
        {
          "internalType": "bytes32",
          "name": "",
          "type": "bytes32"
        }
      ],
      "stateMutability": "view",
      "type": "function"
    },
    {
      "inputs": [
        {
          "internalType": "address",
          "name": "_newVerifier",
          "type": "address"
        }
      ],
      "name": "updateVerifier",
      "outputs": [],
      "stateMutability": "nonpayable",
      "type": "function"
    },
    {
      "inputs": [],
      "name": "verifier",
      "outputs": [
        {
          "internalType": "contract IVerifier",
          "name": "",
          "type": "address"
        }
      ],
      "stateMutability": "view",
      "type": "function"
    },
    {
      "inputs": [
        {
          "internalType": "bytes",
          "name": "_proof",
          "type": "bytes"
        },
        {
          "internalType": "bytes32",
          "name": "_root",
          "type": "bytes32"
        },
        {
          "internalType": "bytes32",
          "name": "_nullifierHash",
          "type": "bytes32"
        },
        {
          "internalType": "address",
          "name": "_recipient",
          "type": "address"
        },
        {
          "internalType": "address",
          "name": "_relayer",
          "type": "address"
        },
        {
          "internalType": "uint256",
          "name": "_fee",
          "type": "uint256"
        },
        {
          "internalType": "uint256",
          "name": "_refund",
          "type": "uint256"
        }
      ],
      "name": "withdraw",
      "outputs": [],
      "stateMutability": "payable",
      "type": "function"
    },
    {
      "inputs": [
        {
          "internalType": "uint256",
          "name": "",
          "type": "uint256"
        }
      ],
      "name": "zeros",
      "outputs": [
        {
          "internalType": "bytes32",
          "name": "",
          "type": "bytes32"
        }
      ],
      "stateMutability": "view",
      "type": "function"
    }
  ],
  "bytecode": "0x6080604052600380546001600160401b0319169055606d805460ff60a01b191690553480156200002e57600080fd5b5060405162002507380380620025078339810160408190526200005191620003ff565b84848484848484848484828160008263ffffffff16116200008f5760405162461bcd60e51b815260040162000086906200054d565b60405180910390fd5b60208263ffffffff1610620000b85760405162461bcd60e51b8152600401620000869062000594565b6000805463ffffffff60a01b1916600160a01b63ffffffff851602176001600160a01b0319166001600160a01b0383161781556002805460018181019092557f2fe54c60d3acabf3343a35b6eba15db4821b340f76e741e2249685ed4899af6c600080516020620024a78339815191529091018190558154808301835592829052600080516020620024e78339815191529092018290555b60005463ffffffff600160a01b90910481169082161015620001d0576200017882806200024b565b600280546001818101909255600080516020620024a78339815191520182905580548082018255600091909152600080516020620024e783398151915201819055915080620001c781620005e4565b91505062000150565b50620001dd81806200024b565b600455505060016068555083620002085760405162461bcd60e51b8152600401620000869062000492565b50606c80546001600160a01b039586166001600160a01b031991821617909155606d80549290951691161790925560695550620006159950505050505050505050565b6000600080516020620024c783398151915283106200027e5760405162461bcd60e51b81526004016200008690620004d7565b600080516020620024c78339815191528210620002af5760405162461bcd60e51b815260040162000086906200050c565b6000805460405163f47d33b560e01b81528592916001600160a01b03169063f47d33b590620002e59085908590600401620005d6565b604080518083038186803b158015620002fd57600080fd5b505afa15801562000312573d6000803e3d6000fd5b505050506040513d601f19601f820116820180604052508101906200033891906200046e565b9092509050600080516020620024c783398151915284830860005460405163f47d33b560e01b81529193506001600160a01b03169063f47d33b590620003859085908590600401620005d6565b604080518083038186803b1580156200039d57600080fd5b505afa158015620003b2573d6000803e3d6000fd5b505050506040513d601f19601f82011682018060405250810190620003d891906200046e565b5095945050505050565b80516001600160a01b0381168114620003fa57600080fd5b919050565b600080600080600060a0868803121562000417578081fd5b6200042286620003e2565b945060208601519350604086015163ffffffff8116811462000442578182fd5b92506200045260608701620003e2565b91506200046260808701620003e2565b90509295509295909350565b6000806040838503121562000481578182fd5b505080516020909101519092909150565b60208082526025908201527f64656e6f6d696e6174696f6e2073686f756c6420626520677265617465722074604082015264068616e20360dc1b606082015260800190565b6020808252818101527f5f6c6566742073686f756c6420626520696e7369646520746865206669656c64604082015260600190565b60208082526021908201527f5f72696768742073686f756c6420626520696e7369646520746865206669656c6040820152601960fa1b606082015260800190565b60208082526027908201527f5f747265654c6576656c732073686f756c642062652067726561746572207468604082015266616e207a65726f60c81b606082015260800190565b60208082526022908201527f5f747265654c6576656c732073686f756c64206265206c657373207468616e20604082015261199960f11b606082015260800190565b918252602082015260400190565b600063ffffffff808316818114156200060b57634e487b7160e01b83526011600452602483fd5b6001019392505050565b611e8280620006256000396000f3fe6080604052600436106101b75760003560e01c8063916710aa116100ec578063cd87a3b41161008a578063ec73295911610064578063ec73295914610473578063ed33639f14610488578063f178e47c1461049d578063fc7e9c6f146104bd576101b7565b8063cd87a3b41461041e578063e5285dcc14610433578063e829558814610453576101b7565b8063b06faf62116100c6578063b06faf62146103c1578063b214faa5146103d6578063ba70f757146103e9578063c2b40ae4146103fe576101b7565b8063916710aa1461035457806397fc007c146103745780639fa12d0b14610394576101b7565b8063570ca73511610159578063839df94511610133578063839df9451461030257806388d761f2146103225780638bca6d161461032a57806390eeb02b1461033f576101b7565b8063570ca735146102ad5780636ba355aa146102c25780636d9833e3146102e2576101b7565b80632b7ac3f3116101955780632b7ac3f31461022757806338bf282e14610249578063414a37ba146102765780634ecf518b1461028b576101b7565b806306394c9b146101bc57806317cc915c146101de57806321a0adb614610214575b600080fd5b3480156101c857600080fd5b506101dc6101d7366004611416565b6104d2565b005b3480156101ea57600080fd5b506101fe6101f936600461154a565b610527565b60405161020b91906116d5565b60405180910390f35b6101dc610222366004611583565b61053c565b34801561023357600080fd5b5061023c610733565b60405161020b919061165a565b34801561025557600080fd5b50610269610264366004611562565b610742565b60405161020b91906116e0565b34801561028257600080fd5b506102696108c4565b34801561029757600080fd5b506102a06108d6565b60405161020b9190611b90565b3480156102b957600080fd5b5061023c6108e9565b3480156102ce57600080fd5b506101dc6102dd3660046114e0565b6108f8565b3480156102ee57600080fd5b506101fe6102fd36600461154a565b610960565b34801561030e57600080fd5b506101fe61031d36600461154a565b6109ef565b6101dc610a04565b34801561033657600080fd5b50610269610a43565b34801561034b57600080fd5b506102a0610a49565b34801561036057600080fd5b506101dc61036f366004611477565b610a55565b34801561038057600080fd5b506101dc61038f366004611416565b610ccd565b3480156103a057600080fd5b506103b46103af366004611437565b610d19565b60405161020b919061168f565b3480156103cd57600080fd5b506101fe610df9565b6101dc6103e436600461154a565b610e09565b3480156103f557600080fd5b50610269610ee1565b34801561040a57600080fd5b5061026961041936600461154a565b610f15565b34801561042a57600080fd5b506102a0610f2c565b34801561043f57600080fd5b506101fe61044e36600461154a565b610f31565b34801561045f57600080fd5b5061026961046e36600461154a565b610f46565b34801561047f57600080fd5b50610269610f67565b34801561049457600080fd5b5061023c610f8b565b3480156104a957600080fd5b506102696104b836600461154a565b610f9a565b3480156104c957600080fd5b506102a0610faa565b606d546001600160a01b031633146105055760405162461bcd60e51b81526004016104fc90611ab1565b60405180910390fd5b606d80546001600160a01b0319166001600160a01b0392909216919091179055565b606a6020526000908152604090205460ff1681565b60016068600082825461054f9190611bb7565b90915550506068546069548311156105795760405162461bcd60e51b81526004016104fc90611823565b6000868152606a602052604090205460ff16156105a85760405162461bcd60e51b81526004016104fc906119b1565b6105b187610960565b6105cd5760405162461bcd60e51b81526004016104fc906117ec565b606c546040805160c081018252898152602081018990526001600160a01b038881168284015287811660608301526080820187905260a08201869052915163695ef6f960e01b8152919092169163695ef6f991610631918d918d91906004016116e9565b60206040518083038186803b15801561064957600080fd5b505afa15801561065d573d6000803e3d6000fd5b505050506040513d601f19601f82011682018060405250810190610681919061152a565b61069d5760405162461bcd60e51b81526004016104fc9061192d565b6000868152606a60205260409020805460ff191660011790556106c285858585610fbe565b836001600160a01b03167fe9e508bad6d4c3227e881ca19068f099da81b5164dd6d62b2eaf1e8bc6c349318688866040516106ff9392919061166e565b60405180910390a260685481146107285760405162461bcd60e51b81526004016104fc90611af6565b505050505050505050565b606c546001600160a01b031681565b6000600080516020611e2d83398151915283106107715760405162461bcd60e51b81526004016104fc906118b7565b600080516020611e2d833981519152821061079e5760405162461bcd60e51b81526004016104fc906118ec565b6000805460405163f47d33b560e01b81528592916001600160a01b03169063f47d33b5906107d29085908590600401611b82565b604080518083038186803b1580156107e957600080fd5b505afa1580156107fd573d6000803e3d6000fd5b505050506040513d601f19601f820116820180604052508101906108219190611634565b9092509050600080516020611e2d83398151915284830860005460405163f47d33b560e01b81529193506001600160a01b03169063f47d33b59061086b9085908590600401611b82565b604080518083038186803b15801561088257600080fd5b505afa158015610896573d6000803e3d6000fd5b505050506040513d601f19601f820116820180604052508101906108ba9190611634565b5095945050505050565b600080516020611e2d83398151915281565b600054600160a01b900463ffffffff1681565b606d546001600160a01b031681565b606d546001600160a01b031633146109225760405162461bcd60e51b81526004016104fc90611ab1565b606d54600160a01b900460ff161561094c5760405162461bcd60e51b81526004016104fc90611744565b61095860018484611356565b506004555050565b60008161096f575060006109ea565b60035463ffffffff165b60048163ffffffff16606481106109a057634e487b7160e01b600052603260045260246000fd5b01548314156109b35760019150506109ea565b63ffffffff81166109c2575060645b806109cc81611d7e565b60035490925063ffffffff8084169116141590506109795760009150505b919050565b606b6020526000908152604090205460ff1681565b606d546001600160a01b03163314610a2e5760405162461bcd60e51b81526004016104fc90611ab1565b606d805460ff60a01b1916600160a01b179055565b60695481565b60035463ffffffff1681565b606d546001600160a01b03163314610a7f5760405162461bcd60e51b81526004016104fc90611ab1565b606d54600160a01b900460ff1615610aa95760405162461bcd60e51b81526004016104fc906117bd565b60005b63ffffffff8116841115610ba7576001606b600087878563ffffffff16818110610ae657634e487b7160e01b600052603260045260246000fd5b90506020020135815260200190815260200160002060006101000a81548160ff02191690831515021790555084848263ffffffff16818110610b3857634e487b7160e01b600052603260045260246000fd5b905060200201357fa945e51eec50ab98c161376f0db4cf2aeba3ec92755fe2fcd388bdbbb80ff19682600360049054906101000a900463ffffffff16610b7e9190611bcf565b42604051610b8d929190611ba1565b60405180910390a280610b9f81611db9565b915050610aac565b5060038054849190600490610bcb908490640100000000900463ffffffff16611bcf565b92506101000a81548163ffffffff021916908363ffffffff16021790555060005b81811015610cc6576001606a6000858585818110610c1a57634e487b7160e01b600052603260045260246000fd5b90506020020135815260200190815260200160002060006101000a81548160ff02191690831515021790555060006001600160a01b03167fe9e508bad6d4c3227e881ca19068f099da81b5164dd6d62b2eaf1e8bc6c349316000858585818110610c9457634e487b7160e01b600052603260045260246000fd5b905060200201356000604051610cac9392919061166e565b60405180910390a280610cbe81611d9e565b915050610bec565b5050505050565b606d546001600160a01b03163314610cf75760405162461bcd60e51b81526004016104fc90611ab1565b606c80546001600160a01b0319166001600160a01b0392909216919091179055565b60608167ffffffffffffffff811115610d4257634e487b7160e01b600052604160045260246000fd5b604051908082528060200260200182016040528015610d6b578160200160208202803683370190505b50905060005b82811015610df257610da8848483818110610d9c57634e487b7160e01b600052603260045260246000fd5b90506020020135610f31565b15610de0576001828281518110610dcf57634e487b7160e01b600052603260045260246000fd5b911515602092830291909101909101525b80610dea81611d9e565b915050610d71565b5092915050565b606d54600160a01b900460ff1681565b600160686000828254610e1c9190611bb7565b90915550506068546000828152606b602052604090205460ff1615610e535760405162461bcd60e51b81526004016104fc906119e8565b6000610e5e83611105565b6000848152606b60205260409020805460ff191660011790559050610e81611333565b827fa945e51eec50ab98c161376f0db4cf2aeba3ec92755fe2fcd388bdbbb80ff1968242604051610eb3929190611ba1565b60405180910390a2506068548114610edd5760405162461bcd60e51b81526004016104fc90611af6565b5050565b60035460009060049063ffffffff1660648110610f0e57634e487b7160e01b600052603260045260246000fd5b0154905090565b60048160648110610f2557600080fd5b0154905081565b606481565b6000908152606a602052604090205460ff1690565b60028181548110610f5657600080fd5b600091825260209091200154905081565b7f2fe54c60d3acabf3343a35b6eba15db4821b340f76e741e2249685ed4899af6c81565b6000546001600160a01b031681565b60018181548110610f5657600080fd5b600354640100000000900463ffffffff1681565b3415610fdc5760405162461bcd60e51b81526004016104fc90611b2d565b8015610ffa5760405162461bcd60e51b81526004016104fc9061195d565b6000846001600160a01b0316836069546110149190611d42565b60405161102090611657565b60006040518083038185875af1925050503d806000811461105d576040519150601f19603f3d011682016040523d82523d6000602084013e611062565b606091505b50509050806110835760405162461bcd60e51b81526004016104fc90611a29565b8215610cc657836001600160a01b0316836040516110a090611657565b60006040518083038185875af1925050503d80600081146110dd576040519150601f19603f3d011682016040523d82523d6000602084013e6110e2565b606091505b50508091505080610cc65760405162461bcd60e51b81526004016104fc90611a6e565b60035460008054909163ffffffff64010000000090910481169161113391600160a01b909104166002611c60565b63ffffffff168163ffffffff16141561115e5760405162461bcd60e51b81526004016104fc9061176e565b6001600360048282829054906101000a900463ffffffff166111809190611bcf565b92506101000a81548163ffffffff021916908363ffffffff160217905550600083905060008060005b60005463ffffffff600160a01b909104811690821610156112ac576111cf600286611ddd565b63ffffffff166112495783925060028163ffffffff168154811061120357634e487b7160e01b600052603260045260246000fd5b906000526020600020015491508360018263ffffffff168154811061123857634e487b7160e01b600052603260045260246000fd5b600091825260209091200155611281565b60018163ffffffff168154811061127057634e487b7160e01b600052603260045260246000fd5b906000526020600020015492508391505b61128b8383610742565b9350611298600286611bf7565b9450806112a481611db9565b9150506111a9565b506003546064906112c49063ffffffff166001611bcf565b6112ce9190611ddd565b6003805463ffffffff191663ffffffff92831617908190558491600491166064811061130a57634e487b7160e01b600052603260045260246000fd5b015560035461132990600190640100000000900463ffffffff16611d59565b9695505050505050565b60695434146113545760405162461bcd60e51b81526004016104fc9061185a565b565b828054828255906000526020600020908101928215611391579160200282015b82811115611391578235825591602001919060010190611376565b5061139d9291506113a1565b5090565b5b8082111561139d57600081556001016113a2565b80356001600160a01b03811681146109ea57600080fd5b60008083601f8401126113de578182fd5b50813567ffffffffffffffff8111156113f5578182fd5b602083019150836020808302850101111561140f57600080fd5b9250929050565b600060208284031215611427578081fd5b611430826113b6565b9392505050565b60008060208385031215611449578081fd5b823567ffffffffffffffff81111561145f578182fd5b61146b858286016113cd565b90969095509350505050565b6000806000806040858703121561148c578182fd5b843567ffffffffffffffff808211156114a3578384fd5b6114af888389016113cd565b909650945060208701359150808211156114c7578384fd5b506114d4878288016113cd565b95989497509550505050565b6000806000604084860312156114f4578283fd5b833567ffffffffffffffff81111561150a578384fd5b611516868287016113cd565b909790965060209590950135949350505050565b60006020828403121561153b578081fd5b81518015158114611430578182fd5b60006020828403121561155b578081fd5b5035919050565b60008060408385031215611574578182fd5b50508035926020909101359150565b60008060008060008060008060e0898b03121561159e578384fd5b883567ffffffffffffffff808211156115b5578586fd5b818b0191508b601f8301126115c8578586fd5b8135818111156115d6578687fd5b8c60208285010111156115e7578687fd5b60209283019a5098505089013595506040890135945061160960608a016113b6565b935061161760808a016113b6565b925060a0890135915060c089013590509295985092959890939650565b60008060408385031215611646578182fd5b505080516020909101519092909150565b90565b6001600160a01b0391909116815260200190565b6001600160a01b039390931683526020830191909152604082015260600190565b6020808252825182820181905260009190848201906040850190845b818110156116c95783511515835292840192918401916001016116ab565b50909695505050505050565b901515815260200190565b90815260200190565b600060e082528360e0830152610100848682850137828501810191909152601f8401601f191682010160208083018460005b60068110156117385781518352918301919083019060010161171b565b50505050949350505050565b60208082526010908201526f185b1c9958591e481b5a59dc985d195960821b604082015260600190565b6020808252602f908201527f4d65726b6c6520747265652069732066756c6c2e204e6f206d6f7265206c656160408201526e199cc818d85b881899481859191959608a1b606082015260800190565b602080825260159082015274135a59dc985d1a5bdb881a5cc8191a5cd8589b1959605a1b604082015260600190565b6020808252601c908201527f43616e6e6f742066696e6420796f7572206d65726b6c6520726f6f7400000000604082015260600190565b6020808252601a908201527f4665652065786365656473207472616e736665722076616c7565000000000000604082015260600190565b60208082526038908201527f506c656173652073656e6420606d697844656e6f6d696e6174696f6e6020455460408201527f4820616c6f6e672077697468207472616e73616374696f6e0000000000000000606082015260800190565b6020808252818101527f5f6c6566742073686f756c6420626520696e7369646520746865206669656c64604082015260600190565b60208082526021908201527f5f72696768742073686f756c6420626520696e7369646520746865206669656c6040820152601960fa1b606082015260800190565b60208082526016908201527524b73b30b634b2103bb4ba34323930bb90383937b7b360511b604082015260600190565b60208082526034908201527f526566756e642076616c756520697320737570706f73656420746f206265207a60408201527365726f20666f722045544820696e7374616e636560601b606082015260800190565b6020808252601f908201527f546865206e6f746520686173206265656e20616c7265616479207370656e7400604082015260600190565b60208082526021908201527f54686520636f6d6d69746d656e7420686173206265656e207375626d697474656040820152601960fa1b606082015260800190565b60208082526025908201527f7061796d656e7420746f205f726563697069656e7420646964206e6f7420676f604082015264207468727560d81b606082015260800190565b60208082526023908201527f7061796d656e7420746f205f72656c6179657220646964206e6f7420676f207460408201526268727560e81b606082015260800190565b60208082526025908201527f4f6e6c79206f70657261746f722063616e2063616c6c20746869732066756e636040820152643a34b7b71760d91b606082015260800190565b6020808252601f908201527f5265656e7472616e637947756172643a207265656e7472616e742063616c6c00604082015260600190565b60208082526035908201527f4d6573736167652076616c756520697320737570706f73656420746f206265206040820152747a65726f20666f722045544820696e7374616e636560581b606082015260800190565b918252602082015260400190565b63ffffffff91909116815260200190565b63ffffffff929092168252602082015260400190565b60008219821115611bca57611bca611e00565b500190565b600063ffffffff808316818516808303821115611bee57611bee611e00565b01949350505050565b600063ffffffff80841680611c0e57611c0e611e16565b92169190910492915050565b80825b6001808611611c2c5750611c57565b818704821115611c3e57611c3e611e00565b80861615611c4b57918102915b9490941c938002611c1d565b94509492505050565b600063ffffffff611c7681828616838616611c7e565b949350505050565b600082611c8d57506001611430565b81611c9a57506000611430565b8160018114611cb05760028114611cba57611ce7565b6001915050611430565b60ff841115611ccb57611ccb611e00565b6001841b915084821115611ce157611ce1611e00565b50611430565b5060208310610133831016604e8410600b8410161715611d1a575081810a83811115611d1557611d15611e00565b611430565b611d278484846001611c1a565b808604821115611d3957611d39611e00565b02949350505050565b600082821015611d5457611d54611e00565b500390565b600063ffffffff83811690831681811015611d7657611d76611e00565b039392505050565b600063ffffffff821680611d9457611d94611e00565b6000190192915050565b6000600019821415611db257611db2611e00565b5060010190565b600063ffffffff80831681811415611dd357611dd3611e00565b6001019392505050565b600063ffffffff80841680611df457611df4611e16565b92169190910692915050565b634e487b7160e01b600052601160045260246000fd5b634e487b7160e01b600052601260045260246000fdfe30644e72e131a029b85045b68181585d2833e84879b9709143e1f593f0000001a2646970667358221220e9c9fa9eab964ccd3de77e0760b0d17a9213a5e0f6c057d66e214183eabd80d364736f6c63430008000033405787fa12a823e0f2b7631cc41b3ba8828b3321ca811111fa75cd3aa3bb5ace30644e72e131a029b85045b68181585d2833e84879b9709143e1f593f0000001b10e2d527612073b26eecdfd717e6a320cf44b4afac2b0732d9fcbe2b7fa0cf6",
  "linkReferences": {},
  "deployedLinkReferences": {}
}