{
  "_format": "hh-sol-artifact-1",
  "contractName": "EnsResolve",
  "sourceName": "contracts/TornadoRouter.sol",
  "abi": [
    {
      "inputs": [
        {
          "internalType": "bytes32[]",
          "name": "domains",
          "type": "bytes32[]"
        }
      ],
      "name": "bulkResolve",
      "outputs": [
        {
          "internalType": "address[]",
          "name": "result",
          "type": "address[]"
        }
      ],
      "stateMutability": "view",
      "type": "function"
    },
    {
      "inputs": [
        {
          "internalType": "bytes32",
          "name": "node",
          "type": "bytes32"
        }
      ],
      "name": "resolve",
      "outputs": [
        {
          "internalType": "address",
          "name": "",
          "type": "address"
        }
      ],
      "stateMutability": "view",
      "type": "function"
    }
  ],
  "bytecode": "0x608060405234801561001057600080fd5b506103cf806100206000396000f3fe608060405234801561001057600080fd5b50600436106100365760003560e01c80635c23bdf51461003b578063f9e5423414610064575b600080fd5b61004e6100493660046102da565b610084565b60405161005b91906102f2565b60405180910390f35b610077610072366004610220565b610117565b60405161005b9190610306565b604051630178b8bf60e01b8152600090732adbc281675983b3041eae2f4adaff40edcde22d908190630178b8bf906100c0908690600401610353565b60206040518083038186803b1580156100d857600080fd5b505afa1580156100ec573d6000803e3d6000fd5b505050506040513d601f19601f8201168201806040525081019061011091906101f9565b9392505050565b6060815167ffffffffffffffff81111561014157634e487b7160e01b600052604160045260246000fd5b60405190808252806020026020018201604052801561016a578160200160208202803683370190505b50905060005b82518110156101f3576101a983828151811061019c57634e487b7160e01b600052603260045260246000fd5b6020026020010151610084565b8282815181106101c957634e487b7160e01b600052603260045260246000fd5b6001600160a01b0390921660209283029190910190910152806101eb8161035c565b915050610170565b50919050565b60006020828403121561020a578081fd5b81516001600160a01b0381168114610110578182fd5b60006020808385031215610232578182fd5b823567ffffffffffffffff80821115610249578384fd5b818501915085601f83011261025c578384fd5b81358181111561026e5761026e610383565b8381026040518582820101818110858211171561028d5761028d610383565b604052828152858101935084860182860187018a10156102ab578788fd5b8795505b838610156102cd5780358552600195909501949386019386016102af565b5098975050505050505050565b6000602082840312156102eb578081fd5b5035919050565b6001600160a01b0391909116815260200190565b6020808252825182820181905260009190848201906040850190845b818110156103475783516001600160a01b031683529284019291840191600101610322565b50909695505050505050565b90815260200190565b600060001982141561037c57634e487b7160e01b81526011600452602481fd5b5060010190565b634e487b7160e01b600052604160045260246000fdfea2646970667358221220c18b63dc43959bad3b89263c91f42d9c650e67060464a197e396c5c866d3be7b64736f6c63430008000033",
  "linkReferences": {},
  "deployedLinkReferences": {}
}