{
  "_format": "hh-sol-artifact-1",
  "contractName": "FeeManager",
  "sourceName": "contracts/TornadoRouter.sol",
  "abi": [
    {
      "inputs": [
        {
          "internalType": "address",
          "name": "_torn",
          "type": "address"
        },
        {
          "internalType": "address",
          "name": "_governance",
          "type": "address"
        },
        {
          "internalType": "bytes32",
          "name": "_registry",
          "type": "bytes32"
        }
      ],
      "stateMutability": "nonpayable",
      "type": "constructor"
    },
    {
      "anonymous": false,
      "inputs": [
        {
          "indexed": true,
          "internalType": "address",
          "name": "instance",
          "type": "address"
        },
        {
          "indexed": false,
          "internalType": "uint256",
          "name": "newFee",
          "type": "uint256"
        }
      ],
      "name": "FeeUpdated",
      "type": "event"
    },
    {
      "anonymous": false,
      "inputs": [
        {
          "indexed": false,
          "internalType": "uint24",
          "name": "newFee",
          "type": "uint24"
        }
      ],
      "name": "UniswapTornPoolSwappingFeeChanged",
      "type": "event"
    },
    {
      "inputs": [],
      "name": "PROTOCOL_FEE_DIVIDER",
      "outputs": [
        {
          "internalType": "uint256",
          "name": "",
          "type": "uint256"
        }
      ],
      "stateMutability": "view",
      "type": "function"
    },
    {
      "inputs": [
        {
          "internalType": "bytes32[]",
          "name": "domains",
          "type": "bytes32[]"
        }
      ],
      "name": "bulkResolve",
      "outputs": [
        {
          "internalType": "address[]",
          "name": "result",
          "type": "address[]"
        }
      ],
      "stateMutability": "view",
      "type": "function"
    },
    {
      "inputs": [
        {
          "internalType": "contract ITornadoInstance",
          "name": "_instance",
          "type": "address"
        }
      ],
      "name": "calculatePoolFee",
      "outputs": [
        {
          "internalType": "uint160",
          "name": "",
          "type": "uint160"
        }
      ],
      "stateMutability": "view",
      "type": "function"
    },
    {
      "inputs": [],
      "name": "feeDeviations",
      "outputs": [
        {
          "components": [
            {
              "internalType": "address",
              "name": "instance",
              "type": "address"
            },
            {
              "internalType": "int256",
              "name": "deviation",
              "type": "int256"
            }
          ],
          "internalType": "struct FeeManager.Deviation[]",
          "name": "results",
          "type": "tuple[]"
        }
      ],
      "stateMutability": "view",
      "type": "function"
    },
    {
      "inputs": [],
      "name": "governance",
      "outputs": [
        {
          "internalType": "address",
          "name": "",
          "type": "address"
        }
      ],
      "stateMutability": "view",
      "type": "function"
    },
    {
      "inputs": [
        {
          "internalType": "contract ITornadoInstance",
          "name": "",
          "type": "address"
        }
      ],
      "name": "instanceFee",
      "outputs": [
        {
          "internalType": "uint160",
          "name": "",
          "type": "uint160"
        }
      ],
      "stateMutability": "view",
      "type": "function"
    },
    {
      "inputs": [
        {
          "internalType": "contract ITornadoInstance",
          "name": "",
          "type": "address"
        }
      ],
      "name": "instanceFeeUpdated",
      "outputs": [
        {
          "internalType": "uint256",
          "name": "",
          "type": "uint256"
        }
      ],
      "stateMutability": "view",
      "type": "function"
    },
    {
      "inputs": [
        {
          "internalType": "contract ITornadoInstance",
          "name": "_instance",
          "type": "address"
        }
      ],
      "name": "instanceFeeWithUpdate",
      "outputs": [
        {
          "internalType": "uint160",
          "name": "",
          "type": "uint160"
        }
      ],
      "stateMutability": "nonpayable",
      "type": "function"
    },
    {
      "inputs": [],
      "name": "registry",
      "outputs": [
        {
          "internalType": "contract InstanceRegistry",
          "name": "",
          "type": "address"
        }
      ],
      "stateMutability": "view",
      "type": "function"
    },
    {
      "inputs": [
        {
          "internalType": "bytes32",
          "name": "node",
          "type": "bytes32"
        }
      ],
      "name": "resolve",
      "outputs": [
        {
          "internalType": "address",
          "name": "",
          "type": "address"
        }
      ],
      "stateMutability": "view",
      "type": "function"
    },
    {
      "inputs": [
        {
          "internalType": "uint32",
          "name": "newPeriod",
          "type": "uint32"
        }
      ],
      "name": "setPeriodForTWAPOracle",
      "outputs": [],
      "stateMutability": "nonpayable",
      "type": "function"
    },
    {
      "inputs": [
        {
          "internalType": "uint24",
          "name": "_uniswapTornPoolSwappingFee",
          "type": "uint24"
        }
      ],
      "name": "setUniswapTornPoolSwappingFee",
      "outputs": [],
      "stateMutability": "nonpayable",
      "type": "function"
    },
    {
      "inputs": [
        {
          "internalType": "uint24",
          "name": "newLimit",
          "type": "uint24"
        }
      ],
      "name": "setUpdateFeeTimeLimit",
      "outputs": [],
      "stateMutability": "nonpayable",
      "type": "function"
    },
    {
      "inputs": [],
      "name": "torn",
      "outputs": [
        {
          "internalType": "address",
          "name": "",
          "type": "address"
        }
      ],
      "stateMutability": "view",
      "type": "function"
    },
    {
      "inputs": [],
      "name": "uniswapTimePeriod",
      "outputs": [
        {
          "internalType": "uint32",
          "name": "",
          "type": "uint32"
        }
      ],
      "stateMutability": "view",
      "type": "function"
    },
    {
      "inputs": [],
      "name": "uniswapTornPoolSwappingFee",
      "outputs": [
        {
          "internalType": "uint24",
          "name": "",
          "type": "uint24"
        }
      ],
      "stateMutability": "view",
      "type": "function"
    },
    {
      "inputs": [],
      "name": "updateAllFees",
      "outputs": [],
      "stateMutability": "nonpayable",
      "type": "function"
    },
    {
      "inputs": [
        {
          "internalType": "contract ITornadoInstance",
          "name": "_instance",
          "type": "address"
        }
      ],
      "name": "updateFee",
      "outputs": [],
      "stateMutability": "nonpayable",
      "type": "function"
    },
    {
      "inputs": [],
      "name": "updateFeeTimeLimit",
      "outputs": [
        {
          "internalType": "uint24",
          "name": "",
          "type": "uint24"
        }
      ],
      "stateMutability": "view",
      "type": "function"
    },
    {
      "inputs": [
        {
          "internalType": "contract ITornadoInstance[]",
          "name": "_instances",
          "type": "address[]"
        }
      ],
      "name": "updateFees",
      "outputs": [],
      "stateMutability": "nonpayable",
      "type": "function"
    }
  ],
  "bytecode": "0x60e06040523480156200001157600080fd5b506040516200240a3803806200240a83398101604081905262000034916200014a565b6001600160601b0319606084811b821660805283901b1660a052620000598162000073565b60601b6001600160601b03191660c0525062000193915050565b604051630178b8bf60e01b8152600090732adbc281675983b3041eae2f4adaff40edcde22d908190630178b8bf90620000b19086906004016200018a565b60206040518083038186803b158015620000ca57600080fd5b505afa158015620000df573d6000803e3d6000fd5b505050506040513d601f19601f8201168201806040525081019062000105919062000126565b9150505b919050565b80516001600160a01b03811681146200010957600080fd5b60006020828403121562000138578081fd5b62000143826200010e565b9392505050565b6000806000606084860312156200015f578182fd5b6200016a846200010e565b92506200017a602085016200010e565b9150604084015190509250925092565b90815260200190565b60805160601c60a05160601c60c05160601c61220d620001fd6000396000818161031e01528181610642015281816108e10152610afe0152600081816105700152818161067a0152818161075b01526108720152600081816107db01526109e8015261220d6000f3fe608060405234801561001057600080fd5b506004361061012c5760003560e01c8063a0287520116100ad578063c51c229711610071578063c51c229714610240578063d8718fb114610253578063e1f1215614610268578063f522d6d61461027b578063f9e54234146102835761012c565b8063a028752014610202578063adf898a414610215578063aeb3077a1461021d578063b19a297214610225578063bcc5ee64146102385761012c565b8063603a54fe116100f4578063603a54fe146101aa5780637b103999146101bd5780637ccd2f48146101c557806380679eb3146101da57806380eb7bf0146101ef5761012c565b806305e34364146101315780632efbf3841461015a5780634bf0a5421461017a5780635aa6e6751461018f5780635c23bdf514610197575b600080fd5b61014461013f366004611b67565b6102a3565b6040516101519190611d13565b60405180910390f35b61016d610168366004611b67565b6102b5565b6040516101519190611bf4565b610182610318565b6040516101519190611c7d565b61016d61056e565b61016d6101a5366004611b4f565b610592565b61016d6101b8366004611b67565b610625565b61016d610640565b6101cd610664565b6040516101519190611de7565b6101ed6101e8366004611bb7565b61066f565b005b6101ed6101fd366004611b67565b6106ca565b6101ed610210366004611b83565b610750565b61016d6107d9565b6101446107fd565b6101ed6102333660046118f2565b610803565b6101cd610855565b6101ed61024e366004611b83565b610867565b61025b6108c4565b6040516101519190611df7565b61016d610276366004611b67565b6108d7565b6101ed610af9565b610296610291366004611862565b610b93565b6040516101519190611c30565b60026020526000908152604090205481565b600080546001600160a01b038316825260026020526040822054600160381b90910462ffffff16906102e790426120a1565b11156102f6576102f6826106ca565b506001600160a01b03808216600090815260016020526040902054165b919050565b606060007f00000000000000000000000000000000000000000000000000000000000000006001600160a01b03166310c13ac36040518163ffffffff1660e01b815260040160006040518083038186803b15801561037557600080fd5b505afa158015610389573d6000803e3d6000fd5b505050506040513d6000823e601f3d908101601f191682016040526103b1919081019061197f565b9050805167ffffffffffffffff8111156103db57634e487b7160e01b600052604160045260246000fd5b60405190808252806020026020018201604052801561041457816020015b6104016117ba565b8152602001906001900390816103f95790505b50915060005b815181101561056957600061045583838151811061044857634e487b7160e01b600052603260045260246000fd5b60200260200101516108d7565b6001600160a01b03169050600081156104e4576103e8826001600087878151811061049057634e487b7160e01b600052603260045260246000fd5b6020908102919091018101516001600160a01b03908116835290820192909252604001600020546104c491166103e8611fce565b6001600160a01b03166104d79190611e9c565b6104e19190612013565b90505b604051806040016040528085858151811061050f57634e487b7160e01b600052603260045260246000fd5b60200260200101516001600160a01b031681526020018281525085848151811061054957634e487b7160e01b600052603260045260246000fd5b602002602001018190525050508080610561906120dc565b91505061041a565b505090565b7f000000000000000000000000000000000000000000000000000000000000000081565b604051630178b8bf60e01b8152600090732adbc281675983b3041eae2f4adaff40edcde22d908190630178b8bf906105ce908690600401611d13565b60206040518083038186803b1580156105e657600080fd5b505afa1580156105fa573d6000803e3d6000fd5b505050506040513d601f19601f8201168201806040525081019061061e9190611846565b9392505050565b6001602052600090815260409020546001600160a01b031681565b7f000000000000000000000000000000000000000000000000000000000000000081565b60005462ffffff1681565b336001600160a01b037f000000000000000000000000000000000000000000000000000000000000000016146106a457600080fd5b6000805463ffffffff90921663010000000266ffffffff00000019909216919091179055565b60006106d5826108d7565b6001600160a01b03838116600081815260016020908152604080832080546001600160a01b03191695871695909517909455600290528290204290559051919250907f6f0eaf2c2f89fb4cfe96a1dee5e764d60b52c7f48aaa590f0850e308aa1b953a90610744908490611bf4565b60405180910390a25050565b336001600160a01b037f0000000000000000000000000000000000000000000000000000000000000000161461078557600080fd5b6000805462ffffff191662ffffff83811691909117918290556040517fbfe65cfc2359076c4468c9b895156c309c78f94fb09f6d2fc0463c4ca9a71ac2926107ce921690611de7565b60405180910390a150565b7f000000000000000000000000000000000000000000000000000000000000000081565b61271081565b60005b81518110156108515761083f82828151811061083257634e487b7160e01b600052603260045260246000fd5b60200260200101516106ca565b80610849816120dc565b915050610806565b5050565b600054600160381b900462ffffff1681565b336001600160a01b037f0000000000000000000000000000000000000000000000000000000000000000161461089c57600080fd5b6000805462ffffff909216600160381b0269ffffff0000000000000019909216919091179055565b6000546301000000900463ffffffff1681565b60008060008060007f00000000000000000000000000000000000000000000000000000000000000006001600160a01b031663032bb443876040518263ffffffff1660e01b815260040161092b9190611bf4565b60a06040518083038186803b15801561094357600080fd5b505afa158015610957573d6000803e3d6000fd5b505050506040513d601f19601f8201168201806040525081019061097b9190611ad4565b9450945050935093508063ffffffff16600014156109a0576000945050505050610313565b6001600160a01b0383161580156109b5575083155b6109bf57826109d5565b73c02aaa39b223fe8d0a0e5c4f27ead9083c756cc25b6040805180820182526001600160a01b037f000000000000000000000000000000000000000000000000000000000000000081168252831660208083019190915282518084019093526000805462ffffff8082168652881692850192909252939650610a4f929063ffffffff630100000090910416610c75565b9050610aee612710610ae88463ffffffff16610ae285610ae8670de0b6b3a76400008e6001600160a01b0316638bca6d166040518163ffffffff1660e01b815260040160206040518083038186803b158015610aaa57600080fd5b505afa158015610abe573d6000803e3d6000fd5b505050506040513d601f19601f82011682018060405250810190610ae29190611b9f565b90610cc1565b90610d18565b979650505050505050565b610b917f00000000000000000000000000000000000000000000000000000000000000006001600160a01b03166310c13ac36040518163ffffffff1660e01b815260040160006040518083038186803b158015610b5557600080fd5b505afa158015610b69573d6000803e3d6000fd5b505050506040513d6000823e601f3d908101601f19168201604052610233919081019061197f565b565b6060815167ffffffffffffffff811115610bbd57634e487b7160e01b600052604160045260246000fd5b604051908082528060200260200182016040528015610be6578160200160208202803683370190505b50905060005b8251811015610c6f57610c25838281518110610c1857634e487b7160e01b600052603260045260246000fd5b6020026020010151610592565b828281518110610c4557634e487b7160e01b600052603260045260246000fd5b6001600160a01b039092166020928302919091019091015280610c67816120dc565b915050610bec565b50919050565b60208084015190830151600091610c8c9184610d5a565b84518451610caf91670de0b6b3a764000091610ca9919087610d5a565b90610d7c565b610cb99190611e9c565b949350505050565b600082610cd057506000610d12565b6000610cdc8385611ff4565b905082610ce98583611e9c565b14610d0f5760405162461bcd60e51b8152600401610d0690611da6565b60405180910390fd5b90505b92915050565b6000610d0f83836040518060400160405280601a81526020017f536166654d6174683a206469766973696f6e206279207a65726f000000000000815250610da9565b6000610cb98473c02aaa39b223fe8d0a0e5c4f27ead9083c756cc28585610de0565b6000821580610da057508183610d928282611ff4565b9250610d9e9083611e9c565b145b610d1257600080fd5b60008183610dca5760405162461bcd60e51b8152600401610d069190611d1c565b506000610dd78486611e9c565b95945050505050565b600080846001600160a01b031663313ce5676040518163ffffffff1660e01b815260040160206040518083038186803b158015610e1c57600080fd5b505afa158015610e30573d6000803e3d6000fd5b505050506040513d601f19601f82011682018060405250810190610e549190611bd3565b610e629060ff16600a611ef6565b9050846001600160a01b0316866001600160a01b03161415610e8e576001600160801b03169050610cb9565b604051630b4c774160e11b8152610f2f90610f2790731f98431c8ad98523631ae4a59f267346ea31f98490631698ee8290610ed1908b908b908b90600401611c08565b60206040518083038186803b158015610ee957600080fd5b505afa158015610efd573d6000803e3d6000fd5b505050506040513d601f19601f82011682018060405250810190610f219190611846565b85610f40565b828888611137565b915050610cb9565b50949350505050565b600063ffffffff8216610f655760405162461bcd60e51b8152600401610d0690611d6f565b6040805160028082526060820183526000926020830190803683370190505090508281600081518110610fa857634e487b7160e01b600052603260045260246000fd5b602002602001019063ffffffff16908163ffffffff1681525050600081600181518110610fe557634e487b7160e01b600052603260045260246000fd5b63ffffffff9092166020928302919091019091015260405163883bdbfd60e01b81526000906001600160a01b0386169063883bdbfd90611029908590600401611cd5565b60006040518083038186803b15801561104157600080fd5b505afa158015611055573d6000803e3d6000fd5b505050506040513d6000823e601f3d908101601f1916820160405261107d9190810190611a0c565b5090506000816000815181106110a357634e487b7160e01b600052603260045260246000fd5b6020026020010151826001815181106110cc57634e487b7160e01b600052603260045260246000fd5b60200260200101516110de9190612052565b90506110f463ffffffff8616600683900b611e6e565b935060008160060b12801561111b575061111863ffffffff8616600683900b6120f7565b15155b1561112e578361112a816120b8565b9450505b50505092915050565b60008061114386611238565b90506001600160801b036001600160a01b038216116111c95760006111716001600160a01b03831680611ff4565b9050836001600160a01b0316856001600160a01b0316106111a9576111a4600160c01b876001600160801b031683611639565b6111c1565b6111c181876001600160801b0316600160c01b611639565b925050610f37565b60006111e86001600160a01b0383168068010000000000000000611639565b9050836001600160a01b0316856001600160a01b0316106112205761121b600160801b876001600160801b031683611639565b610aee565b610aee81876001600160801b0316600160801b611639565b60008060008360020b1261124f578260020b61125c565b8260020b61125c90612140565b905061126b620d89e71961211f565b60020b81111561128d5760405162461bcd60e51b8152600401610d0690611d8b565b6000600182166112a157600160801b6112b3565b6ffffcb933bd6fad37aa2d162d1a5940015b70ffffffffffffffffffffffffffffffffff16905060028216156112f25760806112ed826ffff97272373d413259a46990580e213a611ff4565b901c90505b600482161561131c576080611317826ffff2e50f5f656932ef12357cf3c7fdcc611ff4565b901c90505b6008821615611346576080611341826fffe5caca7e10e4e61c3624eaa0941cd0611ff4565b901c90505b601082161561137057608061136b826fffcb9843d60f6159c9db58835c926644611ff4565b901c90505b602082161561139a576080611395826fff973b41fa98c081472e6896dfb254c0611ff4565b901c90505b60408216156113c45760806113bf826fff2ea16466c96a3843ec78b326b52861611ff4565b901c90505b60808216156113ee5760806113e9826ffe5dee046a99a2a811c461f1969c3053611ff4565b901c90505b610100821615611419576080611414826ffcbe86c7900a88aedcffc83b479aa3a4611ff4565b901c90505b61020082161561144457608061143f826ff987a7253ac413176f2b074cf7815e54611ff4565b901c90505b61040082161561146f57608061146a826ff3392b0822b70005940c7a398e4b70f3611ff4565b901c90505b61080082161561149a576080611495826fe7159475a2c29b7443b29c7fa6e889d9611ff4565b901c90505b6110008216156114c55760806114c0826fd097f3bdfd2022b8845ad8f792aa5825611ff4565b901c90505b6120008216156114f05760806114eb826fa9f746462d870fdf8a65dc1f90e061e5611ff4565b901c90505b61400082161561151b576080611516826f70d869a156d2a1b890bb3df62baf32f7611ff4565b901c90505b618000821615611546576080611541826f31be135f97d08fd981231505542fcfa6611ff4565b901c90505b6201000082161561157257608061156d826f09aa508b5b7a84e1c677de54f3e99bc9611ff4565b901c90505b6202000082161561159d576080611598826e5d6af8dedb81196699c329225ee604611ff4565b901c90505b620400008216156115c75760806115c2826d2216e584f5fa1ea926041bedfe98611ff4565b901c90505b620800008216156115ef5760806115ea826b048a170391f7dc42444e8fa2611ff4565b901c90505b60008460020b131561160a5761160781600019611e9c565b90505b6116196401000000008261210b565b15611625576001611628565b60005b610cb99060ff16602083901c611e56565b600080806000198587098686029250828110908390030390508061166f576000841161166457600080fd5b50829004905061061e565b80841161167b57600080fd5b60008486880980840393811190920391905060008561169c816000196120a1565b6116a7906001611e56565b169586900495938490049360008190030460010190506116c78184611ff4565b9093179260006116d8876003611ff4565b60021890506116e78188611ff4565b6116f29060026120a1565b6116fc9082611ff4565b90506117088188611ff4565b6117139060026120a1565b61171d9082611ff4565b90506117298188611ff4565b6117349060026120a1565b61173e9082611ff4565b905061174a8188611ff4565b6117559060026120a1565b61175f9082611ff4565b905061176b8188611ff4565b6117769060026120a1565b6117809082611ff4565b905061178c8188611ff4565b6117979060026120a1565b6117a19082611ff4565b90506117ad8186611ff4565b9998505050505050505050565b604080518082019091526000808252602082015290565b600082601f8301126117e1578081fd5b815160206117f66117f183611e32565b611e08565b8281528181019085830183850287018401881015611812578586fd5b855b858110156118395781516118278161219c565b84529284019290840190600101611814565b5090979650505050505050565b600060208284031215611857578081fd5b8151610d0f8161219c565b60006020808385031215611874578182fd5b823567ffffffffffffffff81111561188a578283fd5b8301601f8101851361189a578283fd5b80356118a86117f182611e32565b81815283810190838501858402850186018910156118c4578687fd5b8694505b838510156118e65780358352600194909401939185019185016118c8565b50979650505050505050565b60006020808385031215611904578182fd5b823567ffffffffffffffff81111561191a578283fd5b8301601f8101851361192a578283fd5b80356119386117f182611e32565b8181528381019083850185840285018601891015611954578687fd5b8694505b838510156118e657803561196b8161219c565b835260019490940193918501918501611958565b60006020808385031215611991578182fd5b825167ffffffffffffffff8111156119a7578283fd5b8301601f810185136119b7578283fd5b80516119c56117f182611e32565b81815283810190838501858402850186018910156119e1578687fd5b8694505b838510156118e65780516119f88161219c565b8352600194909401939185019185016119e5565b60008060408385031215611a1e578081fd5b825167ffffffffffffffff80821115611a35578283fd5b818501915085601f830112611a48578283fd5b81516020611a586117f183611e32565b82815281810190858301838502870184018b1015611a74578788fd5b8796505b84871015611aa45780518060060b8114611a90578889fd5b835260019690960195918301918301611a78565b5091880151919650909350505080821115611abd578283fd5b50611aca858286016117d1565b9150509250929050565b600080600080600060a08688031215611aeb578081fd5b85518015158114611afa578182fd5b6020870151909550611b0b8161219c565b604087015190945060028110611b1f578182fd5b6060870151909350611b30816121b4565b6080870151909250611b41816121c5565b809150509295509295909350565b600060208284031215611b60578081fd5b5035919050565b600060208284031215611b78578081fd5b8135610d0f8161219c565b600060208284031215611b94578081fd5b8135610d0f816121b4565b600060208284031215611bb0578081fd5b5051919050565b600060208284031215611bc8578081fd5b8135610d0f816121c5565b600060208284031215611be4578081fd5b815160ff81168114610d0f578182fd5b6001600160a01b0391909116815260200190565b6001600160a01b03938416815291909216602082015262ffffff909116604082015260600190565b6020808252825182820181905260009190848201906040850190845b81811015611c715783516001600160a01b031683529284019291840191600101611c4c565b50909695505050505050565b602080825282518282018190526000919060409081850190868401855b82811015611cc857815180516001600160a01b03168552860151868501529284019290850190600101611c9a565b5091979650505050505050565b6020808252825182820181905260009190848201906040850190845b81811015611c7157835163ffffffff1683529284019291840191600101611cf1565b90815260200190565b6000602080835283518082850152825b81811015611d4857858101830151858201604001528201611d2c565b81811115611d595783604083870101525b50601f01601f1916929092016040019392505050565b602080825260029082015261042560f41b604082015260600190565b6020808252600190820152601560fa1b604082015260600190565b60208082526021908201527f536166654d6174683a206d756c7469706c69636174696f6e206f766572666c6f6040820152607760f81b606082015260800190565b62ffffff91909116815260200190565b63ffffffff91909116815260200190565b60405181810167ffffffffffffffff81118282101715611e2a57611e2a612186565b604052919050565b600067ffffffffffffffff821115611e4c57611e4c612186565b5060209081020190565b60008219821115611e6957611e6961215a565b500190565b600082611e7d57611e7d612170565b600160ff1b821460001984141615611e9757611e9761215a565b500590565b600082611eab57611eab612170565b500490565b80825b6001808611611ec25750611eed565b818704821115611ed457611ed461215a565b80861615611ee157918102915b9490941c938002611eb3565b94509492505050565b60006001600160801b03610cb981828616838616600082611f195750600161061e565b81611f265750600061061e565b8160018114611f3c5760028114611f4657611f73565b600191505061061e565b60ff841115611f5757611f5761215a565b6001841b915084821115611f6d57611f6d61215a565b5061061e565b5060208310610133831016604e8410600b8410161715611fa6575081810a83811115611fa157611fa161215a565b61061e565b611fb38484846001611eb0565b808604821115611fc557611fc561215a565b02949350505050565b60006001600160a01b0382811684821681151582840482111615611fc557611fc561215a565b600081600019048311821515161561200e5761200e61215a565b500290565b60008083128015600160ff1b8501841216156120315761203161215a565b6001600160ff1b038401831381161561204c5761204c61215a565b50500390565b60008160060b8360060b82811281667fffffffffffff190183128115161561207c5761207c61215a565b81667fffffffffffff0183138116156120975761209761215a565b5090039392505050565b6000828210156120b3576120b361215a565b500390565b60008160020b627fffff198114156120d2576120d261215a565b6000190192915050565b60006000198214156120f0576120f061215a565b5060010190565b60008261210657612106612170565b500790565b60008261211a5761211a612170565b500690565b60008160020b627fffff198114156121395761213961215a565b9003919050565b6000600160ff1b8214156121565761215661215a565b0390565b634e487b7160e01b600052601160045260246000fd5b634e487b7160e01b600052601260045260246000fd5b634e487b7160e01b600052604160045260246000fd5b6001600160a01b03811681146121b157600080fd5b50565b62ffffff811681146121b157600080fd5b63ffffffff811681146121b157600080fdfea2646970667358221220be54f1a427a174b0a6a475fcebbc3a3d47f0234952801d4b7be4212877631be264736f6c63430008000033",
  "linkReferences": {},
  "deployedLinkReferences": {}
}