{
  "_format": "hh-sol-artifact-1",
  "contractName": "InstanceRegistry",
  "sourceName": "contracts/TornadoRouter.sol",
  "abi": [
    {
      "inputs": [
        {
          "internalType": "address",
          "name": "_governance",
          "type": "address"
        }
      ],
      "stateMutability": "nonpayable",
      "type": "constructor"
    },
    {
      "anonymous": false,
      "inputs": [
        {
          "indexed": true,
          "internalType": "contract ITornadoInstance",
          "name": "instance",
          "type": "address"
        },
        {
          "indexed": false,
          "internalType": "enum InstanceRegistry.InstanceState",
          "name": "state",
          "type": "uint8"
        }
      ],
      "name": "InstanceStateUpdated",
      "type": "event"
    },
    {
      "anonymous": false,
      "inputs": [
        {
          "indexed": false,
          "internalType": "address",
          "name": "tornadoRouter",
          "type": "address"
        }
      ],
      "name": "RouterRegistered",
      "type": "event"
    },
    {
      "inputs": [
        {
          "internalType": "bytes32[]",
          "name": "domains",
          "type": "bytes32[]"
        }
      ],
      "name": "bulkResolve",
      "outputs": [
        {
          "internalType": "address[]",
          "name": "result",
          "type": "address[]"
        }
      ],
      "stateMutability": "view",
      "type": "function"
    },
    {
      "inputs": [],
      "name": "getAllInstanceAddresses",
      "outputs": [
        {
          "internalType": "contract ITornadoInstance[]",
          "name": "result",
          "type": "address[]"
        }
      ],
      "stateMutability": "view",
      "type": "function"
    },
    {
      "inputs": [],
      "name": "getAllInstances",
      "outputs": [
        {
          "components": [
            {
              "internalType": "contract ITornadoInstance",
              "name": "addr",
              "type": "address"
            },
            {
              "components": [
                {
                  "internalType": "bool",
                  "name": "isERC20",
                  "type": "bool"
                },
                {
                  "internalType": "contract IERC20",
                  "name": "token",
                  "type": "address"
                },
                {
                  "internalType": "enum InstanceRegistry.InstanceState",
                  "name": "state",
                  "type": "uint8"
                },
                {
                  "internalType": "uint24",
                  "name": "uniswapPoolSwappingFee",
                  "type": "uint24"
                },
                {
                  "internalType": "uint32",
                  "name": "protocolFeePercentage",
                  "type": "uint32"
                }
              ],
              "internalType": "struct InstanceRegistry.Instance",
              "name": "instance",
              "type": "tuple"
            }
          ],
          "internalType": "struct InstanceRegistry.Tornado[]",
          "name": "result",
          "type": "tuple[]"
        }
      ],
      "stateMutability": "view",
      "type": "function"
    },
    {
      "inputs": [
        {
          "internalType": "contract ITornadoInstance",
          "name": "instance",
          "type": "address"
        }
      ],
      "name": "getPoolToken",
      "outputs": [
        {
          "internalType": "address",
          "name": "",
          "type": "address"
        }
      ],
      "stateMutability": "view",
      "type": "function"
    },
    {
      "inputs": [],
      "name": "governance",
      "outputs": [
        {
          "internalType": "address",
          "name": "",
          "type": "address"
        }
      ],
      "stateMutability": "view",
      "type": "function"
    },
    {
      "inputs": [
        {
          "components": [
            {
              "internalType": "contract ITornadoInstance",
              "name": "addr",
              "type": "address"
            },
            {
              "components": [
                {
                  "internalType": "bool",
                  "name": "isERC20",
                  "type": "bool"
                },
                {
                  "internalType": "contract IERC20",
                  "name": "token",
                  "type": "address"
                },
                {
                  "internalType": "enum InstanceRegistry.InstanceState",
                  "name": "state",
                  "type": "uint8"
                },
                {
                  "internalType": "uint24",
                  "name": "uniswapPoolSwappingFee",
                  "type": "uint24"
                },
                {
                  "internalType": "uint32",
                  "name": "protocolFeePercentage",
                  "type": "uint32"
                }
              ],
              "internalType": "struct InstanceRegistry.Instance",
              "name": "instance",
              "type": "tuple"
            }
          ],
          "internalType": "struct InstanceRegistry.Tornado[]",
          "name": "_instances",
          "type": "tuple[]"
        },
        {
          "internalType": "bytes32",
          "name": "_router",
          "type": "bytes32"
        }
      ],
      "name": "initialize",
      "outputs": [],
      "stateMutability": "nonpayable",
      "type": "function"
    },
    {
      "inputs": [
        {
          "internalType": "uint256",
          "name": "",
          "type": "uint256"
        }
      ],
      "name": "instanceIds",
      "outputs": [
        {
          "internalType": "contract ITornadoInstance",
          "name": "",
          "type": "address"
        }
      ],
      "stateMutability": "view",
      "type": "function"
    },
    {
      "inputs": [
        {
          "internalType": "contract ITornadoInstance",
          "name": "",
          "type": "address"
        }
      ],
      "name": "instances",
      "outputs": [
        {
          "internalType": "bool",
          "name": "isERC20",
          "type": "bool"
        },
        {
          "internalType": "contract IERC20",
          "name": "token",
          "type": "address"
        },
        {
          "internalType": "enum InstanceRegistry.InstanceState",
          "name": "state",
          "type": "uint8"
        },
        {
          "internalType": "uint24",
          "name": "uniswapPoolSwappingFee",
          "type": "uint24"
        },
        {
          "internalType": "uint32",
          "name": "protocolFeePercentage",
          "type": "uint32"
        }
      ],
      "stateMutability": "view",
      "type": "function"
    },
    {
      "inputs": [
        {
          "internalType": "uint256",
          "name": "_instanceId",
          "type": "uint256"
        }
      ],
      "name": "removeInstance",
      "outputs": [],
      "stateMutability": "nonpayable",
      "type": "function"
    },
    {
      "inputs": [
        {
          "internalType": "bytes32",
          "name": "node",
          "type": "bytes32"
        }
      ],
      "name": "resolve",
      "outputs": [
        {
          "internalType": "address",
          "name": "",
          "type": "address"
        }
      ],
      "stateMutability": "view",
      "type": "function"
    },
    {
      "inputs": [],
      "name": "router",
      "outputs": [
        {
          "internalType": "contract TornadoRouter",
          "name": "",
          "type": "address"
        }
      ],
      "stateMutability": "view",
      "type": "function"
    },
    {
      "inputs": [
        {
          "internalType": "contract ITornadoInstance",
          "name": "instance",
          "type": "address"
        },
        {
          "internalType": "uint32",
          "name": "newFee",
          "type": "uint32"
        }
      ],
      "name": "setProtocolFee",
      "outputs": [],
      "stateMutability": "nonpayable",
      "type": "function"
    },
    {
      "inputs": [
        {
          "internalType": "address",
          "name": "routerAddress",
          "type": "address"
        }
      ],
      "name": "setTornadoRouter",
      "outputs": [],
      "stateMutability": "nonpayable",
      "type": "function"
    },
    {
      "inputs": [
        {
          "components": [
            {
              "internalType": "contract ITornadoInstance",
              "name": "addr",
              "type": "address"
            },
            {
              "components": [
                {
                  "internalType": "bool",
                  "name": "isERC20",
                  "type": "bool"
                },
                {
                  "internalType": "contract IERC20",
                  "name": "token",
                  "type": "address"
                },
                {
                  "internalType": "enum InstanceRegistry.InstanceState",
                  "name": "state",
                  "type": "uint8"
                },
                {
                  "internalType": "uint24",
                  "name": "uniswapPoolSwappingFee",
                  "type": "uint24"
                },
                {
                  "internalType": "uint32",
                  "name": "protocolFeePercentage",
                  "type": "uint32"
                }
              ],
              "internalType": "struct InstanceRegistry.Instance",
              "name": "instance",
              "type": "tuple"
            }
          ],
          "internalType": "struct InstanceRegistry.Tornado",
          "name": "_tornado",
          "type": "tuple"
        }
      ],
      "name": "updateInstance",
      "outputs": [],
      "stateMutability": "nonpayable",
      "type": "function"
    }
  ],
  "bytecode": "0x60a060405234801561001057600080fd5b5060405161189238038061189283398101604081905261002f91610044565b60601b6001600160601b031916608052610072565b600060208284031215610055578081fd5b81516001600160a01b038116811461006b578182fd5b9392505050565b60805160601c6117e66100ac60003960008181610357015281816105a501528181610667015281816107d9015261088801526117e66000f3fe608060405234801561001057600080fd5b50600436106100ea5760003560e01c8063908e3b371161008c578063cf552c8911610066578063cf552c89146101cf578063f887ea40146101e2578063f961fd65146101ea578063f9e54234146101fd576100ea565b8063908e3b371461019657806392b65a41146101a9578063b5b899b7146101bc576100ea565b806352c228e3116100c857806352c228e3146101465780635aa6e6751461015b5780635c23bdf5146101705780636c9be93714610183576100ea565b8063032bb443146100ef57806310c13ac31461011c5780634ba16d9d14610131575b600080fd5b6101026100fd366004611234565b610210565b604051610113959493929190611592565b60405180910390f35b61012461025a565b60405161011391906114a6565b61014461013f366004611234565b61034c565b005b61014e6103fa565b60405161011391906114f3565b6101636105a3565b6040516101139190611478565b61016361017e3660046113ac565b6105c7565b610144610191366004611412565b61065c565b6101636101a4366004611234565b6107ab565b6101446101b73660046113c4565b6107ce565b6101636101ca3660046113ac565b610853565b6101446101dd3660046113ac565b61087d565b610163610b73565b6101446101f8366004611308565b610b88565b61012461020b366004611273565b610cea565b60016020526000908152604090205460ff8082169161010081046001600160a01b031691600160a81b82041690600160b01b810462ffffff1690600160c81b900463ffffffff1685565b60025460609067ffffffffffffffff81111561028657634e487b7160e01b600052604160045260246000fd5b6040519080825280602002602001820160405280156102af578160200160208202803683370190505b50905060005b60025481101561034857600281815481106102e057634e487b7160e01b600052603260045260246000fd5b9060005260206000200160009054906101000a90046001600160a01b031682828151811061031e57634e487b7160e01b600052603260045260246000fd5b6001600160a01b03909216602092830291909101909101528061034081611754565b9150506102b5565b5090565b336001600160a01b037f0000000000000000000000000000000000000000000000000000000000000000161461039d5760405162461bcd60e51b8152600401610394906116c7565b60405180910390fd5b6000805462010000600160b01b031916620100006001600160a01b038416021790556040517f94df8c3a8087dce110e5fbc5acf380c83c94bbd31b2c8ed4c08e1396a696e1a8906103ef908390611478565b60405180910390a150565b60025460609067ffffffffffffffff81111561042657634e487b7160e01b600052604160045260246000fd5b60405190808252806020026020018201604052801561045f57816020015b61044c6110b8565b8152602001906001900390816104445790505b50905060005b6002548110156103485760006002828154811061049257634e487b7160e01b600052603260045260246000fd5b60009182526020808320909101546040805180820182526001600160a01b03928316808252808652600180865295839020835160a081018552815460ff8082161515835261010082049097168289015292985092969587019592949093850192600160a81b909204169081111561051957634e487b7160e01b600052602160045260246000fd5b600181111561053857634e487b7160e01b600052602160045260246000fd5b81529054600160b01b810462ffffff166020830152600160c81b900463ffffffff166040909101529052835184908490811061058457634e487b7160e01b600052603260045260246000fd5b602002602001018190525050808061059b90611754565b915050610465565b7f000000000000000000000000000000000000000000000000000000000000000081565b604051630178b8bf60e01b8152600090732adbc281675983b3041eae2f4adaff40edcde22d908190630178b8bf906106039086906004016115d8565b60206040518083038186803b15801561061b57600080fd5b505afa15801561062f573d6000803e3d6000fd5b505050506040513d601f19601f820116820180604052508101906106539190611257565b9150505b919050565b336001600160a01b037f000000000000000000000000000000000000000000000000000000000000000016146106a45760405162461bcd60e51b8152600401610394906116c7565b60006106b660808301606084016113f8565b60018111156106d557634e487b7160e01b600052602160045260246000fd5b14156106f35760405162461bcd60e51b815260040161039490611690565b6000600160006107066020850185611234565b6001600160a01b03168152602081019190915260400160002054600160a81b900460ff16600181111561074957634e487b7160e01b600052602160045260246000fd5b141561079157600261075e6020830183611234565b81546001810183556000928352602090922090910180546001600160a01b0319166001600160a01b039092169190911790555b6107a86107a336839003830183611423565b610dcc565b50565b6001600160a01b0390811660009081526001602052604090205461010090041690565b336001600160a01b037f000000000000000000000000000000000000000000000000000000000000000016146108165760405162461bcd60e51b8152600401610394906116c7565b6001600160a01b039091166000908152600160205260409020805463ffffffff909216600160c81b0263ffffffff60c81b19909216919091179055565b6002818154811061086357600080fd5b6000918252602090912001546001600160a01b0316905081565b336001600160a01b037f000000000000000000000000000000000000000000000000000000000000000016146108c55760405162461bcd60e51b8152600401610394906116c7565b6000600282815481106108e857634e487b7160e01b600052603260045260246000fd5b60009182526020808320909101546001600160a01b03908116808452600190925260409092205490925060ff811691610100909104168115610a265760008054604051636eb1769f60e11b81526001600160a01b038085169263dd62ed3e92610960926201000090920490911690889060040161148c565b60206040518083038186803b15801561097857600080fd5b505afa15801561098c573d6000803e3d6000fd5b505050506040513d601f19601f820116820180604052508101906109b0919061143e565b90508015610a245760008054604051633ef1078360e01b8152620100009091046001600160a01b031691633ef10783916109f19186918991906004016115e1565b600060405180830381600087803b158015610a0b57600080fd5b505af1158015610a1f573d6000803e3d6000fd5b505050505b505b6001600160a01b038316600090815260016020819052604090912080546001600160e81b0319169055600280549091610a5e9161173d565b81548110610a7c57634e487b7160e01b600052603260045260246000fd5b600091825260209091200154600280546001600160a01b039092169186908110610ab657634e487b7160e01b600052603260045260246000fd5b9060005260206000200160006101000a8154816001600160a01b0302191690836001600160a01b031602179055506002805480610b0357634e487b7160e01b600052603160045260246000fd5b6001900381819060005260206000200160006101000a8154906001600160a01b0302191690559055826001600160a01b03167f02826f62d88a4d9f1978eb9c06f8663f642d032908e65a915d5898f3585421c06000604051610b659190611605565b60405180910390a250505050565b6000546201000090046001600160a01b031681565b600054610100900460ff1680610ba15750610ba16110b2565b80610baf575060005460ff16155b610bcb5760405162461bcd60e51b815260040161039490611619565b600054610100900460ff16158015610bf6576000805460ff1961ff0019909116610100171660011790555b610bff826105c7565b600080546001600160a01b0392909216620100000262010000600160b01b03199092169190911781555b8351811015610cd257610c62848281518110610c5557634e487b7160e01b600052603260045260246000fd5b6020026020010151610dcc565b6002848281518110610c8457634e487b7160e01b600052603260045260246000fd5b6020908102919091018101515182546001810184556000938452919092200180546001600160a01b0319166001600160a01b0390921691909117905580610cca81611754565b915050610c29565b508015610ce5576000805461ff00191690555b505050565b6060815167ffffffffffffffff811115610d1457634e487b7160e01b600052604160045260246000fd5b604051908082528060200260200182016040528015610d3d578160200160208202803683370190505b50905060005b8251811015610dc657610d7c838281518110610d6f57634e487b7160e01b600052603260045260246000fd5b60200260200101516105c7565b828281518110610d9c57634e487b7160e01b600052603260045260246000fd5b6001600160a01b039092166020928302919091019091015280610dbe81611754565b915050610d43565b50919050565b60208181015182516001600160a01b0390811660009081526001808552604091829020845181549686015160ff1990971690151517610100600160a81b0319166101009690941695909502929092178085559083015192939291839160ff60a81b191690600160a81b908490811115610e5557634e487b7160e01b600052602160045260246000fd5b02179055506060820151815460809093015163ffffffff16600160c81b0263ffffffff60c81b1962ffffff909216600160b01b0262ffffff60b01b1990941693909317169190911790556020810151511561106257600081600001516001600160a01b031663fc0c546a6040518163ffffffff1660e01b815260040160206040518083038186803b158015610ee957600080fd5b505afa158015610efd573d6000803e3d6000fd5b505050506040513d601f19601f82011682018060405250810190610f219190611257565b90508160200151602001516001600160a01b0316816001600160a01b031614610f5c5760405162461bcd60e51b815260040161039490611667565b600080548351604051636eb1769f60e11b81526001600160a01b038086169363dd62ed3e93610f999362010000909204909216919060040161148c565b60206040518083038186803b158015610fb157600080fd5b505afa158015610fc5573d6000803e3d6000fd5b505050506040513d601f19601f82011682018060405250810190610fe9919061143e565b90508061105f576000548351604051633ef1078360e01b8152620100009092046001600160a01b031691633ef107839161102c91869190600019906004016115e1565b600060405180830381600087803b15801561104657600080fd5b505af115801561105a573d6000803e3d6000fd5b505050505b50505b80600001516001600160a01b03167f02826f62d88a4d9f1978eb9c06f8663f642d032908e65a915d5898f3585421c08260200151604001516040516110a79190611605565b60405180910390a250565b303b1590565b604051806040016040528060006001600160a01b031681526020016110db6110e0565b905290565b6040805160a0810182526000808252602082018190529091820190815260006020820181905260409091015290565b80356106578161179b565b80356002811061065757600080fd5b600081830360c081121561113b578182fd5b6040805181810167ffffffffffffffff828210818311171561115f5761115f611785565b818452829550863591506111728261179b565b81835260a0601f198601121561118757600080fd5b8351945060a08501915084821081831117156111a5576111a5611785565b508252602085013580151581146111bb57600080fd5b83526111c885830161110f565b60208401526111d96060860161111a565b828401526111e96080860161120d565b60608401526111fa60a08601611220565b6080840152602001919091525092915050565b803562ffffff8116811461065757600080fd5b803563ffffffff8116811461065757600080fd5b600060208284031215611245578081fd5b81356112508161179b565b9392505050565b600060208284031215611268578081fd5b81516112508161179b565b60006020808385031215611285578182fd5b823567ffffffffffffffff81111561129b578283fd5b8301601f810185136112ab578283fd5b80356112be6112b982611719565b6116ef565b81815283810190838501858402850186018910156112da578687fd5b8694505b838510156112fc5780358352600194909401939185019185016112de565b50979650505050505050565b6000806040838503121561131a578081fd5b823567ffffffffffffffff811115611330578182fd5b8301601f81018513611340578182fd5b803560206113506112b983611719565b8281528181019084830160c0808602870185018b101561136e578788fd5b8796505b8587101561139a576113848b83611129565b8452600196909601959284019290810190611372565b50909997909201359750505050505050565b6000602082840312156113bd578081fd5b5035919050565b600080604083850312156113d6578182fd5b82356113e18161179b565b91506113ef60208401611220565b90509250929050565b600060208284031215611409578081fd5b6112508261111a565b600060c08284031215610dc6578081fd5b600060c08284031215611434578081fd5b6112508383611129565b60006020828403121561144f578081fd5b5051919050565b6002811061147457634e487b7160e01b600052602160045260246000fd5b9052565b6001600160a01b0391909116815260200190565b6001600160a01b0392831681529116602082015260400190565b6020808252825182820181905260009190848201906040850190845b818110156114e75783516001600160a01b0316835292840192918401916001016114c2565b50909695505050505050565b602080825282518282018190526000919060409081850190868401855b8281101561158557815180516001600160a01b039081168652908701518051151588870152808801519091168686015285810151606061155281880183611456565b82015162ffffff166080878101919091529091015163ffffffff1660a08601525060c09093019290850190600101611510565b5091979650505050505050565b85151581526001600160a01b038516602082015260a081016115b76040830186611456565b62ffffff8416606083015263ffffffff831660808301529695505050505050565b90815260200190565b6001600160a01b039384168152919092166020820152604081019190915260600190565b602081016116138284611456565b92915050565b6020808252602e908201527f496e697469616c697a61626c653a20636f6e747261637420697320616c72656160408201526d191e481a5b9a5d1a585b1a5e995960921b606082015260800190565b6020808252600f908201526e24b731b7b93932b1ba103a37b5b2b760891b604082015260600190565b6020808252601f908201527f5573652072656d6f7665496e7374616e6365282920666f722072656d6f766500604082015260600190565b6020808252600e908201526d139bdd08185d5d1a1bdc9a5e995960921b604082015260600190565b60405181810167ffffffffffffffff8111828210171561171157611711611785565b604052919050565b600067ffffffffffffffff82111561173357611733611785565b5060209081020190565b60008282101561174f5761174f61176f565b500390565b60006000198214156117685761176861176f565b5060010190565b634e487b7160e01b600052601160045260246000fd5b634e487b7160e01b600052604160045260246000fd5b6001600160a01b03811681146107a857600080fdfea264697066735822122035678a92efc5eb1b2442fc2e790722aa291761248c4981cf96d5e3db958d869e64736f6c63430008000033",
  "linkReferences": {},
  "deployedLinkReferences": {}
}