{
  "_format": "hh-sol-artifact-1",
  "contractName": "RelayerRegistry",
  "sourceName": "contracts/TornadoRouter.sol",
  "abi": [
    {
      "inputs": [
        {
          "internalType": "address",
          "name": "_governance",
          "type": "address"
        },
        {
          "internalType": "address",
          "name": "_ens",
          "type": "address"
        },
        {
          "internalType": "bytes32",
          "name": "_feeManager",
          "type": "bytes32"
        }
      ],
      "stateMutability": "nonpayable",
      "type": "constructor"
    },
    {
      "anonymous": false,
      "inputs": [
        {
          "indexed": false,
          "internalType": "uint256",
          "name": "minStakeAmount",
          "type": "uint256"
        }
      ],
      "name": "MinimumStakeAmount",
      "type": "event"
    },
    {
      "anonymous": false,
      "inputs": [
        {
          "indexed": false,
          "internalType": "address",
          "name": "relayer",
          "type": "address"
        }
      ],
      "name": "RelayerBalanceNullified",
      "type": "event"
    },
    {
      "anonymous": false,
      "inputs": [
        {
          "indexed": false,
          "internalType": "bytes32",
          "name": "relayer",
          "type": "bytes32"
        },
        {
          "indexed": false,
          "internalType": "string",
          "name": "ensName",
          "type": "string"
        },
        {
          "indexed": false,
          "internalType": "address",
          "name": "relayerAddress",
          "type": "address"
        },
        {
          "indexed": false,
          "internalType": "uint256",
          "name": "stakedAmount",
          "type": "uint256"
        }
      ],
      "name": "RelayerRegistered",
      "type": "event"
    },
    {
      "anonymous": false,
      "inputs": [
        {
          "indexed": false,
          "internalType": "address",
          "name": "tornadoRouter",
          "type": "address"
        }
      ],
      "name": "RouterRegistered",
      "type": "event"
    },
    {
      "anonymous": false,
      "inputs": [
        {
          "indexed": false,
          "internalType": "address",
          "name": "relayer",
          "type": "address"
        },
        {
          "indexed": false,
          "internalType": "uint256",
          "name": "amountStakeAdded",
          "type": "uint256"
        }
      ],
      "name": "StakeAddedToRelayer",
      "type": "event"
    },
    {
      "anonymous": false,
      "inputs": [
        {
          "indexed": false,
          "internalType": "address",
          "name": "relayer",
          "type": "address"
        },
        {
          "indexed": false,
          "internalType": "uint256",
          "name": "amountBurned",
          "type": "uint256"
        }
      ],
      "name": "StakeBurned",
      "type": "event"
    },
    {
      "anonymous": false,
      "inputs": [
        {
          "indexed": false,
          "internalType": "address",
          "name": "relayer",
          "type": "address"
        },
        {
          "indexed": false,
          "internalType": "address",
          "name": "worker",
          "type": "address"
        }
      ],
      "name": "WorkerRegistered",
      "type": "event"
    },
    {
      "anonymous": false,
      "inputs": [
        {
          "indexed": false,
          "internalType": "address",
          "name": "relayer",
          "type": "address"
        },
        {
          "indexed": false,
          "internalType": "address",
          "name": "worker",
          "type": "address"
        }
      ],
      "name": "WorkerUnregistered",
      "type": "event"
    },
    {
      "inputs": [
        {
          "internalType": "bytes32[]",
          "name": "domains",
          "type": "bytes32[]"
        }
      ],
      "name": "bulkResolve",
      "outputs": [
        {
          "internalType": "address[]",
          "name": "result",
          "type": "address[]"
        }
      ],
      "stateMutability": "view",
      "type": "function"
    },
    {
      "inputs": [
        {
          "internalType": "address",
          "name": "sender",
          "type": "address"
        },
        {
          "internalType": "address",
          "name": "relayer",
          "type": "address"
        },
        {
          "internalType": "contract ITornadoInstance",
          "name": "pool",
          "type": "address"
        }
      ],
      "name": "burn",
      "outputs": [],
      "stateMutability": "nonpayable",
      "type": "function"
    },
    {
      "inputs": [],
      "name": "ens",
      "outputs": [
        {
          "internalType": "contract IENS",
          "name": "",
          "type": "address"
        }
      ],
      "stateMutability": "view",
      "type": "function"
    },
    {
      "inputs": [],
      "name": "feeManager",
      "outputs": [
        {
          "internalType": "contract FeeManager",
          "name": "",
          "type": "address"
        }
      ],
      "stateMutability": "view",
      "type": "function"
    },
    {
      "inputs": [
        {
          "internalType": "address",
          "name": "relayer",
          "type": "address"
        }
      ],
      "name": "getRelayerBalance",
      "outputs": [
        {
          "internalType": "uint256",
          "name": "",
          "type": "uint256"
        }
      ],
      "stateMutability": "view",
      "type": "function"
    },
    {
      "inputs": [
        {
          "internalType": "address",
          "name": "relayer",
          "type": "address"
        }
      ],
      "name": "getRelayerEnsHash",
      "outputs": [
        {
          "internalType": "bytes32",
          "name": "",
          "type": "bytes32"
        }
      ],
      "stateMutability": "view",
      "type": "function"
    },
    {
      "inputs": [],
      "name": "governance",
      "outputs": [
        {
          "internalType": "address",
          "name": "",
          "type": "address"
        }
      ],
      "stateMutability": "view",
      "type": "function"
    },
    {
      "inputs": [
        {
          "internalType": "bytes32",
          "name": "_tornadoRouter",
          "type": "bytes32"
        }
      ],
      "name": "initialize",
      "outputs": [],
      "stateMutability": "nonpayable",
      "type": "function"
    },
    {
      "inputs": [
        {
          "internalType": "address",
          "name": "toResolve",
          "type": "address"
        }
      ],
      "name": "isRelayer",
      "outputs": [
        {
          "internalType": "bool",
          "name": "",
          "type": "bool"
        }
      ],
      "stateMutability": "view",
      "type": "function"
    },
    {
      "inputs": [
        {
          "internalType": "address",
          "name": "relayer",
          "type": "address"
        },
        {
          "internalType": "address",
          "name": "toResolve",
          "type": "address"
        }
      ],
      "name": "isRelayerRegistered",
      "outputs": [
        {
          "internalType": "bool",
          "name": "",
          "type": "bool"
        }
      ],
      "stateMutability": "view",
      "type": "function"
    },
    {
      "inputs": [],
      "name": "minStakeAmount",
      "outputs": [
        {
          "internalType": "uint256",
          "name": "",
          "type": "uint256"
        }
      ],
      "stateMutability": "view",
      "type": "function"
    },
    {
      "inputs": [
        {
          "internalType": "address",
          "name": "relayer",
          "type": "address"
        }
      ],
      "name": "nullifyBalance",
      "outputs": [],
      "stateMutability": "nonpayable",
      "type": "function"
    },
    {
      "inputs": [
        {
          "internalType": "string",
          "name": "ensName",
          "type": "string"
        },
        {
          "internalType": "uint256",
          "name": "stake",
          "type": "uint256"
        },
        {
          "internalType": "address[]",
          "name": "workersToRegister",
          "type": "address[]"
        }
      ],
      "name": "register",
      "outputs": [],
      "stateMutability": "nonpayable",
      "type": "function"
    },
    {
      "inputs": [
        {
          "internalType": "address",
          "name": "relayer",
          "type": "address"
        },
        {
          "internalType": "address",
          "name": "worker",
          "type": "address"
        }
      ],
      "name": "registerWorker",
      "outputs": [],
      "stateMutability": "nonpayable",
      "type": "function"
    },
    {
      "inputs": [
        {
          "internalType": "address",
          "name": "",
          "type": "address"
        }
      ],
      "name": "relayers",
      "outputs": [
        {
          "internalType": "uint256",
          "name": "balance",
          "type": "uint256"
        },
        {
          "internalType": "bytes32",
          "name": "ensHash",
          "type": "bytes32"
        }
      ],
      "stateMutability": "view",
      "type": "function"
    },
    {
      "inputs": [
        {
          "internalType": "bytes32",
          "name": "node",
          "type": "bytes32"
        }
      ],
      "name": "resolve",
      "outputs": [
        {
          "internalType": "address",
          "name": "",
          "type": "address"
        }
      ],
      "stateMutability": "view",
      "type": "function"
    },
    {
      "inputs": [
        {
          "internalType": "uint256",
          "name": "minAmount",
          "type": "uint256"
        }
      ],
      "name": "setMinStakeAmount",
      "outputs": [],
      "stateMutability": "nonpayable",
      "type": "function"
    },
    {
      "inputs": [
        {
          "internalType": "address",
          "name": "tornadoRouterAddress",
          "type": "address"
        }
      ],
      "name": "setTornadoRouter",
      "outputs": [],
      "stateMutability": "nonpayable",
      "type": "function"
    },
    {
      "inputs": [
        {
          "internalType": "address",
          "name": "relayer",
          "type": "address"
        },
        {
          "internalType": "uint256",
          "name": "stake",
          "type": "uint256"
        }
      ],
      "name": "stakeToRelayer",
      "outputs": [],
      "stateMutability": "nonpayable",
      "type": "function"
    },
    {
      "inputs": [],
      "name": "tornadoRouter",
      "outputs": [
        {
          "internalType": "address",
          "name": "",
          "type": "address"
        }
      ],
      "stateMutability": "view",
      "type": "function"
    },
    {
      "inputs": [
        {
          "internalType": "address",
          "name": "worker",
          "type": "address"
        }
      ],
      "name": "unregisterWorker",
      "outputs": [],
      "stateMutability": "nonpayable",
      "type": "function"
    },
    {
      "inputs": [
        {
          "internalType": "address",
          "name": "",
          "type": "address"
        }
      ],
      "name": "workers",
      "outputs": [
        {
          "internalType": "address",
          "name": "",
          "type": "address"
        }
      ],
      "stateMutability": "view",
      "type": "function"
    }
  ],
  "bytecode": "0x60e06040523480156200001157600080fd5b5060405162001aa838038062001aa883398101604081905262000034916200014a565b6001600160601b0319606084811b821660805283901b1660a052620000598162000073565b60601b6001600160601b03191660c0525062000193915050565b604051630178b8bf60e01b8152600090732adbc281675983b3041eae2f4adaff40edcde22d908190630178b8bf90620000b19086906004016200018a565b60206040518083038186803b158015620000ca57600080fd5b505afa158015620000df573d6000803e3d6000fd5b505050506040513d601f19601f8201168201806040525081019062000105919062000126565b9150505b919050565b80516001600160a01b03811681146200010957600080fd5b60006020828403121562000138578081fd5b62000143826200010e565b9392505050565b6000806000606084860312156200015f578182fd5b6200016a846200010e565b92506200017a602085016200010e565b9150604084015190509250925092565b90815260200190565b60805160601c60a05160601c60c05160601c6118b9620001ef6000396000818161056c0152610a330152600081816104560152610dcf0152600081816106840152818161073e015281816108490152610a8001526118b96000f3fe608060405234801561001057600080fd5b50600436106101425760003560e01c80635c23bdf5116100b8578063d0fb02031161007c578063d0fb020314610296578063d990231d1461029e578063e43fdb3c146102b1578063eb4af045146102c4578063f1887684146102d7578063f9e54234146102df57610142565b80635c23bdf51461022a5780639498bd711461023d578063ae53941c14610250578063b69fd4ab14610270578063b971a6bf1461028357610142565b80634ba16d9d1161010a5780634ba16d9d146101b35780634cb16c2e146101c65780634d4efd04146101ce5780635300f841146101e1578063541d5548146102025780635aa6e6751461022257610142565b80632e650649146101475780633523dc851461015c5780633f15457f1461016f5780634048a2571461018d57806345a11cec146101a0575b600080fd5b61015a6101553660046111ad565b6102ff565b005b61015a61016a366004611175565b610354565b610177610454565b6040516101849190611405565b60405180910390f35b61017761019b366004611175565b610478565b61015a6101ae3660046111e5565b610493565b61015a6101c1366004611175565b610679565b61017761071e565b61015a6101dc366004611175565b610733565b6101f46101ef366004611175565b61080e565b6040516101849291906113f7565b610215610210366004611175565b610827565b6040516101849190611499565b610177610847565b610177610238366004611314565b61086b565b61015a61024b366004611314565b6108fe565b61026361025e366004611175565b6109b1565b60405161018491906114a4565b61021561027e3660046111ad565b6109df565b610263610291366004611175565b610a06565b610177610a31565b61015a6102ac36600461122f565b610a55565b61015a6102bf36600461132c565b610a60565b61015a6102d2366004611314565b610a75565b610263610af2565b6102f26102ed36600461125a565b610af8565b604051610184919061144c565b3360008181526003602052604090205483906001600160a01b038083169116146103445760405162461bcd60e51b815260040161033b9061172d565b60405180910390fd5b61034e8484610bda565b50505050565b6001600160a01b038116331461039d576001600160a01b0381811660009081526003602052604090205416331461039d5760405162461bcd60e51b815260040161033b90611753565b6001600160a01b0380821660008181526003602052604090205490911614156103d85760405162461bcd60e51b815260040161033b906116a3565b6001600160a01b03808216600090815260036020526040908190205490517fb2a8e18b9e887f502d65c1683e60b723fa582a6903ea4e8eb23907a19c1ce8a0926104259216908490611419565b60405180910390a16001600160a01b0316600090815260036020526040902080546001600160a01b0319169055565b7f000000000000000000000000000000000000000000000000000000000000000081565b6003602052600090815260409020546001600160a01b031681565b6000546201000090046001600160a01b031633146104c35760405162461bcd60e51b815260040161033b9061157c565b6001600160a01b038084166000908152600360205260409020541680610521576001600160a01b03838116600090815260036020526040902054161561051b5760405162461bcd60e51b815260040161033b90611700565b50610674565b826001600160a01b0316816001600160a01b0316146105525760405162461bcd60e51b815260040161033b9061172d565b604051630bbefce160e21b81526000906001600160a01b037f00000000000000000000000000000000000000000000000000000000000000001690632efbf384906105a1908690600401611405565b602060405180830381600087803b1580156105bb57600080fd5b505af11580156105cf573d6000803e3d6000fd5b505050506040513d601f19601f820116820180604052508101906105f39190611191565b6001600160a01b038581166000908152600260205260409020549116915061061b9082610c73565b6001600160a01b0385166000908152600260205260409081902091909155517f659f33fc6677bebf3a9bf3101092792e31f35766d0358e54577bdd91a655f6a0906106699086908490611433565b60405180910390a150505b505050565b336001600160a01b037f000000000000000000000000000000000000000000000000000000000000000016146106c15760405162461bcd60e51b815260040161033b906115fc565b6000805462010000600160b01b031916620100006001600160a01b038416021790556040517f94df8c3a8087dce110e5fbc5acf380c83c94bbd31b2c8ed4c08e1396a696e1a890610713908390611405565b60405180910390a150565b6000546201000090046001600160a01b031681565b336001600160a01b037f0000000000000000000000000000000000000000000000000000000000000000161461077b5760405162461bcd60e51b815260040161033b906115fc565b6001600160a01b038082166000818152600360205260409020549091169081146107b75760405162461bcd60e51b815260040161033b906117cd565b6001600160a01b03811660009081526002602052604080822091909155517fafa759fb3c68e89eaaba359f0930ab40c24875b73cc9e2f6a38b0180019eb8f390610802908490611405565b60405180910390a15050565b6002602052600090815260409020805460019091015482565b6001600160a01b0390811660009081526003602052604090205416151590565b7f000000000000000000000000000000000000000000000000000000000000000081565b604051630178b8bf60e01b8152600090732adbc281675983b3041eae2f4adaff40edcde22d908190630178b8bf906108a79086906004016114a4565b60206040518083038186803b1580156108bf57600080fd5b505afa1580156108d3573d6000803e3d6000fd5b505050506040513d601f19601f820116820180604052508101906108f79190611191565b9392505050565b600054610100900460ff16806109175750610917610cb5565b80610925575060005460ff16155b6109415760405162461bcd60e51b815260040161033b90611655565b600054610100900460ff1615801561096c576000805460ff1961ff0019909116610100171660011790555b6109758261086b565b600060026101000a8154816001600160a01b0302191690836001600160a01b0316021790555080156109ad576000805461ff00191690555b5050565b6001600160a01b03908116600090815260036020908152604080832054909316825260029052206001015490565b6001600160a01b038181166000908152600360205260409020548116908316145b92915050565b6001600160a01b03908116600090815260036020908152604080832054909316825260029052205490565b7f000000000000000000000000000000000000000000000000000000000000000081565b6109ad338383610cbb565b610a6e338686868686610d74565b5050505050565b336001600160a01b037f00000000000000000000000000000000000000000000000000000000000000001614610abd5760405162461bcd60e51b815260040161033b906115fc565b60018190556040517f404663163d528ec45288abc4389b81bd96fabf858ff57577ebd4ee7f15d7b0a6906107139083906114a4565b60015481565b6060815167ffffffffffffffff811115610b2257634e487b7160e01b600052604160045260246000fd5b604051908082528060200260200182016040528015610b4b578160200160208202803683370190505b50905060005b8251811015610bd457610b8a838281518110610b7d57634e487b7160e01b600052603260045260246000fd5b602002602001015161086b565b828281518110610baa57634e487b7160e01b600052603260045260246000fd5b6001600160a01b039092166020928302919091019091015280610bcc81611824565b915050610b51565b50919050565b6001600160a01b038181166000908152600360205260409020541615610c125760405162461bcd60e51b815260040161033b90611625565b6001600160a01b038181166000908152600360205260409081902080546001600160a01b03191692851692909217909155517fcde75bd02c5f739608c891bcd9aa6809e6c4a7035ac7b9f3fd5fea756db74724906108029084908490611419565b60006108f783836040518060400160405280601e81526020017f536166654d6174683a207375627472616374696f6e206f766572666c6f770000815250610ff5565b303b1590565b6001600160a01b0380831660008181526003602052604090205490911614610cf55760405162461bcd60e51b815260040161033b906115d7565b6001600160a01b038216600090815260026020526040902054610d1990829061102f565b6001600160a01b0383166000908152600260205260409081902091909155517f1275dbe2a271b2b822e60f1d44894fa5fb337e7e2dc6a200205b1a5b17c07d6490610d679084908490611433565b60405180910390a1505050565b6000610db586868080601f01602080910402602001604051908101604052809392919081815260200183838082843760009201919091525061105e92505050565b6040516302571be360e01b81529091506001600160a01b037f000000000000000000000000000000000000000000000000000000000000000016906302571be390610e049084906004016114a4565b60206040518083038186803b158015610e1c57600080fd5b505afa158015610e30573d6000803e3d6000fd5b505050506040513d601f19601f82011682018060405250810190610e549190611191565b6001600160a01b0316876001600160a01b031614610e845760405162461bcd60e51b815260040161033b906117a5565b6001600160a01b038781166000908152600360205260409020541615610ebc5760405162461bcd60e51b815260040161033b906116d3565b6001600160a01b0387166000908152600260205260409020600181015415610ef65760405162461bcd60e51b815260040161033b90611550565b600154851015610f185760405162461bcd60e51b815260040161033b90611781565b848155600181018290556001600160a01b038816600081815260036020526040812080546001600160a01b0319169092179091555b83811015610fab576000858583818110610f7757634e487b7160e01b600052603260045260246000fd5b9050602002016020810190610f8c9190611175565b9050610f988a82610bda565b5080610fa381611824565b915050610f4d565b507f9ca7c9c762eff27b021608f232b4c4b8f9b8bf9a3d322297e47cc4209a67d5e28288888b89604051610fe39594939291906114ad565b60405180910390a15050505050505050565b600081848411156110195760405162461bcd60e51b815260040161033b91906114fd565b506000611026848661180d565b95945050505050565b60008061103c83856117f5565b9050838110156108f75760405162461bcd60e51b815260040161033b906115a0565b6000610a008260005b60008183511161107957506000610a00565b600061108584846110e0565b90506110a58461109583866117f5565b6110a09060016117f5565b611067565b6110b0858584611151565b6040516020016110c19291906113f7565b6040516020818303038152906040528051906020012091505092915050565b6000805b83516110f082856117f5565b1415801561113a57508361110482856117f5565b8151811061112257634e487b7160e01b600052603260045260246000fd5b6020910101516001600160f81b031916601760f91b14155b156108f7578061114981611824565b9150506110e4565b825160009061116083856117f5565b111561116b57600080fd5b5091016020012090565b600060208284031215611186578081fd5b81356108f78161186b565b6000602082840312156111a2578081fd5b81516108f78161186b565b600080604083850312156111bf578081fd5b82356111ca8161186b565b915060208301356111da8161186b565b809150509250929050565b6000806000606084860312156111f9578081fd5b83356112048161186b565b925060208401356112148161186b565b915060408401356112248161186b565b809150509250925092565b60008060408385031215611241578182fd5b823561124c8161186b565b946020939093013593505050565b6000602080838503121561126c578182fd5b823567ffffffffffffffff80821115611283578384fd5b818501915085601f830112611296578384fd5b8135818111156112a8576112a8611855565b838102604051858282010181811085821117156112c7576112c7611855565b604052828152858101935084860182860187018a10156112e5578788fd5b8795505b838610156113075780358552600195909501949386019386016112e9565b5098975050505050505050565b600060208284031215611325578081fd5b5035919050565b600080600080600060608688031215611343578081fd5b853567ffffffffffffffff8082111561135a578283fd5b818801915088601f83011261136d578283fd5b81358181111561137b578384fd5b60208a8183860101111561138d578485fd5b8084019850819750808a0135965060408a01359350828411156113ae578485fd5b838a0193508a601f8501126113c1578485fd5b83359150828211156113d1578485fd5b8a8182840286010111156113e3578485fd5b979a96995094975050909401935090919050565b918252602082015260400190565b6001600160a01b0391909116815260200190565b6001600160a01b0392831681529116602082015260400190565b6001600160a01b03929092168252602082015260400190565b6020808252825182820181905260009190848201906040850190845b8181101561148d5783516001600160a01b031683529284019291840191600101611468565b50909695505050505050565b901515815260200190565b90815260200190565b600086825260806020830152846080830152848660a084013760a08583018101919091526001600160a01b039390931660408201526060810191909152601f909201601f19169091010192915050565b6000602080835283518082850152825b818110156115295785810183015185820160400152820161150d565b8181111561153a5783604083870101525b50601f01601f1916929092016040019392505050565b6020808252601290820152717265676973746572656420616c726561647960701b604082015260600190565b6020808252600a90820152696f6e6c792070726f787960b01b604082015260600190565b6020808252601b908201527f536166654d6174683a206164646974696f6e206f766572666c6f770000000000604082015260600190565b6020808252600b908201526a085c9959da5cdd195c995960aa1b604082015260600190565b6020808252600f908201526e6f6e6c7920676f7665726e616e636560881b604082015260600190565b60208082526016908201527563616e277420737465616c20616e206164647265737360501b604082015260600190565b6020808252602e908201527f496e697469616c697a61626c653a20636f6e747261637420697320616c72656160408201526d191e481a5b9a5d1a585b1a5e995960921b606082015260800190565b60208082526016908201527531b0b73a103ab73932b3b4b9ba32b91036b0b9ba32b960511b604082015260600190565b60208082526013908201527231b0b73a103932b3b4b9ba32b91030b3b0b4b760691b604082015260600190565b60208082526013908201527227b7363c9031bab9ba37b6903932b630bcb2b960691b604082015260600190565b6020808252600c908201526b37b7363c903932b630bcb2b960a11b604082015260600190565b60208082526014908201527337b7363c9037bbb732b91037b3103bb7b935b2b960611b604082015260600190565b6020808252600a9082015269216d696e5f7374616b6560b01b604082015260600190565b6020808252600e908201526d37b7363c9032b7399037bbb732b960911b604082015260600190565b6020808252600e908201526d36bab9ba1031329036b0b9ba32b960911b604082015260600190565b600082198211156118085761180861183f565b500190565b60008282101561181f5761181f61183f565b500390565b60006000198214156118385761183861183f565b5060010190565b634e487b7160e01b600052601160045260246000fd5b634e487b7160e01b600052604160045260246000fd5b6001600160a01b038116811461188057600080fd5b5056fea264697066735822122086a4f444aee3780387a3da9b4dead77cd02c686b79d2439f912e1f3b3a1c17ed64736f6c63430008000033",
  "linkReferences": {},
  "deployedLinkReferences": {}
}