{
  "_format": "hh-sol-artifact-1",
  "contractName": "TORN",
  "sourceName": "contracts/TornadoRouter.sol",
  "abi": [
    {
      "inputs": [
        {
          "internalType": "bytes32",
          "name": "_governance",
          "type": "bytes32"
        },
        {
          "internalType": "uint256",
          "name": "_pausePeriod",
          "type": "uint256"
        },
        {
          "components": [
            {
              "internalType": "bytes32",
              "name": "to",
              "type": "bytes32"
            },
            {
              "internalType": "uint256",
              "name": "amount",
              "type": "uint256"
            }
          ],
          "internalType": "struct TORN.Recipient[]",
          "name": "_vestings",
          "type": "tuple[]"
        }
      ],
      "stateMutability": "nonpayable",
      "type": "constructor"
    },
    {
      "anonymous": false,
      "inputs": [
        {
          "indexed": false,
          "internalType": "address",
          "name": "target",
          "type": "address"
        }
      ],
      "name": "Allowed",
      "type": "event"
    },
    {
      "anonymous": false,
      "inputs": [
        {
          "indexed": true,
          "internalType": "address",
          "name": "owner",
          "type": "address"
        },
        {
          "indexed": true,
          "internalType": "address",
          "name": "spender",
          "type": "address"
        },
        {
          "indexed": false,
          "internalType": "uint256",
          "name": "value",
          "type": "uint256"
        }
      ],
      "name": "Approval",
      "type": "event"
    },
    {
      "anonymous": false,
      "inputs": [
        {
          "indexed": false,
          "internalType": "address",
          "name": "target",
          "type": "address"
        }
      ],
      "name": "Disallowed",
      "type": "event"
    },
    {
      "anonymous": false,
      "inputs": [
        {
          "indexed": false,
          "internalType": "address",
          "name": "account",
          "type": "address"
        }
      ],
      "name": "Paused",
      "type": "event"
    },
    {
      "anonymous": false,
      "inputs": [
        {
          "indexed": true,
          "internalType": "address",
          "name": "from",
          "type": "address"
        },
        {
          "indexed": true,
          "internalType": "address",
          "name": "to",
          "type": "address"
        },
        {
          "indexed": false,
          "internalType": "uint256",
          "name": "value",
          "type": "uint256"
        }
      ],
      "name": "Transfer",
      "type": "event"
    },
    {
      "anonymous": false,
      "inputs": [
        {
          "indexed": false,
          "internalType": "address",
          "name": "account",
          "type": "address"
        }
      ],
      "name": "Unpaused",
      "type": "event"
    },
    {
      "inputs": [
        {
          "internalType": "address[]",
          "name": "target",
          "type": "address[]"
        }
      ],
      "name": "addToAllowedList",
      "outputs": [],
      "stateMutability": "nonpayable",
      "type": "function"
    },
    {
      "inputs": [
        {
          "internalType": "address",
          "name": "owner",
          "type": "address"
        },
        {
          "internalType": "address",
          "name": "spender",
          "type": "address"
        }
      ],
      "name": "allowance",
      "outputs": [
        {
          "internalType": "uint256",
          "name": "",
          "type": "uint256"
        }
      ],
      "stateMutability": "view",
      "type": "function"
    },
    {
      "inputs": [
        {
          "internalType": "address",
          "name": "",
          "type": "address"
        }
      ],
      "name": "allowedTransferee",
      "outputs": [
        {
          "internalType": "bool",
          "name": "",
          "type": "bool"
        }
      ],
      "stateMutability": "view",
      "type": "function"
    },
    {
      "inputs": [
        {
          "internalType": "address",
          "name": "spender",
          "type": "address"
        },
        {
          "internalType": "uint256",
          "name": "amount",
          "type": "uint256"
        }
      ],
      "name": "approve",
      "outputs": [
        {
          "internalType": "bool",
          "name": "",
          "type": "bool"
        }
      ],
      "stateMutability": "nonpayable",
      "type": "function"
    },
    {
      "inputs": [
        {
          "internalType": "address",
          "name": "account",
          "type": "address"
        }
      ],
      "name": "balanceOf",
      "outputs": [
        {
          "internalType": "uint256",
          "name": "",
          "type": "uint256"
        }
      ],
      "stateMutability": "view",
      "type": "function"
    },
    {
      "inputs": [],
      "name": "blockTimestamp",
      "outputs": [
        {
          "internalType": "uint256",
          "name": "",
          "type": "uint256"
        }
      ],
      "stateMutability": "view",
      "type": "function"
    },
    {
      "inputs": [
        {
          "internalType": "bytes32[]",
          "name": "domains",
          "type": "bytes32[]"
        }
      ],
      "name": "bulkResolve",
      "outputs": [
        {
          "internalType": "address[]",
          "name": "result",
          "type": "address[]"
        }
      ],
      "stateMutability": "view",
      "type": "function"
    },
    {
      "inputs": [
        {
          "internalType": "uint256",
          "name": "amount",
          "type": "uint256"
        }
      ],
      "name": "burn",
      "outputs": [],
      "stateMutability": "nonpayable",
      "type": "function"
    },
    {
      "inputs": [
        {
          "internalType": "address",
          "name": "account",
          "type": "address"
        },
        {
          "internalType": "uint256",
          "name": "amount",
          "type": "uint256"
        }
      ],
      "name": "burnFrom",
      "outputs": [],
      "stateMutability": "nonpayable",
      "type": "function"
    },
    {
      "inputs": [],
      "name": "canUnpauseAfter",
      "outputs": [
        {
          "internalType": "uint256",
          "name": "",
          "type": "uint256"
        }
      ],
      "stateMutability": "view",
      "type": "function"
    },
    {
      "inputs": [],
      "name": "chainID",
      "outputs": [
        {
          "internalType": "uint256",
          "name": "_chainID",
          "type": "uint256"
        }
      ],
      "stateMutability": "view",
      "type": "function"
    },
    {
      "inputs": [
        {
          "internalType": "bool",
          "name": "decision",
          "type": "bool"
        }
      ],
      "name": "changeTransferability",
      "outputs": [],
      "stateMutability": "nonpayable",
      "type": "function"
    },
    {
      "inputs": [],
      "name": "decimals",
      "outputs": [
        {
          "internalType": "uint8",
          "name": "",
          "type": "uint8"
        }
      ],
      "stateMutability": "view",
      "type": "function"
    },
    {
      "inputs": [
        {
          "internalType": "address",
          "name": "spender",
          "type": "address"
        },
        {
          "internalType": "uint256",
          "name": "subtractedValue",
          "type": "uint256"
        }
      ],
      "name": "decreaseAllowance",
      "outputs": [
        {
          "internalType": "bool",
          "name": "",
          "type": "bool"
        }
      ],
      "stateMutability": "nonpayable",
      "type": "function"
    },
    {
      "inputs": [],
      "name": "governance",
      "outputs": [
        {
          "internalType": "address",
          "name": "",
          "type": "address"
        }
      ],
      "stateMutability": "view",
      "type": "function"
    },
    {
      "inputs": [
        {
          "internalType": "address",
          "name": "spender",
          "type": "address"
        },
        {
          "internalType": "uint256",
          "name": "addedValue",
          "type": "uint256"
        }
      ],
      "name": "increaseAllowance",
      "outputs": [
        {
          "internalType": "bool",
          "name": "",
          "type": "bool"
        }
      ],
      "stateMutability": "nonpayable",
      "type": "function"
    },
    {
      "inputs": [],
      "name": "name",
      "outputs": [
        {
          "internalType": "string",
          "name": "",
          "type": "string"
        }
      ],
      "stateMutability": "view",
      "type": "function"
    },
    {
      "inputs": [
        {
          "internalType": "address",
          "name": "owner",
          "type": "address"
        }
      ],
      "name": "nonces",
      "outputs": [
        {
          "internalType": "uint256",
          "name": "",
          "type": "uint256"
        }
      ],
      "stateMutability": "view",
      "type": "function"
    },
    {
      "inputs": [],
      "name": "paused",
      "outputs": [
        {
          "internalType": "bool",
          "name": "",
          "type": "bool"
        }
      ],
      "stateMutability": "view",
      "type": "function"
    },
    {
      "inputs": [
        {
          "internalType": "address",
          "name": "owner",
          "type": "address"
        },
        {
          "internalType": "address",
          "name": "spender",
          "type": "address"
        },
        {
          "internalType": "uint256",
          "name": "amount",
          "type": "uint256"
        },
        {
          "internalType": "uint256",
          "name": "deadline",
          "type": "uint256"
        },
        {
          "internalType": "uint8",
          "name": "v",
          "type": "uint8"
        },
        {
          "internalType": "bytes32",
          "name": "r",
          "type": "bytes32"
        },
        {
          "internalType": "bytes32",
          "name": "s",
          "type": "bytes32"
        }
      ],
      "name": "permit",
      "outputs": [],
      "stateMutability": "nonpayable",
      "type": "function"
    },
    {
      "inputs": [
        {
          "internalType": "address[]",
          "name": "target",
          "type": "address[]"
        }
      ],
      "name": "removeFromAllowedList",
      "outputs": [],
      "stateMutability": "nonpayable",
      "type": "function"
    },
    {
      "inputs": [
        {
          "internalType": "contract IERC20",
          "name": "_token",
          "type": "address"
        },
        {
          "internalType": "address payable",
          "name": "_to",
          "type": "address"
        },
        {
          "internalType": "uint256",
          "name": "_balance",
          "type": "uint256"
        }
      ],
      "name": "rescueTokens",
      "outputs": [],
      "stateMutability": "nonpayable",
      "type": "function"
    },
    {
      "inputs": [
        {
          "internalType": "bytes32",
          "name": "node",
          "type": "bytes32"
        }
      ],
      "name": "resolve",
      "outputs": [
        {
          "internalType": "address",
          "name": "",
          "type": "address"
        }
      ],
      "stateMutability": "view",
      "type": "function"
    },
    {
      "inputs": [],
      "name": "symbol",
      "outputs": [
        {
          "internalType": "string",
          "name": "",
          "type": "string"
        }
      ],
      "stateMutability": "view",
      "type": "function"
    },
    {
      "inputs": [],
      "name": "totalSupply",
      "outputs": [
        {
          "internalType": "uint256",
          "name": "",
          "type": "uint256"
        }
      ],
      "stateMutability": "view",
      "type": "function"
    },
    {
      "inputs": [
        {
          "internalType": "address",
          "name": "recipient",
          "type": "address"
        },
        {
          "internalType": "uint256",
          "name": "amount",
          "type": "uint256"
        }
      ],
      "name": "transfer",
      "outputs": [
        {
          "internalType": "bool",
          "name": "",
          "type": "bool"
        }
      ],
      "stateMutability": "nonpayable",
      "type": "function"
    },
    {
      "inputs": [
        {
          "internalType": "address",
          "name": "sender",
          "type": "address"
        },
        {
          "internalType": "address",
          "name": "recipient",
          "type": "address"
        },
        {
          "internalType": "uint256",
          "name": "amount",
          "type": "uint256"
        }
      ],
      "name": "transferFrom",
      "outputs": [
        {
          "internalType": "bool",
          "name": "",
          "type": "bool"
        }
      ],
      "stateMutability": "nonpayable",
      "type": "function"
    }
  ],
  "bytecode": "0x60c06040523480156200001157600080fd5b5060405162002f2938038062002f29833981016040819052620000349162000783565b604080518082018252600b81526a0a8dee4dcc2c8de86c2e6d60ab1b6020808301918252835180850190945260048452632a27a92760e11b9084015281519192916200008391600391620006b4565b50805162000099906004906020840190620006b4565b50506005805460ff1916601217905550620000b362000258565b506008805460ff191690556000620000cb8462000314565b6001600160601b0319606082901b1660a0526001600160a01b0381166000908152600960205260408120805460ff191660011790559091505b8251811015620001c45760006200014d8483815181106200013557634e487b7160e01b600052603260045260246000fd5b6020026020010151600001516200031460201b60201c565b90506200018d818584815181106200017557634e487b7160e01b600052603260045260246000fd5b602002602001015160200151620003ad60201b60201c565b6001600160a01b03166000908152600960205260409020805460ff1916600117905580620001bb8162000bd3565b91505062000104565b50620001e883620001d462000490565b6200049460201b62000eb21790919060201c565b608052620001f5620004c8565b620001ff6200053f565b6200020c90600a62000a89565b6200021b906298968062000b74565b6200022562000548565b146200024e5760405162461bcd60e51b8152600401620002459062000987565b60405180910390fd5b5050505062000c1d565b600080620002656200054e565b905060007f8b73c3c69bb8fe3d512ecc4cf759cc79239f7b179b0ffacaa9a75d522b39400f6200029462000552565b805160209182012060408051808201825260018152603160f81b9084015251620002e693927fc89efdaa54c0f20c7adf612882df0950f5a951637e0307cdcb4c672f298b8bc69187913091016200089d565b60408051601f1981840301815291815281516020928301206000948552600790925290922082905550905090565b604051630178b8bf60e01b8152600090732adbc281675983b3041eae2f4adaff40edcde22d908190630178b8bf906200035290869060040162000894565b60206040518083038186803b1580156200036b57600080fd5b505afa15801562000380573d6000803e3d6000fd5b505050506040513d601f19601f82011682018060405250810190620003a691906200075a565b9392505050565b6001600160a01b038216620003d65760405162461bcd60e51b81526004016200024590620009be565b620003e460008383620005ec565b62000400816002546200049460201b62000eb21790919060201c565b6002556001600160a01b038216600090815260208181526040909120546200043391839062000eb262000494821b17901c565b6001600160a01b0383166000818152602081905260408082209390935591519091907fddf252ad1be2c89b69c2b068fc378daa952ba7f163c4a11628f55a4df523b3ef906200048490859062000894565b60405180910390a35050565b4290565b600080620004a3838562000a21565b905083811015620003a65760405162461bcd60e51b81526004016200024590620008c9565b60085460ff1615620004ee5760405162461bcd60e51b815260040162000245906200095d565b6008805460ff191660011790557f62e78cea01bee320cd4e420270b5ea74000d11b0c9f74754ebdbfc544b05a25862000526620006a7565b60405162000535919062000880565b60405180910390a1565b60055460ff1690565b60025490565b4690565b606060038054620005639062000b96565b80601f0160208091040260200160405190810160405280929190818152602001828054620005919062000b96565b8015620005e25780601f10620005b657610100808354040283529160200191620005e2565b820191906000526020600020905b815481529060010190602001808311620005c457829003601f168201915b5050505050905090565b62000604838383620006a260201b620007d31760201c565b6200060e620006ab565b15806200063357506001600160a01b03831660009081526009602052604090205460ff165b806200065757506001600160a01b03821660009081526009602052604090205460ff165b620006765760405162461bcd60e51b8152600401620002459062000937565b6001600160a01b038216301415620006a25760405162461bcd60e51b8152600401620002459062000900565b505050565b3390565b60085460ff1690565b828054620006c29062000b96565b90600052602060002090601f016020900481019282620006e6576000855562000731565b82601f106200070157805160ff191683800117855562000731565b8280016001018555821562000731579182015b828111156200073157825182559160200191906001019062000714565b506200073f92915062000743565b5090565b5b808211156200073f576000815560010162000744565b6000602082840312156200076c578081fd5b81516001600160a01b0381168114620003a6578182fd5b60008060006060848603121562000798578182fd5b83519250602080850151925060408086015160018060401b0380821115620007be578485fd5b818801915088601f830112620007d2578485fd5b815181811115620007e757620007e762000c07565b620007f68586830201620009f5565b81815285810190848701868402860188018d101562000813578889fd5b8895505b838610156200086e5786818e0312156200082f578889fd5b865187810181811087821117156200084b576200084b62000c07565b885281518152888201518982015283526001959095019491870191860162000817565b50809750505050505050509250925092565b6001600160a01b0391909116815260200190565b90815260200190565b9485526020850193909352604084019190915260608301526001600160a01b0316608082015260a00190565b6020808252601b908201527f536166654d6174683a206164646974696f6e206f766572666c6f770000000000604082015260600190565b60208082526017908201527f544f524e3a20696e76616c696420726563697069656e74000000000000000000604082015260600190565b6020808252600c908201526b1513d4938e881c185d5cd95960a21b604082015260600190565b60208082526010908201526f14185d5cd8589b194e881c185d5cd95960821b604082015260600190565b6020808252601c908201527f544f524e3a20696e636f727265637420646973747269627574696f6e00000000604082015260600190565b6020808252601f908201527f45524332303a206d696e7420746f20746865207a65726f206164647265737300604082015260600190565b6040518181016001600160401b038111828210171562000a195762000a1962000c07565b604052919050565b6000821982111562000a375762000a3762000bf1565b500190565b80825b600180861162000a50575062000a80565b81870482111562000a655762000a6562000bf1565b8086161562000a7357918102915b9490941c93800262000a3f565b94509492505050565b6000620003a660001960ff85168460008262000aa857506001620003a6565b8162000ab757506000620003a6565b816001811462000ad0576002811462000adb5762000b0f565b6001915050620003a6565b60ff84111562000aef5762000aef62000bf1565b6001841b91508482111562000b085762000b0862000bf1565b50620003a6565b5060208310610133831016604e8410600b841016171562000b47575081810a8381111562000b415762000b4162000bf1565b620003a6565b62000b56848484600162000a3c565b80860482111562000b6b5762000b6b62000bf1565b02949350505050565b600081600019048311821515161562000b915762000b9162000bf1565b500290565b60028104600182168062000bab57607f821691505b6020821081141562000bcd57634e487b7160e01b600052602260045260246000fd5b50919050565b600060001982141562000bea5762000bea62000bf1565b5060010190565b634e487b7160e01b600052601160045260246000fd5b634e487b7160e01b600052604160045260246000fd5b60805160a05160601c6122c062000c696000396000818161053b01528181610695015281816107f5015281816108ae0152610a7a01526000818161084d0152610d8301526122c06000f3fe608060405234801561001057600080fd5b50600436106101a95760003560e01c806379cc6790116100f9578063adb6183211610097578063d505accf11610071578063d505accf14610357578063dc0f0d121461036a578063dd62ed3e14610372578063f9e5423414610385576101a9565b8063adb6183214610334578063adc879e91461033c578063cea9d26f14610344576101a9565b8063885ad0cf116100d3578063885ad0cf146102f357806395d89b4114610306578063a457c2d71461030e578063a9059cbb14610321576101a9565b806379cc6790146102ba5780637ecebe00146102cd57806381893c7c146102e0576101a9565b80633c8d76d1116101665780635c23bdf5116101405780635c23bdf5146102795780635c975abb1461028c5780635d4545a01461029457806370a08231146102a7576101a9565b80633c8d76d11461023c57806342966c68146102515780635aa6e67514610264576101a9565b806306fdde03146101ae578063095ea7b3146101cc57806318160ddd146101ec57806323b872dd14610201578063313ce567146102145780633950935114610229575b600080fd5b6101b66103a5565b6040516101c39190611b52565b60405180910390f35b6101df6101da366004611850565b610438565b6040516101c39190611ac0565b6101f4610455565b6040516101c39190611acb565b6101df61020f36600461179b565b61045b565b61021c6104e2565b6040516101c39190612077565b6101df610237366004611850565b6104eb565b61024f61024a36600461187b565b610539565b005b61024f61025f3660046119d5565b61067f565b61026c610693565b6040516101c39190611a46565b61026c6102873660046119d5565b6106b7565b6101df61074a565b6101df6102a236600461172b565b610753565b6101f46102b536600461172b565b610768565b61024f6102c8366004611850565b610783565b6101f46102db36600461172b565b6107d8565b61024f6102ee36600461199d565b6107f3565b61024f61030136600461187b565b6108ac565b6101b66109e5565b6101df61031c366004611850565b6109f4565b6101df61032f366004611850565b610a5c565b6101f4610a70565b6101f4610a74565b61024f61035236600461179b565b610a78565b61024f6103653660046117db565b610c36565b6101f4610d81565b6101f4610380366004611763565b610da5565b610398610393366004611919565b610dd0565b6040516101c39190611a73565b6060600380546103b490612132565b80601f01602080910402602001604051908101604052809291908181526020018280546103e090612132565b801561042d5780601f106104025761010080835404028352916020019161042d565b820191906000526020600020905b81548152906001019060200180831161041057829003601f168201915b505050505090505b90565b600061044c610445610ee1565b8484610ee5565b50600192915050565b60025490565b6000610468848484610f99565b6104d884610474610ee1565b6104d38560405180606001604052806028815260200161221a602891396001600160a01b038a166000908152600160205260408120906104b2610ee1565b6001600160a01b0316815260208101919091526040016000205491906110ae565b610ee5565b5060019392505050565b60055460ff1690565b600061044c6104f8610ee1565b846104d38560016000610509610ee1565b6001600160a01b03908116825260208083019390935260409182016000908120918c168152925290205490610eb2565b7f00000000000000000000000000000000000000000000000000000000000000006001600160a01b031661056b610ee1565b6001600160a01b03161461059a5760405162461bcd60e51b815260040161059190611ff3565b60405180910390fd5b60005b815181101561067b576000600960008484815181106105cc57634e487b7160e01b600052603260045260246000fd5b60200260200101516001600160a01b03166001600160a01b0316815260200190815260200160002060006101000a81548160ff0219169083151502179055507f9ef90a89b00db1a1891a357dc96b2a273add9d883e378c350d22bad87a9d7d3082828151811061064c57634e487b7160e01b600052603260045260246000fd5b60200260200101516040516106619190611a46565b60405180910390a18061067381612167565b91505061059d565b5050565b61069061068a610ee1565b826110e8565b50565b7f000000000000000000000000000000000000000000000000000000000000000081565b604051630178b8bf60e01b8152600090732adbc281675983b3041eae2f4adaff40edcde22d908190630178b8bf906106f3908690600401611acb565b60206040518083038186803b15801561070b57600080fd5b505afa15801561071f573d6000803e3d6000fd5b505050506040513d601f19601f820116820180604052508101906107439190611747565b9392505050565b60085460ff1690565b60096020526000908152604090205460ff1681565b6001600160a01b031660009081526020819052604090205490565b60006107b582604051806060016040528060248152602001612242602491396107ae86610380610ee1565b91906110ae565b90506107c9836107c3610ee1565b83610ee5565b6107d383836110e8565b505050565b6001600160a01b031660009081526006602052604090205490565b7f00000000000000000000000000000000000000000000000000000000000000006001600160a01b0316610825610ee1565b6001600160a01b03161461084b5760405162461bcd60e51b815260040161059190611ff3565b7f0000000000000000000000000000000000000000000000000000000000000000610874610a70565b116108915760405162461bcd60e51b815260040161059190611de8565b80156108a45761089f6111ca565b610690565b610690611236565b7f00000000000000000000000000000000000000000000000000000000000000006001600160a01b03166108de610ee1565b6001600160a01b0316146109045760405162461bcd60e51b815260040161059190611ff3565b60005b815181101561067b5760016009600084848151811061093657634e487b7160e01b600052603260045260246000fd5b60200260200101516001600160a01b03166001600160a01b0316815260200190815260200160002060006101000a81548160ff0219169083151502179055507f77a7dbc6ad97703ad411a8d5edfcd1df382fb34b076a90898b11884f7ebdcc058282815181106109b657634e487b7160e01b600052603260045260246000fd5b60200260200101516040516109cb9190611a46565b60405180910390a1806109dd81612167565b915050610907565b6060600480546103b490612132565b600061044c610a01610ee1565b846104d3856040518060600160405280602581526020016122666025913960016000610a2b610ee1565b6001600160a01b03908116825260208083019390935260409182016000908120918d168152925290205491906110ae565b600061044c610a69610ee1565b8484610f99565b4290565b4690565b7f00000000000000000000000000000000000000000000000000000000000000006001600160a01b0316610aaa610ee1565b6001600160a01b031614610ad05760405162461bcd60e51b815260040161059190611ff3565b6001600160a01b038216610af65760405162461bcd60e51b815260040161059190611f67565b6001600160a01b038316610b5f574760008215610b1c57610b17828461128f565b610b1e565b815b6040519091506001600160a01b0385169082156108fc029083906000818181858888f19350505050158015610b57573d6000803e3d6000fd5b5050506107d3565b6040516370a0823160e01b81526000906001600160a01b038516906370a0823190610b8e903090600401611a46565b60206040518083038186803b158015610ba657600080fd5b505afa158015610bba573d6000803e3d6000fd5b505050506040513d601f19601f82011682018060405250810190610bde91906119ed565b905060008215610bf757610bf2828461128f565b610bf9565b815b905060008111610c1b5760405162461bcd60e51b815260040161059190612040565b610c2f6001600160a01b03861685836112a5565b5050505050565b83610c3f610a70565b1115610c5d5760405162461bcd60e51b815260040161059190611cdd565b6001600160a01b0387166000908152600660209081526040808320549051610cb0927f6e71edae12b1b97f4d1f60370fef10105fa2faae0126114a169c64845d6126c9928c928c928c92918c9101611ad4565b6040516020818303038152906040528051906020012090506000611901610cd56112fb565b83604051602001610ce893929190611a21565b6040516020818303038152906040528051906020012090506000610d0e8287878761133a565b9050896001600160a01b0316816001600160a01b031614610d415760405162461bcd60e51b815260040161059190611e2f565b6001600160a01b038a166000908152600660205260408120805491610d6583612167565b9190505550610d758a8a8a610ee5565b50505050505050505050565b7f000000000000000000000000000000000000000000000000000000000000000081565b6001600160a01b03918216600090815260016020908152604080832093909416825291909152205490565b6060815167ffffffffffffffff811115610dfa57634e487b7160e01b600052604160045260246000fd5b604051908082528060200260200182016040528015610e23578160200160208202803683370190505b50905060005b8251811015610eac57610e62838281518110610e5557634e487b7160e01b600052603260045260246000fd5b60200260200101516106b7565b828281518110610e8257634e487b7160e01b600052603260045260246000fd5b6001600160a01b039092166020928302919091019091015280610ea481612167565b915050610e29565b50919050565b600080610ebf83856120d3565b9050838110156107435760405162461bcd60e51b815260040161059190611c6f565b3390565b6001600160a01b038316610f0b5760405162461bcd60e51b815260040161059190611eec565b6001600160a01b038216610f315760405162461bcd60e51b815260040161059190611c2d565b6001600160a01b0380841660008181526001602090815260408083209487168084529490915290819020849055517f8c5be1e5ebec7d5bd14f71427d1e84f3dd0314c0f7b2291e5b200ac8c7c3b92590610f8c908590611acb565b60405180910390a3505050565b6001600160a01b038316610fbf5760405162461bcd60e51b815260040161059190611ea7565b6001600160a01b038216610fe55760405162461bcd60e51b815260040161059190611bbc565b610ff0838383611432565b61102d816040518060600160405280602681526020016121f4602691396001600160a01b03861660009081526020819052604090205491906110ae565b6001600160a01b03808516600090815260208190526040808220939093559084168152205461105c9082610eb2565b6001600160a01b0380841660008181526020819052604090819020939093559151908516907fddf252ad1be2c89b69c2b068fc378daa952ba7f163c4a11628f55a4df523b3ef90610f8c908590611acb565b600081848411156110d25760405162461bcd60e51b81526004016105919190611b52565b5060006110df84866120eb565b95945050505050565b6001600160a01b03821661110e5760405162461bcd60e51b815260040161059190611e66565b61111a82600083611432565b611157816040518060600160405280602281526020016121d2602291396001600160a01b03851660009081526020819052604090205491906110ae565b6001600160a01b03831660009081526020819052604090205560025461117d90826114d1565b6002556040516000906001600160a01b038416907fddf252ad1be2c89b69c2b068fc378daa952ba7f163c4a11628f55a4df523b3ef906111be908590611acb565b60405180910390a35050565b60085460ff166111ec5760405162461bcd60e51b815260040161059190611bff565b6008805460ff191690557f5db9ee0a495bf2e6ff9c91a7834c1ba4fdd244a5e8aa4e537bd38aeae4b073aa61121f610ee1565b60405161122c9190611a46565b60405180910390a1565b60085460ff16156112595760405162461bcd60e51b815260040161059190611d7c565b6008805460ff191660011790557f62e78cea01bee320cd4e420270b5ea74000d11b0c9f74754ebdbfc544b05a25861121f610ee1565b600081831061129e5781610743565b5090919050565b6107d38363a9059cbb60e01b84846040516024016112c4929190611a5a565b60408051601f198184030181529190526020810180516001600160e01b03166001600160e01b031990931692909217909152611513565b6000806007600061130a610a74565b81526020810191909152604001600020549050801561132a579050610435565b6113326115a2565b915050610435565b60007f7fffffffffffffffffffffffffffffff5d576e7357a4501ddfe92f46681b20a082111561137c5760405162461bcd60e51b815260040161059190611d3a565b8360ff16601b148061139157508360ff16601c145b6113ad5760405162461bcd60e51b815260040161059190611da6565b6000600186868686604051600081526020016040526040516113d29493929190611b34565b6020604051602081039080840390855afa1580156113f4573d6000803e3d6000fd5b5050604051601f1901519150506001600160a01b0381166114275760405162461bcd60e51b815260040161059190611b85565b90505b949350505050565b61143d8383836107d3565b61144561074a565b158061146957506001600160a01b03831660009081526009602052604090205460ff165b8061148c57506001600160a01b03821660009081526009602052604090205460ff165b6114a85760405162461bcd60e51b815260040161059190611d14565b6001600160a01b0382163014156107d35760405162461bcd60e51b815260040161059190611ca6565b600061074383836040518060400160405280601e81526020017f536166654d6174683a207375627472616374696f6e206f766572666c6f7700008152506110ae565b6000611568826040518060400160405280602081526020017f5361666545524332303a206c6f772d6c6576656c2063616c6c206661696c6564815250856001600160a01b03166116589092919063ffffffff16565b8051909150156107d3578080602001905181019061158691906119b9565b6107d35760405162461bcd60e51b815260040161059190611fa9565b6000806115ad610a74565b905060007f8b73c3c69bb8fe3d512ecc4cf759cc79239f7b179b0ffacaa9a75d522b39400f6115da6103a5565b805160209182012060408051808201825260018152603160f81b908401525161162a93927fc89efdaa54c0f20c7adf612882df0950f5a951637e0307cdcb4c672f298b8bc6918791309101611b08565b60408051601f1981840301815291815281516020928301206000948552600790925290922082905550905090565b606061142a8484600085606061166d85611725565b6116895760405162461bcd60e51b815260040161059190611f30565b600080866001600160a01b031685876040516116a59190611a05565b60006040518083038185875af1925050503d80600081146116e2576040519150601f19603f3d011682016040523d82523d6000602084013e6116e7565b606091505b509150915081156116fb57915061142a9050565b80511561170b5780518082602001fd5b8360405162461bcd60e51b81526004016105919190611b52565b3b151590565b60006020828403121561173c578081fd5b8135610743816121ae565b600060208284031215611758578081fd5b8151610743816121ae565b60008060408385031215611775578081fd5b8235611780816121ae565b91506020830135611790816121ae565b809150509250929050565b6000806000606084860312156117af578081fd5b83356117ba816121ae565b925060208401356117ca816121ae565b929592945050506040919091013590565b600080600080600080600060e0888a0312156117f5578283fd5b8735611800816121ae565b96506020880135611810816121ae565b95506040880135945060608801359350608088013560ff81168114611833578384fd5b9699959850939692959460a0840135945060c09093013592915050565b60008060408385031215611862578182fd5b823561186d816121ae565b946020939093013593505050565b6000602080838503121561188d578182fd5b823567ffffffffffffffff8111156118a3578283fd5b8301601f810185136118b3578283fd5b80356118c66118c1826120af565b612085565b81815283810190838501858402850186018910156118e2578687fd5b8694505b8385101561190d5780356118f9816121ae565b8352600194909401939185019185016118e6565b50979650505050505050565b6000602080838503121561192b578182fd5b823567ffffffffffffffff811115611941578283fd5b8301601f81018513611951578283fd5b803561195f6118c1826120af565b818152838101908385018584028501860189101561197b578687fd5b8694505b8385101561190d57803583526001949094019391850191850161197f565b6000602082840312156119ae578081fd5b8135610743816121c3565b6000602082840312156119ca578081fd5b8151610743816121c3565b6000602082840312156119e6578081fd5b5035919050565b6000602082840312156119fe578081fd5b5051919050565b60008251611a17818460208701612102565b9190910192915050565b60f09390931b6001600160f01b03191683526002830191909152602282015260420190565b6001600160a01b0391909116815260200190565b6001600160a01b03929092168252602082015260400190565b6020808252825182820181905260009190848201906040850190845b81811015611ab45783516001600160a01b031683529284019291840191600101611a8f565b50909695505050505050565b901515815260200190565b90815260200190565b9586526001600160a01b0394851660208701529290931660408501526060840152608083019190915260a082015260c00190565b9485526020850193909352604084019190915260608301526001600160a01b0316608082015260a00190565b93845260ff9290921660208401526040830152606082015260800190565b6000602082528251806020840152611b71816040850160208701612102565b601f01601f19169190910160400192915050565b60208082526018908201527f45434453413a20696e76616c6964207369676e61747572650000000000000000604082015260600190565b60208082526023908201527f45524332303a207472616e7366657220746f20746865207a65726f206164647260408201526265737360e81b606082015260800190565b60208082526014908201527314185d5cd8589b194e881b9bdd081c185d5cd95960621b604082015260600190565b60208082526022908201527f45524332303a20617070726f766520746f20746865207a65726f206164647265604082015261737360f01b606082015260800190565b6020808252601b908201527f536166654d6174683a206164646974696f6e206f766572666c6f770000000000604082015260600190565b60208082526017908201527f544f524e3a20696e76616c696420726563697069656e74000000000000000000604082015260600190565b6020808252601d908201527f45524332305065726d69743a206578706972656420646561646c696e65000000604082015260600190565b6020808252600c908201526b1513d4938e881c185d5cd95960a21b604082015260600190565b60208082526022908201527f45434453413a20696e76616c6964207369676e6174757265202773272076616c604082015261756560f01b606082015260800190565b60208082526010908201526f14185d5cd8589b194e881c185d5cd95960821b604082015260600190565b60208082526022908201527f45434453413a20696e76616c6964207369676e6174757265202776272076616c604082015261756560f01b606082015260800190565b60208082526027908201527f544f524e3a2063616e6e6f74206368616e6765207472616e736665726162696c6040820152661a5d1e481e595d60ca1b606082015260800190565b6020808252601e908201527f45524332305065726d69743a20696e76616c6964207369676e61747572650000604082015260600190565b60208082526021908201527f45524332303a206275726e2066726f6d20746865207a65726f206164647265736040820152607360f81b606082015260800190565b60208082526025908201527f45524332303a207472616e736665722066726f6d20746865207a65726f206164604082015264647265737360d81b606082015260800190565b60208082526024908201527f45524332303a20617070726f76652066726f6d20746865207a65726f206164646040820152637265737360e01b606082015260800190565b6020808252601d908201527f416464726573733a2063616c6c20746f206e6f6e2d636f6e7472616374000000604082015260600190565b60208082526022908201527f544f524e3a2063616e206e6f742073656e6420746f207a65726f206164647265604082015261737360f01b606082015260800190565b6020808252602a908201527f5361666545524332303a204552433230206f7065726174696f6e20646964206e6040820152691bdd081cdd58d8d9595960b21b606082015260800190565b6020808252602d908201527f544f524e3a206f6e6c7920676f7665726e616e63652063616e20706572666f7260408201526c36903a3434b99030b1ba34b7b760991b606082015260800190565b6020808252601e908201527f544f524e3a20747279696e6720746f2073656e6420302062616c616e63650000604082015260600190565b60ff91909116815260200190565b60405181810167ffffffffffffffff811182821017156120a7576120a7612198565b604052919050565b600067ffffffffffffffff8211156120c9576120c9612198565b5060209081020190565b600082198211156120e6576120e6612182565b500190565b6000828210156120fd576120fd612182565b500390565b60005b8381101561211d578181015183820152602001612105565b8381111561212c576000848401525b50505050565b60028104600182168061214657607f821691505b60208210811415610eac57634e487b7160e01b600052602260045260246000fd5b600060001982141561217b5761217b612182565b5060010190565b634e487b7160e01b600052601160045260246000fd5b634e487b7160e01b600052604160045260246000fd5b6001600160a01b038116811461069057600080fd5b801515811461069057600080fdfe45524332303a206275726e20616d6f756e7420657863656564732062616c616e636545524332303a207472616e7366657220616d6f756e7420657863656564732062616c616e636545524332303a207472616e7366657220616d6f756e74206578636565647320616c6c6f77616e636545524332303a206275726e20616d6f756e74206578636565647320616c6c6f77616e636545524332303a2064656372656173656420616c6c6f77616e63652062656c6f77207a65726fa26469706673582212201170f99c6c2131e941774c7dd80f5810bf70908c0b5886e1c81e89e1de573f4f64736f6c63430008000033",
  "linkReferences": {},
  "deployedLinkReferences": {}
}