{
  "_format": "hh-sol-artifact-1",
  "contractName": "TornadoRouter",
  "sourceName": "contracts/TornadoRouter.sol",
  "abi": [
    {
      "inputs": [
        {
          "internalType": "address",
          "name": "_governance",
          "type": "address"
        },
        {
          "internalType": "bytes32",
          "name": "_instanceRegistry",
          "type": "bytes32"
        },
        {
          "internalType": "bytes32",
          "name": "_relayerRegistry",
          "type": "bytes32"
        }
      ],
      "stateMutability": "nonpayable",
      "type": "constructor"
    },
    {
      "anonymous": false,
      "inputs": [
        {
          "indexed": true,
          "internalType": "address",
          "name": "sender",
          "type": "address"
        },
        {
          "indexed": false,
          "internalType": "bytes",
          "name": "encryptedNote",
          "type": "bytes"
        }
      ],
      "name": "EncryptedNote",
      "type": "event"
    },
    {
      "inputs": [
        {
          "internalType": "contract IERC20",
          "name": "_token",
          "type": "address"
        },
        {
          "internalType": "address",
          "name": "_spender",
          "type": "address"
        },
        {
          "internalType": "uint256",
          "name": "_amount",
          "type": "uint256"
        }
      ],
      "name": "approveExactToken",
      "outputs": [],
      "stateMutability": "nonpayable",
      "type": "function"
    },
    {
      "inputs": [
        {
          "internalType": "bytes[]",
          "name": "_encryptedNotes",
          "type": "bytes[]"
        }
      ],
      "name": "backupNotes",
      "outputs": [],
      "stateMutability": "nonpayable",
      "type": "function"
    },
    {
      "inputs": [
        {
          "internalType": "bytes32[]",
          "name": "domains",
          "type": "bytes32[]"
        }
      ],
      "name": "bulkResolve",
      "outputs": [
        {
          "internalType": "address[]",
          "name": "result",
          "type": "address[]"
        }
      ],
      "stateMutability": "view",
      "type": "function"
    },
    {
      "inputs": [
        {
          "internalType": "contract ITornadoInstance",
          "name": "_tornado",
          "type": "address"
        },
        {
          "internalType": "bytes32",
          "name": "_commitment",
          "type": "bytes32"
        },
        {
          "internalType": "bytes",
          "name": "_encryptedNote",
          "type": "bytes"
        }
      ],
      "name": "deposit",
      "outputs": [],
      "stateMutability": "payable",
      "type": "function"
    },
    {
      "inputs": [],
      "name": "governance",
      "outputs": [
        {
          "internalType": "address",
          "name": "",
          "type": "address"
        }
      ],
      "stateMutability": "view",
      "type": "function"
    },
    {
      "inputs": [],
      "name": "instanceRegistry",
      "outputs": [
        {
          "internalType": "contract InstanceRegistry",
          "name": "",
          "type": "address"
        }
      ],
      "stateMutability": "view",
      "type": "function"
    },
    {
      "inputs": [],
      "name": "relayerRegistry",
      "outputs": [
        {
          "internalType": "contract RelayerRegistry",
          "name": "",
          "type": "address"
        }
      ],
      "stateMutability": "view",
      "type": "function"
    },
    {
      "inputs": [
        {
          "internalType": "contract IERC20",
          "name": "_token",
          "type": "address"
        },
        {
          "internalType": "address payable",
          "name": "_to",
          "type": "address"
        },
        {
          "internalType": "uint256",
          "name": "_amount",
          "type": "uint256"
        }
      ],
      "name": "rescueTokens",
      "outputs": [],
      "stateMutability": "nonpayable",
      "type": "function"
    },
    {
      "inputs": [
        {
          "internalType": "bytes32",
          "name": "node",
          "type": "bytes32"
        }
      ],
      "name": "resolve",
      "outputs": [
        {
          "internalType": "address",
          "name": "",
          "type": "address"
        }
      ],
      "stateMutability": "view",
      "type": "function"
    },
    {
      "inputs": [
        {
          "internalType": "contract ITornadoInstance",
          "name": "_tornado",
          "type": "address"
        },
        {
          "internalType": "bytes",
          "name": "_proof",
          "type": "bytes"
        },
        {
          "internalType": "bytes32",
          "name": "_root",
          "type": "bytes32"
        },
        {
          "internalType": "bytes32",
          "name": "_nullifierHash",
          "type": "bytes32"
        },
        {
          "internalType": "address payable",
          "name": "_recipient",
          "type": "address"
        },
        {
          "internalType": "address payable",
          "name": "_relayer",
          "type": "address"
        },
        {
          "internalType": "uint256",
          "name": "_fee",
          "type": "uint256"
        },
        {
          "internalType": "uint256",
          "name": "_refund",
          "type": "uint256"
        }
      ],
      "name": "withdraw",
      "outputs": [],
      "stateMutability": "payable",
      "type": "function"
    }
  ],
  "bytecode": "0x60e06040523480156200001157600080fd5b50604051620017093803806200170983398101604081905262000034916200015d565b6001600160601b0319606084901b16608052620000518262000086565b60601b6001600160601b03191660a0526200006c8162000086565b60601b6001600160601b03191660c052506200019d915050565b604051630178b8bf60e01b8152600090732adbc281675983b3041eae2f4adaff40edcde22d908190630178b8bf90620000c490869060040162000194565b60206040518083038186803b158015620000dd57600080fd5b505afa158015620000f2573d6000803e3d6000fd5b505050506040513d601f19601f8201168201806040525081019062000118919062000139565b9150505b919050565b80516001600160a01b03811681146200011c57600080fd5b6000602082840312156200014b578081fd5b620001568262000121565b9392505050565b60008060006060848603121562000172578182fd5b6200017d8462000121565b925060208401519150604084015190509250925092565b90815260200190565b60805160601c60a05160601c60c05160601c611510620001f96000396000818161047601526106dc0152600081816101c7015281816103f10152818161041e01526105f201526000818161049a01526107cc01526115106000f3fe6080604052600436106100915760003560e01c80635c23bdf5116100595780635c23bdf5146101205780636485ba2a14610140578063b438689f14610160578063cea9d26f14610173578063f9e542341461019357610091565b806313d98d131461009657806336a3874b146100ab5780633ef10783146100d657806347ff589d146100f65780635aa6e6751461010b575b600080fd5b6100a96100a4366004610f8f565b6101c0565b005b3480156100b757600080fd5b506100c06103ef565b6040516100cd91906110e8565b60405180910390f35b3480156100e257600080fd5b506100a96100f1366004610f4f565b610413565b34801561010257600080fd5b506100c0610474565b34801561011757600080fd5b506100c0610498565b34801561012c57600080fd5b506100c061013b366004610f37565b6104bc565b34801561014c57600080fd5b506100a961015b366004610e2b565b610551565b6100a961016e366004610fe9565b6105d8565b34801561017f57600080fd5b506100a961018e366004610f4f565b6107c1565b34801561019f57600080fd5b506101b36101ae366004610d71565b610955565b6040516100cd9190611176565b60008060007f00000000000000000000000000000000000000000000000000000000000000006001600160a01b031663032bb443886040518263ffffffff1660e01b815260040161021191906110e8565b60a06040518083038186803b15801561022957600080fd5b505afa15801561023d573d6000803e3d6000fd5b505050506040513d601f19601f820116820180604052508101906102619190610eb4565b5092955090935091506000905081600181111561028e57634e487b7160e01b600052602160045260246000fd5b14156102b55760405162461bcd60e51b81526004016102ac90611265565b60405180910390fd5b8215610343576103433330896001600160a01b0316638bca6d166040518163ffffffff1660e01b815260040160206040518083038186803b1580156102f957600080fd5b505afa15801561030d573d6000803e3d6000fd5b505050506040513d601f19601f82011682018060405250810190610331919061108a565b6001600160a01b038616929190610a37565b60405163b214faa560e01b81526001600160a01b0388169063b214faa5903490610371908a906004016111c3565b6000604051808303818588803b15801561038a57600080fd5b505af115801561039e573d6000803e3d6000fd5b5050505050336001600160a01b03167ffa28df43db3553771f7209dcef046f3bdfea15870ab625dcda30ac58b82b400886866040516103de9291906111cc565b60405180910390a250505050505050565b7f000000000000000000000000000000000000000000000000000000000000000081565b336001600160a01b037f0000000000000000000000000000000000000000000000000000000000000000161461045b5760405162461bcd60e51b81526004016102ac906113ec565b61046f6001600160a01b0384168383610a95565b505050565b7f000000000000000000000000000000000000000000000000000000000000000081565b7f000000000000000000000000000000000000000000000000000000000000000081565b604051630178b8bf60e01b8152600090732adbc281675983b3041eae2f4adaff40edcde22d908190630178b8bf906104f89086906004016111c3565b60206040518083038186803b15801561051057600080fd5b505afa158015610524573d6000803e3d6000fd5b505050506040513d601f19601f820116820180604052508101906105489190610d55565b9150505b919050565b60005b8181101561046f57337ffa28df43db3553771f7209dcef046f3bdfea15870ab625dcda30ac58b82b400884848481811061059e57634e487b7160e01b600052603260045260246000fd5b90506020028101906105b09190611414565b6040516105be9291906111cc565b60405180910390a2806105d081611485565b915050610554565b60405163032bb44360e01b81526000906001600160a01b037f0000000000000000000000000000000000000000000000000000000000000000169063032bb44390610627908d906004016110e8565b60a06040518083038186803b15801561063f57600080fd5b505afa158015610653573d6000803e3d6000fd5b505050506040513d601f19601f820116820180604052508101906106779190610eb4565b5090935060009250610687915050565b8160018111156106a757634e487b7160e01b600052602160045260246000fd5b14156106c55760405162461bcd60e51b81526004016102ac90611265565b604051631168473b60e21b81526001600160a01b037f000000000000000000000000000000000000000000000000000000000000000016906345a11cec9061071590339088908f90600401611116565b600060405180830381600087803b15801561072f57600080fd5b505af1158015610743573d6000803e3d6000fd5b50506040516310d056db60e11b81526001600160a01b038d1692506321a0adb691503490610783908d908d908d908d908d908d908d908d906004016111e0565b6000604051808303818588803b15801561079c57600080fd5b505af11580156107b0573d6000803e3d6000fd5b505050505050505050505050505050565b336001600160a01b037f000000000000000000000000000000000000000000000000000000000000000016146108095760405162461bcd60e51b81526004016102ac906113ec565b6001600160a01b03821661082f5760405162461bcd60e51b81526004016102ac906112d3565b6001600160a01b03831661088b5747600061084a8284610b58565b6040519091506001600160a01b0385169082156108fc029083906000818181858888f19350505050158015610883573d6000803e3d6000fd5b50505061046f565b6040516370a0823160e01b81526000906001600160a01b038516906370a08231906108ba9030906004016110e8565b60206040518083038186803b1580156108d257600080fd5b505afa1580156108e6573d6000803e3d6000fd5b505050506040513d601f19601f8201168201806040525081019061090a919061108a565b905060006109188284610b58565b90506000811161093a5760405162461bcd60e51b81526004016102ac9061135f565b61094e6001600160a01b0386168583610b70565b5050505050565b6060815167ffffffffffffffff81111561097f57634e487b7160e01b600052604160045260246000fd5b6040519080825280602002602001820160405280156109a8578160200160208202803683370190505b50905060005b8251811015610a31576109e78382815181106109da57634e487b7160e01b600052603260045260246000fd5b60200260200101516104bc565b828281518110610a0757634e487b7160e01b600052603260045260246000fd5b6001600160a01b039092166020928302919091019091015280610a2981611485565b9150506109ae565b50919050565b610a8f846323b872dd60e01b858585604051602401610a5893929190611139565b60408051601f198184030181529190526020810180516001600160e01b03166001600160e01b031990931692909217909152610b8f565b50505050565b801580610b1d5750604051636eb1769f60e11b81526001600160a01b0384169063dd62ed3e90610acb90309086906004016110fc565b60206040518083038186803b158015610ae357600080fd5b505afa158015610af7573d6000803e3d6000fd5b505050506040513d601f19601f82011682018060405250810190610b1b919061108a565b155b610b395760405162461bcd60e51b81526004016102ac90611396565b61046f8363095ea7b360e01b8484604051602401610a5892919061115d565b6000818310610b675781610b69565b825b9392505050565b61046f8363a9059cbb60e01b8484604051602401610a5892919061115d565b6000610be4826040518060400160405280602081526020017f5361666545524332303a206c6f772d6c6576656c2063616c6c206661696c6564815250856001600160a01b0316610c1e9092919063ffffffff16565b80519091501561046f5780806020019051810190610c029190610e9a565b61046f5760405162461bcd60e51b81526004016102ac90611315565b6060610c2d8484600085610c35565b949350505050565b6060610c4085610cf8565b610c5c5760405162461bcd60e51b81526004016102ac9061129c565b600080866001600160a01b03168587604051610c7891906110cc565b60006040518083038185875af1925050503d8060008114610cb5576040519150601f19603f3d011682016040523d82523d6000602084013e610cba565b606091505b50915091508115610cce579150610c2d9050565b805115610cde5780518082602001fd5b8360405162461bcd60e51b81526004016102ac9190611232565b3b151590565b8051801515811461054c57600080fd5b60008083601f840112610d1f578182fd5b50813567ffffffffffffffff811115610d36578182fd5b602083019150836020828501011115610d4e57600080fd5b9250929050565b600060208284031215610d66578081fd5b8151610b69816114c2565b60006020808385031215610d83578182fd5b823567ffffffffffffffff80821115610d9a578384fd5b818501915085601f830112610dad578384fd5b813581811115610dbf57610dbf6114ac565b83810260405185828201018181108582111715610dde57610dde6114ac565b604052828152858101935084860182860187018a1015610dfc578788fd5b8795505b83861015610e1e578035855260019590950194938601938601610e00565b5098975050505050505050565b60008060208385031215610e3d578081fd5b823567ffffffffffffffff80821115610e54578283fd5b818501915085601f830112610e67578283fd5b813581811115610e75578384fd5b8660208083028501011115610e88578384fd5b60209290920196919550909350505050565b600060208284031215610eab578081fd5b610b6982610cfe565b600080600080600060a08688031215610ecb578081fd5b610ed486610cfe565b94506020860151610ee4816114c2565b604087015190945060028110610ef8578182fd5b606087015190935062ffffff81168114610f10578182fd5b608087015190925063ffffffff81168114610f29578182fd5b809150509295509295909350565b600060208284031215610f48578081fd5b5035919050565b600080600060608486031215610f63578283fd5b8335610f6e816114c2565b92506020840135610f7e816114c2565b929592945050506040919091013590565b60008060008060608587031215610fa4578384fd5b8435610faf816114c2565b935060208501359250604085013567ffffffffffffffff811115610fd1578283fd5b610fdd87828801610d0e565b95989497509550505050565b60008060008060008060008060006101008a8c031215611007578687fd5b8935611012816114c2565b985060208a013567ffffffffffffffff81111561102d578788fd5b6110398c828d01610d0e565b90995097505060408a0135955060608a0135945060808a013561105b816114c2565b935060a08a013561106b816114c2565b8093505060c08a0135915060e08a013590509295985092959850929598565b60006020828403121561109b578081fd5b5051919050565b60008284528282602086013780602084860101526020601f19601f85011685010190509392505050565b600082516110de818460208701611459565b9190910192915050565b6001600160a01b0391909116815260200190565b6001600160a01b0392831681529116602082015260400190565b6001600160a01b0393841681529183166020830152909116604082015260600190565b6001600160a01b039384168152919092166020820152604081019190915260600190565b6001600160a01b03929092168252602082015260400190565b6020808252825182820181905260009190848201906040850190845b818110156111b75783516001600160a01b031683529284019291840191600101611192565b50909695505050505050565b90815260200190565b600060208252610c2d6020830184866110a2565b600060e082526111f460e083018a8c6110a2565b60208301989098525060408101959095526001600160a01b03938416606086015291909216608084015260a083019190915260c09091015292915050565b6000602082528251806020840152611251816040850160208701611459565b601f01601f19169190910160400192915050565b6020808252601d908201527f54686520696e7374616e6365206973206e6f7420737570706f72746564000000604082015260600190565b6020808252601d908201527f416464726573733a2063616c6c20746f206e6f6e2d636f6e7472616374000000604082015260600190565b60208082526022908201527f544f524e3a2063616e206e6f742073656e6420746f207a65726f206164647265604082015261737360f01b606082015260800190565b6020808252602a908201527f5361666545524332303a204552433230206f7065726174696f6e20646964206e6040820152691bdd081cdd58d8d9595960b21b606082015260800190565b6020808252601e908201527f544f524e3a20747279696e6720746f2073656e6420302062616c616e63650000604082015260600190565b60208082526036908201527f5361666545524332303a20617070726f76652066726f6d206e6f6e2d7a65726f60408201527520746f206e6f6e2d7a65726f20616c6c6f77616e636560501b606082015260800190565b6020808252600e908201526d139bdd08185d5d1a1bdc9a5e995960921b604082015260600190565b6000808335601e1984360301811261142a578283fd5b83018035915067ffffffffffffffff821115611444578283fd5b602001915036819003821315610d4e57600080fd5b60005b8381101561147457818101518382015260200161145c565b83811115610a8f5750506000910152565b60006000198214156114a557634e487b7160e01b81526011600452602481fd5b5060010190565b634e487b7160e01b600052604160045260246000fd5b6001600160a01b03811681146114d757600080fd5b5056fea264697066735822122034857f0ee214f76250eaea4aa23e522325a238a4a232fb37b6a8dce482d2611764736f6c63430008000033",
  "linkReferences": {},
  "deployedLinkReferences": {}
}