{
  "_format": "hh-sol-artifact-1",
  "contractName": "ERC20Token",
  "sourceName": "contracts/USDT.sol",
  "abi": [
    {
      "inputs": [
        {
          "internalType": "uint256",
          "name": "initialSupply",
          "type": "uint256"
        },
        {
          "internalType": "string",
          "name": "_name",
          "type": "string"
        },
        {
          "internalType": "string",
          "name": "_symbol",
          "type": "string"
        },
        {
          "internalType": "uint8",
          "name": "_decimals",
          "type": "uint8"
        }
      ],
      "stateMutability": "nonpayable",
      "type": "constructor"
    },
    {
      "anonymous": false,
      "inputs": [
        {
          "indexed": true,
          "internalType": "address",
          "name": "owner",
          "type": "address"
        },
        {
          "indexed": true,
          "internalType": "address",
          "name": "spender",
          "type": "address"
        },
        {
          "indexed": false,
          "internalType": "uint256",
          "name": "value",
          "type": "uint256"
        }
      ],
      "name": "Approval",
      "type": "event"
    },
    {
      "anonymous": false,
      "inputs": [
        {
          "indexed": false,
          "internalType": "address",
          "name": "account",
          "type": "address"
        }
      ],
      "name": "Paused",
      "type": "event"
    },
    {
      "anonymous": false,
      "inputs": [
        {
          "indexed": true,
          "internalType": "address",
          "name": "from",
          "type": "address"
        },
        {
          "indexed": true,
          "internalType": "address",
          "name": "to",
          "type": "address"
        },
        {
          "indexed": false,
          "internalType": "uint256",
          "name": "value",
          "type": "uint256"
        }
      ],
      "name": "Transfer",
      "type": "event"
    },
    {
      "anonymous": false,
      "inputs": [
        {
          "indexed": false,
          "internalType": "address",
          "name": "account",
          "type": "address"
        }
      ],
      "name": "Unpaused",
      "type": "event"
    },
    {
      "inputs": [
        {
          "internalType": "address",
          "name": "owner",
          "type": "address"
        },
        {
          "internalType": "address",
          "name": "spender",
          "type": "address"
        }
      ],
      "name": "allowance",
      "outputs": [
        {
          "internalType": "uint256",
          "name": "",
          "type": "uint256"
        }
      ],
      "stateMutability": "view",
      "type": "function"
    },
    {
      "inputs": [
        {
          "internalType": "address",
          "name": "spender",
          "type": "address"
        },
        {
          "internalType": "uint256",
          "name": "amount",
          "type": "uint256"
        }
      ],
      "name": "approve",
      "outputs": [
        {
          "internalType": "bool",
          "name": "",
          "type": "bool"
        }
      ],
      "stateMutability": "nonpayable",
      "type": "function"
    },
    {
      "inputs": [
        {
          "internalType": "address",
          "name": "account",
          "type": "address"
        }
      ],
      "name": "balanceOf",
      "outputs": [
        {
          "internalType": "uint256",
          "name": "",
          "type": "uint256"
        }
      ],
      "stateMutability": "view",
      "type": "function"
    },
    {
      "inputs": [],
      "name": "blockTimestamp",
      "outputs": [
        {
          "internalType": "uint256",
          "name": "",
          "type": "uint256"
        }
      ],
      "stateMutability": "view",
      "type": "function"
    },
    {
      "inputs": [
        {
          "internalType": "uint256",
          "name": "amount",
          "type": "uint256"
        }
      ],
      "name": "burn",
      "outputs": [],
      "stateMutability": "nonpayable",
      "type": "function"
    },
    {
      "inputs": [
        {
          "internalType": "address",
          "name": "account",
          "type": "address"
        },
        {
          "internalType": "uint256",
          "name": "amount",
          "type": "uint256"
        }
      ],
      "name": "burnFrom",
      "outputs": [],
      "stateMutability": "nonpayable",
      "type": "function"
    },
    {
      "inputs": [],
      "name": "chainID",
      "outputs": [
        {
          "internalType": "uint256",
          "name": "_chainID",
          "type": "uint256"
        }
      ],
      "stateMutability": "view",
      "type": "function"
    },
    {
      "inputs": [],
      "name": "decimals",
      "outputs": [
        {
          "internalType": "uint8",
          "name": "",
          "type": "uint8"
        }
      ],
      "stateMutability": "view",
      "type": "function"
    },
    {
      "inputs": [
        {
          "internalType": "address",
          "name": "spender",
          "type": "address"
        },
        {
          "internalType": "uint256",
          "name": "subtractedValue",
          "type": "uint256"
        }
      ],
      "name": "decreaseAllowance",
      "outputs": [
        {
          "internalType": "bool",
          "name": "",
          "type": "bool"
        }
      ],
      "stateMutability": "nonpayable",
      "type": "function"
    },
    {
      "inputs": [
        {
          "internalType": "address",
          "name": "spender",
          "type": "address"
        },
        {
          "internalType": "uint256",
          "name": "addedValue",
          "type": "uint256"
        }
      ],
      "name": "increaseAllowance",
      "outputs": [
        {
          "internalType": "bool",
          "name": "",
          "type": "bool"
        }
      ],
      "stateMutability": "nonpayable",
      "type": "function"
    },
    {
      "inputs": [],
      "name": "name",
      "outputs": [
        {
          "internalType": "string",
          "name": "",
          "type": "string"
        }
      ],
      "stateMutability": "view",
      "type": "function"
    },
    {
      "inputs": [
        {
          "internalType": "address",
          "name": "owner",
          "type": "address"
        }
      ],
      "name": "nonces",
      "outputs": [
        {
          "internalType": "uint256",
          "name": "",
          "type": "uint256"
        }
      ],
      "stateMutability": "view",
      "type": "function"
    },
    {
      "inputs": [],
      "name": "paused",
      "outputs": [
        {
          "internalType": "bool",
          "name": "",
          "type": "bool"
        }
      ],
      "stateMutability": "view",
      "type": "function"
    },
    {
      "inputs": [
        {
          "internalType": "address",
          "name": "owner",
          "type": "address"
        },
        {
          "internalType": "address",
          "name": "spender",
          "type": "address"
        },
        {
          "internalType": "uint256",
          "name": "amount",
          "type": "uint256"
        },
        {
          "internalType": "uint256",
          "name": "deadline",
          "type": "uint256"
        },
        {
          "internalType": "uint8",
          "name": "v",
          "type": "uint8"
        },
        {
          "internalType": "bytes32",
          "name": "r",
          "type": "bytes32"
        },
        {
          "internalType": "bytes32",
          "name": "s",
          "type": "bytes32"
        }
      ],
      "name": "permit",
      "outputs": [],
      "stateMutability": "nonpayable",
      "type": "function"
    },
    {
      "inputs": [],
      "name": "symbol",
      "outputs": [
        {
          "internalType": "string",
          "name": "",
          "type": "string"
        }
      ],
      "stateMutability": "view",
      "type": "function"
    },
    {
      "inputs": [],
      "name": "totalSupply",
      "outputs": [
        {
          "internalType": "uint256",
          "name": "",
          "type": "uint256"
        }
      ],
      "stateMutability": "view",
      "type": "function"
    },
    {
      "inputs": [
        {
          "internalType": "address",
          "name": "recipient",
          "type": "address"
        },
        {
          "internalType": "uint256",
          "name": "amount",
          "type": "uint256"
        }
      ],
      "name": "transfer",
      "outputs": [
        {
          "internalType": "bool",
          "name": "",
          "type": "bool"
        }
      ],
      "stateMutability": "nonpayable",
      "type": "function"
    },
    {
      "inputs": [
        {
          "internalType": "address",
          "name": "sender",
          "type": "address"
        },
        {
          "internalType": "address",
          "name": "recipient",
          "type": "address"
        },
        {
          "internalType": "uint256",
          "name": "amount",
          "type": "uint256"
        }
      ],
      "name": "transferFrom",
      "outputs": [
        {
          "internalType": "bool",
          "name": "",
          "type": "bool"
        }
      ],
      "stateMutability": "nonpayable",
      "type": "function"
    }
  ],
  "bytecode": "0x60806040523480156200001157600080fd5b50604051620018cd380380620018cd83398101604081905262000034916200047f565b82828282600390805190602001906200004f9291906200032e565b508151620000659060049060208501906200032e565b506005805460ff191660ff9290921691909117905550620000879050620000a8565b506008805460ff191690556200009e338562000164565b5050505062000624565b600080620000b562000250565b905060007f8b73c3c69bb8fe3d512ecc4cf759cc79239f7b179b0ffacaa9a75d522b39400f620000e462000254565b805160209182012060408051808201825260018152603160f81b90840152516200013693927fc89efdaa54c0f20c7adf612882df0950f5a951637e0307cdcb4c672f298b8bc691879130910162000509565b60408051601f1981840301815291815281516020928301206000948552600790925290922082905550905090565b6001600160a01b038216620001965760405162461bcd60e51b81526004016200018d906200056c565b60405180910390fd5b620001a460008383620002ee565b620001c081600254620002f360201b620006b51790919060201c565b6002556001600160a01b03821660009081526020818152604090912054620001f3918390620006b5620002f3821b17901c565b6001600160a01b0383166000818152602081905260408082209390935591519091907fddf252ad1be2c89b69c2b068fc378daa952ba7f163c4a11628f55a4df523b3ef9062000244908590620005a3565b60405180910390a35050565b4690565b6060600380546200026590620005d1565b80601f01602080910402602001604051908101604052809291908181526020018280546200029390620005d1565b8015620002e45780601f10620002b857610100808354040283529160200191620002e4565b820191906000526020600020905b815481529060010190602001808311620002c657829003601f168201915b5050505050905090565b505050565b600080620003028385620005ac565b905083811015620003275760405162461bcd60e51b81526004016200018d9062000535565b9392505050565b8280546200033c90620005d1565b90600052602060002090601f016020900481019282620003605760008555620003ab565b82601f106200037b57805160ff1916838001178555620003ab565b82800160010185558215620003ab579182015b82811115620003ab5782518255916020019190600101906200038e565b50620003b9929150620003bd565b5090565b5b80821115620003b95760008155600101620003be565b600082601f830112620003e5578081fd5b81516001600160401b03808211156200040257620004026200060e565b6040516020601f8401601f19168201810183811183821017156200042a576200042a6200060e565b604052838252858401810187101562000441578485fd5b8492505b8383101562000464578583018101518284018201529182019162000445565b838311156200047557848185840101525b5095945050505050565b6000806000806080858703121562000495578384fd5b845160208601519094506001600160401b0380821115620004b4578485fd5b620004c288838901620003d4565b94506040870151915080821115620004d8578384fd5b50620004e787828801620003d4565b925050606085015160ff81168114620004fe578182fd5b939692955090935050565b9485526020850193909352604084019190915260608301526001600160a01b0316608082015260a00190565b6020808252601b908201527f536166654d6174683a206164646974696f6e206f766572666c6f770000000000604082015260600190565b6020808252601f908201527f45524332303a206d696e7420746f20746865207a65726f206164647265737300604082015260600190565b90815260200190565b60008219821115620005cc57634e487b7160e01b81526011600452602481fd5b500190565b600281046001821680620005e657607f821691505b602082108114156200060857634e487b7160e01b600052602260045260246000fd5b50919050565b634e487b7160e01b600052604160045260246000fd5b61129980620006346000396000f3fe608060405234801561001057600080fd5b50600436106101165760003560e01c806379cc6790116100a2578063a9059cbb11610071578063a9059cbb1461021a578063adb618321461022d578063adc879e914610235578063d505accf1461023d578063dd62ed3e1461025057610116565b806379cc6790146101d95780637ecebe00146101ec57806395d89b41146101ff578063a457c2d71461020757610116565b8063313ce567116100e9578063313ce56714610181578063395093511461019657806342966c68146101a95780635c975abb146101be57806370a08231146101c657610116565b806306fdde031461011b578063095ea7b31461013957806318160ddd1461015957806323b872dd1461016e575b600080fd5b610123610263565b6040516101309190610df6565b60405180910390f35b61014c610147366004610d07565b6102f6565b6040516101309190610d6d565b610161610313565b60405161013091906110f8565b61014c61017c366004610c5b565b610319565b6101896103a0565b6040516101309190611101565b61014c6101a4366004610d07565b6103a9565b6101bc6101b7366004610d30565b6103f7565b005b61014c61040b565b6101616101d4366004610c0f565b610414565b6101bc6101e7366004610d07565b610433565b6101616101fa366004610c0f565b610488565b6101236104a3565b61014c610215366004610d07565b6104b2565b61014c610228366004610d07565b61051a565b61016161052e565b610161610532565b6101bc61024b366004610c96565b610536565b61016161025e366004610c29565b61068a565b6060600380546102729061113e565b80601f016020809104026020016040519081016040528092919081815260200182805461029e9061113e565b80156102eb5780601f106102c0576101008083540402835291602001916102eb565b820191906000526020600020905b8154815290600101906020018083116102ce57829003601f168201915b505050505090505b90565b600061030a6103036106eb565b84846106ef565b50600192915050565b60025490565b60006103268484846107a3565b610396846103326106eb565b610391856040518060600160405280602881526020016111f3602891396001600160a01b038a166000908152600160205260408120906103706106eb565b6001600160a01b0316815260208101919091526040016000205491906108b8565b6106ef565b5060019392505050565b60055460ff1690565b600061030a6103b66106eb565b8461039185600160006103c76106eb565b6001600160a01b03908116825260208083019390935260409182016000908120918c1681529252902054906106b5565b6104086104026106eb565b826108f2565b50565b60085460ff1690565b6001600160a01b0381166000908152602081905260409020545b919050565b60006104658260405180606001604052806024815260200161121b6024913961045e8661025e6106eb565b91906108b8565b9050610479836104736106eb565b836106ef565b61048383836108f2565b505050565b6001600160a01b031660009081526006602052604090205490565b6060600480546102729061113e565b600061030a6104bf6106eb565b846103918560405180606001604052806025815260200161123f60259139600160006104e96106eb565b6001600160a01b03908116825260208083019390935260409182016000908120918d168152925290205491906108b8565b600061030a6105276106eb565b84846107a3565b4290565b4690565b8361053f61052e565b11156105665760405162461bcd60e51b815260040161055d90610f3c565b60405180910390fd5b6001600160a01b03871660009081526006602090815260408083205490516105b9927f6e71edae12b1b97f4d1f60370fef10105fa2faae0126114a169c64845d6126c9928c928c928c92918c9101610d78565b60405160208183030381529060405280519060200120905060006119016105de6109d4565b836040516020016105f193929190610d48565b604051602081830303815290604052805190602001209050600061061782878787610a13565b9050896001600160a01b0316816001600160a01b03161461064a5760405162461bcd60e51b815260040161055d90610ff7565b6001600160a01b038a16600090815260066020526040812080549161066e83611179565b919050555061067e8a8a8a6106ef565b50505050505050505050565b6001600160a01b03918216600090815260016020908152604080832093909416825291909152205490565b6000806106c2838561110f565b9050838110156106e45760405162461bcd60e51b815260040161055d90610f05565b9392505050565b3390565b6001600160a01b0383166107155760405162461bcd60e51b815260040161055d906110b4565b6001600160a01b03821661073b5760405162461bcd60e51b815260040161055d90610ec3565b6001600160a01b0380841660008181526001602090815260408083209487168084529490915290819020849055517f8c5be1e5ebec7d5bd14f71427d1e84f3dd0314c0f7b2291e5b200ac8c7c3b925906107969085906110f8565b60405180910390a3505050565b6001600160a01b0383166107c95760405162461bcd60e51b815260040161055d9061106f565b6001600160a01b0382166107ef5760405162461bcd60e51b815260040161055d90610e80565b6107fa838383610483565b610837816040518060600160405280602681526020016111cd602691396001600160a01b03861660009081526020819052604090205491906108b8565b6001600160a01b03808516600090815260208190526040808220939093559084168152205461086690826106b5565b6001600160a01b0380841660008181526020819052604090819020939093559151908516907fddf252ad1be2c89b69c2b068fc378daa952ba7f163c4a11628f55a4df523b3ef906107969085906110f8565b600081848411156108dc5760405162461bcd60e51b815260040161055d9190610df6565b5060006108e98486611127565b95945050505050565b6001600160a01b0382166109185760405162461bcd60e51b815260040161055d9061102e565b61092482600083610483565b610961816040518060600160405280602281526020016111ab602291396001600160a01b03851660009081526020819052604090205491906108b8565b6001600160a01b0383166000908152602081905260409020556002546109879082610b00565b6002556040516000906001600160a01b038416907fddf252ad1be2c89b69c2b068fc378daa952ba7f163c4a11628f55a4df523b3ef906109c89085906110f8565b60405180910390a35050565b600080600760006109e3610532565b815260208101919091526040016000205490508015610a035790506102f3565b610a0b610b42565b9150506102f3565b60007f7fffffffffffffffffffffffffffffff5d576e7357a4501ddfe92f46681b20a0821115610a555760405162461bcd60e51b815260040161055d90610f73565b8360ff16601b1480610a6a57508360ff16601c145b610a865760405162461bcd60e51b815260040161055d90610fb5565b600060018686868660405160008152602001604052604051610aab9493929190610dd8565b6020604051602081039080840390855afa158015610acd573d6000803e3d6000fd5b5050604051601f1901519150506001600160a01b0381166108e95760405162461bcd60e51b815260040161055d90610e49565b60006106e483836040518060400160405280601e81526020017f536166654d6174683a207375627472616374696f6e206f766572666c6f7700008152506108b8565b600080610b4d610532565b905060007f8b73c3c69bb8fe3d512ecc4cf759cc79239f7b179b0ffacaa9a75d522b39400f610b7a610263565b805160209182012060408051808201825260018152603160f81b9084015251610bca93927fc89efdaa54c0f20c7adf612882df0950f5a951637e0307cdcb4c672f298b8bc6918791309101610dac565b60408051601f1981840301815291815281516020928301206000948552600790925290922082905550905090565b80356001600160a01b038116811461042e57600080fd5b600060208284031215610c20578081fd5b6106e482610bf8565b60008060408385031215610c3b578081fd5b610c4483610bf8565b9150610c5260208401610bf8565b90509250929050565b600080600060608486031215610c6f578081fd5b610c7884610bf8565b9250610c8660208501610bf8565b9150604084013590509250925092565b600080600080600080600060e0888a031215610cb0578283fd5b610cb988610bf8565b9650610cc760208901610bf8565b95506040880135945060608801359350608088013560ff81168114610cea578384fd5b9699959850939692959460a0840135945060c09093013592915050565b60008060408385031215610d19578182fd5b610d2283610bf8565b946020939093013593505050565b600060208284031215610d41578081fd5b5035919050565b60f09390931b6001600160f01b03191683526002830191909152602282015260420190565b901515815260200190565b9586526001600160a01b0394851660208701529290931660408501526060840152608083019190915260a082015260c00190565b9485526020850193909352604084019190915260608301526001600160a01b0316608082015260a00190565b93845260ff9290921660208401526040830152606082015260800190565b6000602080835283518082850152825b81811015610e2257858101830151858201604001528201610e06565b81811115610e335783604083870101525b50601f01601f1916929092016040019392505050565b60208082526018908201527f45434453413a20696e76616c6964207369676e61747572650000000000000000604082015260600190565b60208082526023908201527f45524332303a207472616e7366657220746f20746865207a65726f206164647260408201526265737360e81b606082015260800190565b60208082526022908201527f45524332303a20617070726f766520746f20746865207a65726f206164647265604082015261737360f01b606082015260800190565b6020808252601b908201527f536166654d6174683a206164646974696f6e206f766572666c6f770000000000604082015260600190565b6020808252601d908201527f45524332305065726d69743a206578706972656420646561646c696e65000000604082015260600190565b60208082526022908201527f45434453413a20696e76616c6964207369676e6174757265202773272076616c604082015261756560f01b606082015260800190565b60208082526022908201527f45434453413a20696e76616c6964207369676e6174757265202776272076616c604082015261756560f01b606082015260800190565b6020808252601e908201527f45524332305065726d69743a20696e76616c6964207369676e61747572650000604082015260600190565b60208082526021908201527f45524332303a206275726e2066726f6d20746865207a65726f206164647265736040820152607360f81b606082015260800190565b60208082526025908201527f45524332303a207472616e736665722066726f6d20746865207a65726f206164604082015264647265737360d81b606082015260800190565b60208082526024908201527f45524332303a20617070726f76652066726f6d20746865207a65726f206164646040820152637265737360e01b606082015260800190565b90815260200190565b60ff91909116815260200190565b6000821982111561112257611122611194565b500190565b60008282101561113957611139611194565b500390565b60028104600182168061115257607f821691505b6020821081141561117357634e487b7160e01b600052602260045260246000fd5b50919050565b600060001982141561118d5761118d611194565b5060010190565b634e487b7160e01b600052601160045260246000fdfe45524332303a206275726e20616d6f756e7420657863656564732062616c616e636545524332303a207472616e7366657220616d6f756e7420657863656564732062616c616e636545524332303a207472616e7366657220616d6f756e74206578636565647320616c6c6f77616e636545524332303a206275726e20616d6f756e74206578636565647320616c6c6f77616e636545524332303a2064656372656173656420616c6c6f77616e63652062656c6f77207a65726fa264697066735822122025a1143ebd628b65c2db5df76bd3eda897d3aa0e38fdb678eb9f2cc164b2a22664736f6c63430008000033",
  "linkReferences": {},
  "deployedLinkReferences": {}
}