{
  "_format": "hh-sol-artifact-1",
  "contractName": "ENSRegistryWithFallback",
  "sourceName": "contracts/ENSRegistryWithFallback.sol",
  "abi": [
    {
      "inputs": [
        {
          "internalType": "contract ENS",
          "name": "_old",
          "type": "address"
        }
      ],
      "stateMutability": "nonpayable",
      "type": "constructor"
    },
    {
      "anonymous": false,
      "inputs": [
        {
          "indexed": true,
          "internalType": "address",
          "name": "owner",
          "type": "address"
        },
        {
          "indexed": true,
          "internalType": "address",
          "name": "operator",
          "type": "address"
        },
        {
          "indexed": false,
          "internalType": "bool",
          "name": "approved",
          "type": "bool"
        }
      ],
      "name": "ApprovalForAll",
      "type": "event"
    },
    {
      "anonymous": false,
      "inputs": [
        {
          "indexed": true,
          "internalType": "bytes32",
          "name": "node",
          "type": "bytes32"
        },
        {
          "indexed": true,
          "internalType": "bytes32",
          "name": "label",
          "type": "bytes32"
        },
        {
          "indexed": false,
          "internalType": "address",
          "name": "owner",
          "type": "address"
        }
      ],
      "name": "NewOwner",
      "type": "event"
    },
    {
      "anonymous": false,
      "inputs": [
        {
          "indexed": true,
          "internalType": "bytes32",
          "name": "node",
          "type": "bytes32"
        },
        {
          "indexed": false,
          "internalType": "address",
          "name": "resolver",
          "type": "address"
        }
      ],
      "name": "NewResolver",
      "type": "event"
    },
    {
      "anonymous": false,
      "inputs": [
        {
          "indexed": true,
          "internalType": "bytes32",
          "name": "node",
          "type": "bytes32"
        },
        {
          "indexed": false,
          "internalType": "uint64",
          "name": "ttl",
          "type": "uint64"
        }
      ],
      "name": "NewTTL",
      "type": "event"
    },
    {
      "anonymous": false,
      "inputs": [
        {
          "indexed": true,
          "internalType": "bytes32",
          "name": "node",
          "type": "bytes32"
        },
        {
          "indexed": false,
          "internalType": "address",
          "name": "owner",
          "type": "address"
        }
      ],
      "name": "Transfer",
      "type": "event"
    },
    {
      "inputs": [
        {
          "internalType": "address",
          "name": "owner",
          "type": "address"
        },
        {
          "internalType": "address",
          "name": "operator",
          "type": "address"
        }
      ],
      "name": "isApprovedForAll",
      "outputs": [
        {
          "internalType": "bool",
          "name": "",
          "type": "bool"
        }
      ],
      "stateMutability": "view",
      "type": "function"
    },
    {
      "inputs": [],
      "name": "old",
      "outputs": [
        {
          "internalType": "contract ENS",
          "name": "",
          "type": "address"
        }
      ],
      "stateMutability": "view",
      "type": "function"
    },
    {
      "inputs": [
        {
          "internalType": "bytes32",
          "name": "node",
          "type": "bytes32"
        }
      ],
      "name": "owner",
      "outputs": [
        {
          "internalType": "address",
          "name": "",
          "type": "address"
        }
      ],
      "stateMutability": "view",
      "type": "function"
    },
    {
      "inputs": [
        {
          "internalType": "bytes32",
          "name": "node",
          "type": "bytes32"
        }
      ],
      "name": "recordExists",
      "outputs": [
        {
          "internalType": "bool",
          "name": "",
          "type": "bool"
        }
      ],
      "stateMutability": "view",
      "type": "function"
    },
    {
      "inputs": [
        {
          "internalType": "bytes32",
          "name": "node",
          "type": "bytes32"
        }
      ],
      "name": "resolver",
      "outputs": [
        {
          "internalType": "address",
          "name": "",
          "type": "address"
        }
      ],
      "stateMutability": "view",
      "type": "function"
    },
    {
      "inputs": [
        {
          "internalType": "address",
          "name": "operator",
          "type": "address"
        },
        {
          "internalType": "bool",
          "name": "approved",
          "type": "bool"
        }
      ],
      "name": "setApprovalForAll",
      "outputs": [],
      "stateMutability": "nonpayable",
      "type": "function"
    },
    {
      "inputs": [
        {
          "internalType": "bytes32",
          "name": "node",
          "type": "bytes32"
        },
        {
          "internalType": "address",
          "name": "owner",
          "type": "address"
        }
      ],
      "name": "setOwner",
      "outputs": [],
      "stateMutability": "nonpayable",
      "type": "function"
    },
    {
      "inputs": [
        {
          "internalType": "bytes32",
          "name": "node",
          "type": "bytes32"
        },
        {
          "internalType": "address",
          "name": "owner",
          "type": "address"
        },
        {
          "internalType": "address",
          "name": "resolver",
          "type": "address"
        },
        {
          "internalType": "uint64",
          "name": "ttl",
          "type": "uint64"
        }
      ],
      "name": "setRecord",
      "outputs": [],
      "stateMutability": "nonpayable",
      "type": "function"
    },
    {
      "inputs": [
        {
          "internalType": "bytes32",
          "name": "node",
          "type": "bytes32"
        },
        {
          "internalType": "address",
          "name": "resolver",
          "type": "address"
        }
      ],
      "name": "setResolver",
      "outputs": [],
      "stateMutability": "nonpayable",
      "type": "function"
    },
    {
      "inputs": [
        {
          "internalType": "bytes32",
          "name": "node",
          "type": "bytes32"
        },
        {
          "internalType": "bytes32",
          "name": "label",
          "type": "bytes32"
        },
        {
          "internalType": "address",
          "name": "owner",
          "type": "address"
        }
      ],
      "name": "setSubnodeOwner",
      "outputs": [
        {
          "internalType": "bytes32",
          "name": "",
          "type": "bytes32"
        }
      ],
      "stateMutability": "nonpayable",
      "type": "function"
    },
    {
      "inputs": [
        {
          "internalType": "bytes32",
          "name": "node",
          "type": "bytes32"
        },
        {
          "internalType": "bytes32",
          "name": "label",
          "type": "bytes32"
        },
        {
          "internalType": "address",
          "name": "owner",
          "type": "address"
        },
        {
          "internalType": "address",
          "name": "resolver",
          "type": "address"
        },
        {
          "internalType": "uint64",
          "name": "ttl",
          "type": "uint64"
        }
      ],
      "name": "setSubnodeRecord",
      "outputs": [],
      "stateMutability": "nonpayable",
      "type": "function"
    },
    {
      "inputs": [
        {
          "internalType": "bytes32",
          "name": "node",
          "type": "bytes32"
        },
        {
          "internalType": "uint64",
          "name": "ttl",
          "type": "uint64"
        }
      ],
      "name": "setTTL",
      "outputs": [],
      "stateMutability": "nonpayable",
      "type": "function"
    },
    {
      "inputs": [
        {
          "internalType": "bytes32",
          "name": "node",
          "type": "bytes32"
        }
      ],
      "name": "ttl",
      "outputs": [
        {
          "internalType": "uint64",
          "name": "",
          "type": "uint64"
        }
      ],
      "stateMutability": "view",
      "type": "function"
    }
  ],
  "bytecode": "0x608060405234801561001057600080fd5b50604051610b75380380610b7583398101604081905261002f91610089565b60008080526020527fad3228b676f7d3cd4284a5443f17f1962b36e491b30a40b2405849e597ba5fb58054336001600160a01b031991821617909155600280549091166001600160a01b03929092169190911790556100b7565b60006020828403121561009a578081fd5b81516001600160a01b03811681146100b0578182fd5b9392505050565b610aaf806100c66000396000f3fe608060405234801561001057600080fd5b50600436106100cf5760003560e01c80635b0fc9c31161008c578063b83f866311610066578063b83f8663146101b1578063cf408823146101b9578063e985e9c5146101cc578063f79fe538146101ec576100cf565b80635b0fc9c3146101785780635ef2c7f01461018b578063a22cb4651461019e576100cf565b80630178b8bf146100d457806302571be3146100fd57806306ab59231461011057806314ab90381461013057806316a25cbd146101455780631896f70a14610165575b600080fd5b6100e76100e236600461089c565b6101ff565b6040516100f49190610a0e565b60405180910390f35b6100e761010b36600461089c565b6102a6565b61012361011e36600461092a565b6102ee565b6040516100f49190610a2d565b61014361013e3660046109c0565b610367565b005b61015861015336600461089c565b6103dd565b6040516100f49190610a36565b6101436101733660046108b4565b610475565b6101436101863660046108b4565b6104de565b610143610199366004610962565b610524565b6101436101ac36600461086b565b610546565b6100e76105b5565b6101436101c73660046108d8565b6105c4565b6101df6101da366004610833565b6105df565b6040516100f49190610a22565b6101df6101fa36600461089c565b61060d565b600061020a8261060d565b61029557600254604051630178b8bf60e01b81526001600160a01b0390911690630178b8bf9061023e908590600401610a2d565b60206040518083038186803b15801561025657600080fd5b505afa15801561026a573d6000803e3d6000fd5b505050506040513d601f19601f8201168201806040525081019061028e9190610810565b90506102a1565b61029e8261062a565b90505b919050565b60006102b18261060d565b6102e5576002546040516302571be360e01b81526001600160a01b03909116906302571be39061023e908590600401610a2d565b61029e82610648565b6000808484604051602001610304929190610a00565b6040516020818303038152906040528051906020012090506103268184610672565b83857fce0457fe73731f824cc272376169235128c118b49d344817417c6d108d155e82856040516103579190610a0e565b60405180910390a3949350505050565b817f1d4f9bbfc9cab89d66e1a1562f2233ccbf1308cb4f63de2ead5787adddb8fa68826040516103979190610a36565b60405180910390a2600091825260208290526040909120600101805467ffffffffffffffff909216600160a01b0267ffffffffffffffff60a01b19909216919091179055565b60006103e88261060d565b61046c576002546040516316a25cbd60e01b81526001600160a01b03909116906316a25cbd9061041c908590600401610a2d565b60206040518083038186803b15801561043457600080fd5b505afa158015610448573d6000803e3d6000fd5b505050506040513d601f19601f8201168201806040525081019061028e91906109e4565b61029e82610693565b817f335721b01866dc23fbee8b6b2c7b1e14d6f05c28cd35a2c934239f94095602a0826040516104a59190610a0e565b60405180910390a260009182526020829052604090912060010180546001600160a01b0319166001600160a01b03909216919091179055565b6104e88282610672565b817fd4735d920b0f87494915f556dd9b54c8f309026070caea5c737245152564d266826040516105189190610a0e565b60405180910390a25050565b60006105318686866102ee565b905061053e8184846106b9565b505050505050565b3360008181526001602090815260408083206001600160a01b038716808552925291829020805460ff191685151517905590519091907f17307eab39ab6107e8899845ad3d59bd9653f200f220920489ca2b5937696c31906105a9908590610a22565b60405180910390a35050565b6002546001600160a01b031681565b6105ce84846104de565b6105d98483836106b9565b50505050565b6001600160a01b03918216600090815260016020908152604080832093909416825291909152205460ff1690565b6000908152602081905260409020546001600160a01b0316151590565b6000908152602081905260409020600101546001600160a01b031690565b6000818152602081905260408120546001600160a01b03163081141561029e5760009150506102a1565b806001600160a01b0381166106845750305b61068e83826107e2565b505050565b600090815260208190526040902060010154600160a01b900467ffffffffffffffff1690565b6000838152602081905260409020600101546001600160a01b03838116911614610742576000838152602081905260409081902060010180546001600160a01b0319166001600160a01b0385161790555183907f335721b01866dc23fbee8b6b2c7b1e14d6f05c28cd35a2c934239f94095602a090610739908590610a0e565b60405180910390a25b60008381526020819052604090206001015467ffffffffffffffff828116600160a01b909204161461068e5760008381526020819052604090819020600101805467ffffffffffffffff60a01b1916600160a01b67ffffffffffffffff8516021790555183907f1d4f9bbfc9cab89d66e1a1562f2233ccbf1308cb4f63de2ead5787adddb8fa68906107d5908490610a36565b60405180910390a2505050565b60009182526020829052604090912080546001600160a01b0319166001600160a01b03909216919091179055565b600060208284031215610821578081fd5b815161082c81610a4b565b9392505050565b60008060408385031215610845578081fd5b823561085081610a4b565b9150602083013561086081610a4b565b809150509250929050565b6000806040838503121561087d578182fd5b823561088881610a4b565b915060208301358015158114610860578182fd5b6000602082840312156108ad578081fd5b5035919050565b600080604083850312156108c6578182fd5b82359150602083013561086081610a4b565b600080600080608085870312156108ed578182fd5b8435935060208501356108ff81610a4b565b9250604085013561090f81610a4b565b9150606085013561091f81610a63565b939692955090935050565b60008060006060848603121561093e578283fd5b8335925060208401359150604084013561095781610a4b565b809150509250925092565b600080600080600060a08688031215610979578081fd5b8535945060208601359350604086013561099281610a4b565b925060608601356109a281610a4b565b915060808601356109b281610a63565b809150509295509295909350565b600080604083850312156109d2578182fd5b82359150602083013561086081610a63565b6000602082840312156109f5578081fd5b815161082c81610a63565b918252602082015260400190565b6001600160a01b0391909116815260200190565b901515815260200190565b90815260200190565b67ffffffffffffffff91909116815260200190565b6001600160a01b0381168114610a6057600080fd5b50565b67ffffffffffffffff81168114610a6057600080fdfea264697066735822122048c82bc46704661d57f971b0c88bbe1395839b1a6ff23bdc8fedb1f1b7a4b36a64736f6c63430008000033",
  "linkReferences": {},
  "deployedLinkReferences": {}
}