{
  "_format": "hh-sol-artifact-1",
  "contractName": "ENSRegistry",
  "sourceName": "contracts/ENSRegistryWithFallback.sol",
  "abi": [
    {
      "inputs": [],
      "stateMutability": "nonpayable",
      "type": "constructor"
    },
    {
      "anonymous": false,
      "inputs": [
        {
          "indexed": true,
          "internalType": "address",
          "name": "owner",
          "type": "address"
        },
        {
          "indexed": true,
          "internalType": "address",
          "name": "operator",
          "type": "address"
        },
        {
          "indexed": false,
          "internalType": "bool",
          "name": "approved",
          "type": "bool"
        }
      ],
      "name": "ApprovalForAll",
      "type": "event"
    },
    {
      "anonymous": false,
      "inputs": [
        {
          "indexed": true,
          "internalType": "bytes32",
          "name": "node",
          "type": "bytes32"
        },
        {
          "indexed": true,
          "internalType": "bytes32",
          "name": "label",
          "type": "bytes32"
        },
        {
          "indexed": false,
          "internalType": "address",
          "name": "owner",
          "type": "address"
        }
      ],
      "name": "NewOwner",
      "type": "event"
    },
    {
      "anonymous": false,
      "inputs": [
        {
          "indexed": true,
          "internalType": "bytes32",
          "name": "node",
          "type": "bytes32"
        },
        {
          "indexed": false,
          "internalType": "address",
          "name": "resolver",
          "type": "address"
        }
      ],
      "name": "NewResolver",
      "type": "event"
    },
    {
      "anonymous": false,
      "inputs": [
        {
          "indexed": true,
          "internalType": "bytes32",
          "name": "node",
          "type": "bytes32"
        },
        {
          "indexed": false,
          "internalType": "uint64",
          "name": "ttl",
          "type": "uint64"
        }
      ],
      "name": "NewTTL",
      "type": "event"
    },
    {
      "anonymous": false,
      "inputs": [
        {
          "indexed": true,
          "internalType": "bytes32",
          "name": "node",
          "type": "bytes32"
        },
        {
          "indexed": false,
          "internalType": "address",
          "name": "owner",
          "type": "address"
        }
      ],
      "name": "Transfer",
      "type": "event"
    },
    {
      "inputs": [
        {
          "internalType": "address",
          "name": "owner",
          "type": "address"
        },
        {
          "internalType": "address",
          "name": "operator",
          "type": "address"
        }
      ],
      "name": "isApprovedForAll",
      "outputs": [
        {
          "internalType": "bool",
          "name": "",
          "type": "bool"
        }
      ],
      "stateMutability": "view",
      "type": "function"
    },
    {
      "inputs": [
        {
          "internalType": "bytes32",
          "name": "node",
          "type": "bytes32"
        }
      ],
      "name": "owner",
      "outputs": [
        {
          "internalType": "address",
          "name": "",
          "type": "address"
        }
      ],
      "stateMutability": "view",
      "type": "function"
    },
    {
      "inputs": [
        {
          "internalType": "bytes32",
          "name": "node",
          "type": "bytes32"
        }
      ],
      "name": "recordExists",
      "outputs": [
        {
          "internalType": "bool",
          "name": "",
          "type": "bool"
        }
      ],
      "stateMutability": "view",
      "type": "function"
    },
    {
      "inputs": [
        {
          "internalType": "bytes32",
          "name": "node",
          "type": "bytes32"
        }
      ],
      "name": "resolver",
      "outputs": [
        {
          "internalType": "address",
          "name": "",
          "type": "address"
        }
      ],
      "stateMutability": "view",
      "type": "function"
    },
    {
      "inputs": [
        {
          "internalType": "address",
          "name": "operator",
          "type": "address"
        },
        {
          "internalType": "bool",
          "name": "approved",
          "type": "bool"
        }
      ],
      "name": "setApprovalForAll",
      "outputs": [],
      "stateMutability": "nonpayable",
      "type": "function"
    },
    {
      "inputs": [
        {
          "internalType": "bytes32",
          "name": "node",
          "type": "bytes32"
        },
        {
          "internalType": "address",
          "name": "owner",
          "type": "address"
        }
      ],
      "name": "setOwner",
      "outputs": [],
      "stateMutability": "nonpayable",
      "type": "function"
    },
    {
      "inputs": [
        {
          "internalType": "bytes32",
          "name": "node",
          "type": "bytes32"
        },
        {
          "internalType": "address",
          "name": "owner",
          "type": "address"
        },
        {
          "internalType": "address",
          "name": "resolver",
          "type": "address"
        },
        {
          "internalType": "uint64",
          "name": "ttl",
          "type": "uint64"
        }
      ],
      "name": "setRecord",
      "outputs": [],
      "stateMutability": "nonpayable",
      "type": "function"
    },
    {
      "inputs": [
        {
          "internalType": "bytes32",
          "name": "node",
          "type": "bytes32"
        },
        {
          "internalType": "address",
          "name": "resolver",
          "type": "address"
        }
      ],
      "name": "setResolver",
      "outputs": [],
      "stateMutability": "nonpayable",
      "type": "function"
    },
    {
      "inputs": [
        {
          "internalType": "bytes32",
          "name": "node",
          "type": "bytes32"
        },
        {
          "internalType": "bytes32",
          "name": "label",
          "type": "bytes32"
        },
        {
          "internalType": "address",
          "name": "owner",
          "type": "address"
        }
      ],
      "name": "setSubnodeOwner",
      "outputs": [
        {
          "internalType": "bytes32",
          "name": "",
          "type": "bytes32"
        }
      ],
      "stateMutability": "nonpayable",
      "type": "function"
    },
    {
      "inputs": [
        {
          "internalType": "bytes32",
          "name": "node",
          "type": "bytes32"
        },
        {
          "internalType": "bytes32",
          "name": "label",
          "type": "bytes32"
        },
        {
          "internalType": "address",
          "name": "owner",
          "type": "address"
        },
        {
          "internalType": "address",
          "name": "resolver",
          "type": "address"
        },
        {
          "internalType": "uint64",
          "name": "ttl",
          "type": "uint64"
        }
      ],
      "name": "setSubnodeRecord",
      "outputs": [],
      "stateMutability": "nonpayable",
      "type": "function"
    },
    {
      "inputs": [
        {
          "internalType": "bytes32",
          "name": "node",
          "type": "bytes32"
        },
        {
          "internalType": "uint64",
          "name": "ttl",
          "type": "uint64"
        }
      ],
      "name": "setTTL",
      "outputs": [],
      "stateMutability": "nonpayable",
      "type": "function"
    },
    {
      "inputs": [
        {
          "internalType": "bytes32",
          "name": "node",
          "type": "bytes32"
        }
      ],
      "name": "ttl",
      "outputs": [
        {
          "internalType": "uint64",
          "name": "",
          "type": "uint64"
        }
      ],
      "stateMutability": "view",
      "type": "function"
    }
  ],
  "bytecode": "0x608060405234801561001057600080fd5b5060008080526020527fad3228b676f7d3cd4284a5443f17f1962b36e491b30a40b2405849e597ba5fb580546001600160a01b0319163317905561088e806100596000396000f3fe608060405234801561001057600080fd5b50600436106100b45760003560e01c80635b0fc9c3116100715780635b0fc9c31461015d5780635ef2c7f014610170578063a22cb46514610183578063cf40882314610196578063e985e9c5146101a9578063f79fe538146101c9576100b4565b80630178b8bf146100b957806302571be3146100e257806306ab5923146100f557806314ab90381461011557806316a25cbd1461012a5780631896f70a1461014a575b600080fd5b6100cc6100c73660046106db565b6101dc565b6040516100d9919061081b565b60405180910390f35b6100cc6100f03660046106db565b6101fd565b610108610103366004610761565b61022d565b6040516100d9919061083a565b6101286101233660046107eb565b6102a6565b005b61013d6101383660046106db565b61031c565b6040516100d99190610843565b6101286101583660046106f3565b610342565b61012861016b3660046106f3565b6103ab565b61012861017e366004610795565b6103f1565b6101286101913660046106a1565b610413565b6101286101a4366004610715565b610482565b6101bc6101b736600461066f565b61049d565b6040516100d9919061082f565b6101bc6101d73660046106db565b6104cb565b6000818152602081905260409020600101546001600160a01b03165b919050565b6000818152602081905260408120546001600160a01b0316308114156102275760009150506101f8565b92915050565b600080848460405160200161024392919061080d565b60405160208183030381529060405280519060200120905061026581846104e8565b83857fce0457fe73731f824cc272376169235128c118b49d344817417c6d108d155e8285604051610296919061081b565b60405180910390a3949350505050565b817f1d4f9bbfc9cab89d66e1a1562f2233ccbf1308cb4f63de2ead5787adddb8fa68826040516102d69190610843565b60405180910390a2600091825260208290526040909120600101805467ffffffffffffffff909216600160a01b0267ffffffffffffffff60a01b19909216919091179055565b600090815260208190526040902060010154600160a01b900467ffffffffffffffff1690565b817f335721b01866dc23fbee8b6b2c7b1e14d6f05c28cd35a2c934239f94095602a082604051610372919061081b565b60405180910390a260009182526020829052604090912060010180546001600160a01b0319166001600160a01b03909216919091179055565b6103b582826104e8565b817fd4735d920b0f87494915f556dd9b54c8f309026070caea5c737245152564d266826040516103e5919061081b565b60405180910390a25050565b60006103fe86868661022d565b905061040b818484610516565b505050505050565b3360008181526001602090815260408083206001600160a01b038716808552925291829020805460ff191685151517905590519091907f17307eab39ab6107e8899845ad3d59bd9653f200f220920489ca2b5937696c319061047690859061082f565b60405180910390a35050565b61048c84846103ab565b610497848383610516565b50505050565b6001600160a01b03918216600090815260016020908152604080832093909416825291909152205460ff1690565b6000908152602081905260409020546001600160a01b0316151590565b60009182526020829052604090912080546001600160a01b0319166001600160a01b03909216919091179055565b6000838152602081905260409020600101546001600160a01b0383811691161461059f576000838152602081905260409081902060010180546001600160a01b0319166001600160a01b0385161790555183907f335721b01866dc23fbee8b6b2c7b1e14d6f05c28cd35a2c934239f94095602a09061059690859061081b565b60405180910390a25b60008381526020819052604090206001015467ffffffffffffffff828116600160a01b909204161461063b5760008381526020819052604090819020600101805467ffffffffffffffff60a01b1916600160a01b67ffffffffffffffff8516021790555183907f1d4f9bbfc9cab89d66e1a1562f2233ccbf1308cb4f63de2ead5787adddb8fa6890610632908490610843565b60405180910390a25b505050565b80356001600160a01b03811681146101f857600080fd5b803567ffffffffffffffff811681146101f857600080fd5b60008060408385031215610681578182fd5b61068a83610640565b915061069860208401610640565b90509250929050565b600080604083850312156106b3578182fd5b6106bc83610640565b9150602083013580151581146106d0578182fd5b809150509250929050565b6000602082840312156106ec578081fd5b5035919050565b60008060408385031215610705578182fd5b8235915061069860208401610640565b6000806000806080858703121561072a578182fd5b8435935061073a60208601610640565b925061074860408601610640565b915061075660608601610657565b905092959194509250565b600080600060608486031215610775578283fd5b833592506020840135915061078c60408501610640565b90509250925092565b600080600080600060a086880312156107ac578081fd5b85359450602086013593506107c360408701610640565b92506107d160608701610640565b91506107df60808701610657565b90509295509295909350565b600080604083850312156107fd578182fd5b8235915061069860208401610657565b918252602082015260400190565b6001600160a01b0391909116815260200190565b901515815260200190565b90815260200190565b67ffffffffffffffff9190911681526020019056fea264697066735822122083aebee396e38d8e4ded7bd00fce348e8b2bfd20bd43b1e017c8c82ed4da082364736f6c63430008000033",
  "linkReferences": {},
  "deployedLinkReferences": {}
}