{
  "_format": "hh-sol-artifact-1",
  "contractName": "MerkleTreeWithHistory",
  "sourceName": "contracts/TornadoCash_erc20.sol",
  "abi": [
    {
      "inputs": [
        {
          "internalType": "uint32",
          "name": "_treeLevels",
          "type": "uint32"
        },
        {
          "internalType": "address",
          "name": "_hasher",
          "type": "address"
        }
      ],
      "stateMutability": "nonpayable",
      "type": "constructor"
    },
    {
      "inputs": [],
      "name": "FIELD_SIZE",
      "outputs": [
        {
          "internalType": "uint256",
          "name": "",
          "type": "uint256"
        }
      ],
      "stateMutability": "view",
      "type": "function"
    },
    {
      "inputs": [],
      "name": "ROOT_HISTORY_SIZE",
      "outputs": [
        {
          "internalType": "uint32",
          "name": "",
          "type": "uint32"
        }
      ],
      "stateMutability": "view",
      "type": "function"
    },
    {
      "inputs": [],
      "name": "ZERO_VALUE",
      "outputs": [
        {
          "internalType": "uint256",
          "name": "",
          "type": "uint256"
        }
      ],
      "stateMutability": "view",
      "type": "function"
    },
    {
      "inputs": [],
      "name": "currentRootIndex",
      "outputs": [
        {
          "internalType": "uint32",
          "name": "",
          "type": "uint32"
        }
      ],
      "stateMutability": "view",
      "type": "function"
    },
    {
      "inputs": [
        {
          "internalType": "uint256",
          "name": "",
          "type": "uint256"
        }
      ],
      "name": "filledSubtrees",
      "outputs": [
        {
          "internalType": "bytes32",
          "name": "",
          "type": "bytes32"
        }
      ],
      "stateMutability": "view",
      "type": "function"
    },
    {
      "inputs": [],
      "name": "getLastRoot",
      "outputs": [
        {
          "internalType": "bytes32",
          "name": "",
          "type": "bytes32"
        }
      ],
      "stateMutability": "view",
      "type": "function"
    },
    {
      "inputs": [
        {
          "internalType": "bytes32",
          "name": "_left",
          "type": "bytes32"
        },
        {
          "internalType": "bytes32",
          "name": "_right",
          "type": "bytes32"
        }
      ],
      "name": "hashLeftRight",
      "outputs": [
        {
          "internalType": "bytes32",
          "name": "",
          "type": "bytes32"
        }
      ],
      "stateMutability": "view",
      "type": "function"
    },
    {
      "inputs": [
        {
          "internalType": "bytes32",
          "name": "_root",
          "type": "bytes32"
        }
      ],
      "name": "isKnownRoot",
      "outputs": [
        {
          "internalType": "bool",
          "name": "",
          "type": "bool"
        }
      ],
      "stateMutability": "view",
      "type": "function"
    },
    {
      "inputs": [],
      "name": "levels",
      "outputs": [
        {
          "internalType": "uint32",
          "name": "",
          "type": "uint32"
        }
      ],
      "stateMutability": "view",
      "type": "function"
    },
    {
      "inputs": [],
      "name": "nextIndex",
      "outputs": [
        {
          "internalType": "uint32",
          "name": "",
          "type": "uint32"
        }
      ],
      "stateMutability": "view",
      "type": "function"
    },
    {
      "inputs": [
        {
          "internalType": "uint256",
          "name": "",
          "type": "uint256"
        }
      ],
      "name": "roots",
      "outputs": [
        {
          "internalType": "bytes32",
          "name": "",
          "type": "bytes32"
        }
      ],
      "stateMutability": "view",
      "type": "function"
    },
    {
      "inputs": [
        {
          "internalType": "uint256",
          "name": "",
          "type": "uint256"
        }
      ],
      "name": "zeros",
      "outputs": [
        {
          "internalType": "bytes32",
          "name": "",
          "type": "bytes32"
        }
      ],
      "stateMutability": "view",
      "type": "function"
    }
  ],
  "bytecode": "0x6080604052600380546001600160401b03191690553480156200002157600080fd5b5060405162000b9438038062000b9483398101604081905262000044916200038c565b60008263ffffffff1611620000765760405162461bcd60e51b81526004016200006d9062000451565b60405180910390fd5b60208263ffffffff16106200009f5760405162461bcd60e51b81526004016200006d9062000498565b6000805463ffffffff60a01b1916600160a01b63ffffffff851602176001600160a01b0319166001600160a01b0383161781556002805460018181019092557f2fe54c60d3acabf3343a35b6eba15db4821b340f76e741e2249685ed4899af6c60008051602062000b34833981519152909101819055815480830183559282905260008051602062000b748339815191529092018290555b60005463ffffffff600160a01b90910481169082161015620001b7576200015f8280620001d1565b60028054600181810190925560008051602062000b34833981519152018290558054808201825560009190915260008051602062000b7483398151915201819055915080620001ae81620004e8565b91505062000137565b50620001c48180620001d1565b6004555062000519915050565b600060008051602062000b548339815191528310620002045760405162461bcd60e51b81526004016200006d90620003db565b60008051602062000b548339815191528210620002355760405162461bcd60e51b81526004016200006d9062000410565b6000805460405163f47d33b560e01b81528592916001600160a01b03169063f47d33b5906200026b9085908590600401620004da565b604080518083038186803b1580156200028357600080fd5b505afa15801562000298573d6000803e3d6000fd5b505050506040513d601f19601f82011682018060405250810190620002be919062000368565b909250905060008051602062000b5483398151915284830860005460405163f47d33b560e01b81529193506001600160a01b03169063f47d33b5906200030b9085908590600401620004da565b604080518083038186803b1580156200032357600080fd5b505afa15801562000338573d6000803e3d6000fd5b505050506040513d601f19601f820116820180604052508101906200035e919062000368565b5095945050505050565b600080604083850312156200037b578182fd5b505080516020909101519092909150565b600080604083850312156200039f578182fd5b825163ffffffff81168114620003b3578283fd5b60208401519092506001600160a01b0381168114620003d0578182fd5b809150509250929050565b6020808252818101527f5f6c6566742073686f756c6420626520696e7369646520746865206669656c64604082015260600190565b60208082526021908201527f5f72696768742073686f756c6420626520696e7369646520746865206669656c6040820152601960fa1b606082015260800190565b60208082526027908201527f5f747265654c6576656c732073686f756c642062652067726561746572207468604082015266616e207a65726f60c81b606082015260800190565b60208082526022908201527f5f747265654c6576656c732073686f756c64206265206c657373207468616e20604082015261199960f11b606082015260800190565b918252602082015260400190565b600063ffffffff808316818114156200050f57634e487b7160e01b83526011600452602483fd5b6001019392505050565b61060b80620005296000396000f3fe608060405234801561001057600080fd5b50600436106100b45760003560e01c8063c2b40ae411610071578063c2b40ae41461012f578063cd87a3b414610142578063e82955881461014a578063ec7329591461015d578063f178e47c14610165578063fc7e9c6f14610178576100b4565b806338bf282e146100b9578063414a37ba146100e25780634ecf518b146100ea5780636d9833e3146100ff57806390eeb02b1461011f578063ba70f75714610127575b600080fd5b6100cc6100c736600461049c565b610180565b6040516100d991906104eb565b60405180910390f35b6100cc61030b565b6100f261031d565b6040516100d99190610578565b61011261010d366004610484565b610330565b6040516100d991906104e0565b6100f26103bf565b6100cc6103cb565b6100cc61013d366004610484565b6103ff565b6100f2610416565b6100cc610158366004610484565b61041b565b6100cc61043c565b6100cc610173366004610484565b610460565b6100f2610470565b60006000805160206105b683398151915283106101b85760405162461bcd60e51b81526004016101af906104f4565b60405180910390fd5b6000805160206105b683398151915282106101e55760405162461bcd60e51b81526004016101af90610529565b6000805460405163f47d33b560e01b81528592916001600160a01b03169063f47d33b590610219908590859060040161056a565b604080518083038186803b15801561023057600080fd5b505afa158015610244573d6000803e3d6000fd5b505050506040513d601f19601f8201168201806040525081019061026891906104bd565b90925090506000805160206105b683398151915284830860005460405163f47d33b560e01b81529193506001600160a01b03169063f47d33b5906102b2908590859060040161056a565b604080518083038186803b1580156102c957600080fd5b505afa1580156102dd573d6000803e3d6000fd5b505050506040513d601f19601f8201168201806040525081019061030191906104bd565b5095945050505050565b6000805160206105b683398151915281565b600054600160a01b900463ffffffff1681565b60008161033f575060006103ba565b60035463ffffffff165b60048163ffffffff166064811061037057634e487b7160e01b600052603260045260246000fd5b01548314156103835760019150506103ba565b63ffffffff8116610392575060645b8061039c81610589565b60035490925063ffffffff8084169116141590506103495760009150505b919050565b60035463ffffffff1681565b60035460009060049063ffffffff16606481106103f857634e487b7160e01b600052603260045260246000fd5b0154905090565b6004816064811061040f57600080fd5b0154905081565b606481565b6002818154811061042b57600080fd5b600091825260209091200154905081565b7f2fe54c60d3acabf3343a35b6eba15db4821b340f76e741e2249685ed4899af6c81565b6001818154811061042b57600080fd5b600354640100000000900463ffffffff1681565b600060208284031215610495578081fd5b5035919050565b600080604083850312156104ae578081fd5b50508035926020909101359150565b600080604083850312156104cf578182fd5b505080516020909101519092909150565b901515815260200190565b90815260200190565b6020808252818101527f5f6c6566742073686f756c6420626520696e7369646520746865206669656c64604082015260600190565b60208082526021908201527f5f72696768742073686f756c6420626520696e7369646520746865206669656c6040820152601960fa1b606082015260800190565b918252602082015260400190565b63ffffffff91909116815260200190565b600063ffffffff8216806105ab57634e487b7160e01b82526011600452602482fd5b600019019291505056fe30644e72e131a029b85045b68181585d2833e84879b9709143e1f593f0000001a2646970667358221220fa00e0e06148b418612d05744e5254af18871310d0bc3d95526734f1e78ba70864736f6c63430008000033405787fa12a823e0f2b7631cc41b3ba8828b3321ca811111fa75cd3aa3bb5ace30644e72e131a029b85045b68181585d2833e84879b9709143e1f593f0000001b10e2d527612073b26eecdfd717e6a320cf44b4afac2b0732d9fcbe2b7fa0cf6",
  "linkReferences": {},
  "deployedLinkReferences": {}
}