{
  "_format": "hh-sol-artifact-1",
  "contractName": "Tornado",
  "sourceName": "contracts/TornadoCash_erc20.sol",
  "abi": [
    {
      "inputs": [
        {
          "internalType": "address",
          "name": "_verifier",
          "type": "address"
        },
        {
          "internalType": "uint256",
          "name": "_denomination",
          "type": "uint256"
        },
        {
          "internalType": "uint32",
          "name": "_merkleTreeHeight",
          "type": "uint32"
        },
        {
          "internalType": "address",
          "name": "_operator",
          "type": "address"
        },
        {
          "internalType": "address",
          "name": "_hasher",
          "type": "address"
        }
      ],
      "stateMutability": "nonpayable",
      "type": "constructor"
    },
    {
      "anonymous": false,
      "inputs": [
        {
          "indexed": true,
          "internalType": "bytes32",
          "name": "commitment",
          "type": "bytes32"
        },
        {
          "indexed": false,
          "internalType": "uint32",
          "name": "leafIndex",
          "type": "uint32"
        },
        {
          "indexed": false,
          "internalType": "uint256",
          "name": "timestamp",
          "type": "uint256"
        }
      ],
      "name": "Deposit",
      "type": "event"
    },
    {
      "anonymous": false,
      "inputs": [
        {
          "indexed": false,
          "internalType": "address",
          "name": "to",
          "type": "address"
        },
        {
          "indexed": false,
          "internalType": "bytes32",
          "name": "nullifierHash",
          "type": "bytes32"
        },
        {
          "indexed": true,
          "internalType": "address",
          "name": "relayer",
          "type": "address"
        },
        {
          "indexed": false,
          "internalType": "uint256",
          "name": "fee",
          "type": "uint256"
        }
      ],
      "name": "Withdrawal",
      "type": "event"
    },
    {
      "inputs": [],
      "name": "FIELD_SIZE",
      "outputs": [
        {
          "internalType": "uint256",
          "name": "",
          "type": "uint256"
        }
      ],
      "stateMutability": "view",
      "type": "function"
    },
    {
      "inputs": [],
      "name": "ROOT_HISTORY_SIZE",
      "outputs": [
        {
          "internalType": "uint32",
          "name": "",
          "type": "uint32"
        }
      ],
      "stateMutability": "view",
      "type": "function"
    },
    {
      "inputs": [],
      "name": "ZERO_VALUE",
      "outputs": [
        {
          "internalType": "uint256",
          "name": "",
          "type": "uint256"
        }
      ],
      "stateMutability": "view",
      "type": "function"
    },
    {
      "inputs": [
        {
          "internalType": "address",
          "name": "_newOperator",
          "type": "address"
        }
      ],
      "name": "changeOperator",
      "outputs": [],
      "stateMutability": "nonpayable",
      "type": "function"
    },
    {
      "inputs": [
        {
          "internalType": "bytes32",
          "name": "",
          "type": "bytes32"
        }
      ],
      "name": "commitments",
      "outputs": [
        {
          "internalType": "bool",
          "name": "",
          "type": "bool"
        }
      ],
      "stateMutability": "view",
      "type": "function"
    },
    {
      "inputs": [],
      "name": "currentRootIndex",
      "outputs": [
        {
          "internalType": "uint32",
          "name": "",
          "type": "uint32"
        }
      ],
      "stateMutability": "view",
      "type": "function"
    },
    {
      "inputs": [],
      "name": "denomination",
      "outputs": [
        {
          "internalType": "uint256",
          "name": "",
          "type": "uint256"
        }
      ],
      "stateMutability": "view",
      "type": "function"
    },
    {
      "inputs": [
        {
          "internalType": "bytes32",
          "name": "_commitment",
          "type": "bytes32"
        }
      ],
      "name": "deposit",
      "outputs": [],
      "stateMutability": "payable",
      "type": "function"
    },
    {
      "inputs": [
        {
          "internalType": "uint256",
          "name": "",
          "type": "uint256"
        }
      ],
      "name": "filledSubtrees",
      "outputs": [
        {
          "internalType": "bytes32",
          "name": "",
          "type": "bytes32"
        }
      ],
      "stateMutability": "view",
      "type": "function"
    },
    {
      "inputs": [],
      "name": "getLastRoot",
      "outputs": [
        {
          "internalType": "bytes32",
          "name": "",
          "type": "bytes32"
        }
      ],
      "stateMutability": "view",
      "type": "function"
    },
    {
      "inputs": [
        {
          "internalType": "bytes32",
          "name": "_left",
          "type": "bytes32"
        },
        {
          "internalType": "bytes32",
          "name": "_right",
          "type": "bytes32"
        }
      ],
      "name": "hashLeftRight",
      "outputs": [
        {
          "internalType": "bytes32",
          "name": "",
          "type": "bytes32"
        }
      ],
      "stateMutability": "view",
      "type": "function"
    },
    {
      "inputs": [
        {
          "internalType": "bytes32",
          "name": "_root",
          "type": "bytes32"
        }
      ],
      "name": "isKnownRoot",
      "outputs": [
        {
          "internalType": "bool",
          "name": "",
          "type": "bool"
        }
      ],
      "stateMutability": "view",
      "type": "function"
    },
    {
      "inputs": [
        {
          "internalType": "bytes32",
          "name": "_nullifierHash",
          "type": "bytes32"
        }
      ],
      "name": "isSpent",
      "outputs": [
        {
          "internalType": "bool",
          "name": "",
          "type": "bool"
        }
      ],
      "stateMutability": "view",
      "type": "function"
    },
    {
      "inputs": [
        {
          "internalType": "bytes32[]",
          "name": "_nullifierHashes",
          "type": "bytes32[]"
        }
      ],
      "name": "isSpentArray",
      "outputs": [
        {
          "internalType": "bool[]",
          "name": "spent",
          "type": "bool[]"
        }
      ],
      "stateMutability": "view",
      "type": "function"
    },
    {
      "inputs": [],
      "name": "levels",
      "outputs": [
        {
          "internalType": "uint32",
          "name": "",
          "type": "uint32"
        }
      ],
      "stateMutability": "view",
      "type": "function"
    },
    {
      "inputs": [],
      "name": "nextIndex",
      "outputs": [
        {
          "internalType": "uint32",
          "name": "",
          "type": "uint32"
        }
      ],
      "stateMutability": "view",
      "type": "function"
    },
    {
      "inputs": [
        {
          "internalType": "bytes32",
          "name": "",
          "type": "bytes32"
        }
      ],
      "name": "nullifierHashes",
      "outputs": [
        {
          "internalType": "bool",
          "name": "",
          "type": "bool"
        }
      ],
      "stateMutability": "view",
      "type": "function"
    },
    {
      "inputs": [],
      "name": "operator",
      "outputs": [
        {
          "internalType": "address",
          "name": "",
          "type": "address"
        }
      ],
      "stateMutability": "view",
      "type": "function"
    },
    {
      "inputs": [
        {
          "internalType": "uint256",
          "name": "",
          "type": "uint256"
        }
      ],
      "name": "roots",
      "outputs": [
        {
          "internalType": "bytes32",
          "name": "",
          "type": "bytes32"
        }
      ],
      "stateMutability": "view",
      "type": "function"
    },
    {
      "inputs": [
        {
          "internalType": "address",
          "name": "_newVerifier",
          "type": "address"
        }
      ],
      "name": "updateVerifier",
      "outputs": [],
      "stateMutability": "nonpayable",
      "type": "function"
    },
    {
      "inputs": [],
      "name": "verifier",
      "outputs": [
        {
          "internalType": "contract IVerifier",
          "name": "",
          "type": "address"
        }
      ],
      "stateMutability": "view",
      "type": "function"
    },
    {
      "inputs": [
        {
          "internalType": "bytes",
          "name": "_proof",
          "type": "bytes"
        },
        {
          "internalType": "bytes32",
          "name": "_root",
          "type": "bytes32"
        },
        {
          "internalType": "bytes32",
          "name": "_nullifierHash",
          "type": "bytes32"
        },
        {
          "internalType": "address",
          "name": "_recipient",
          "type": "address"
        },
        {
          "internalType": "address",
          "name": "_relayer",
          "type": "address"
        },
        {
          "internalType": "uint256",
          "name": "_fee",
          "type": "uint256"
        },
        {
          "internalType": "uint256",
          "name": "_refund",
          "type": "uint256"
        }
      ],
      "name": "withdraw",
      "outputs": [],
      "stateMutability": "payable",
      "type": "function"
    },
    {
      "inputs": [
        {
          "internalType": "uint256",
          "name": "",
          "type": "uint256"
        }
      ],
      "name": "zeros",
      "outputs": [
        {
          "internalType": "bytes32",
          "name": "",
          "type": "bytes32"
        }
      ],
      "stateMutability": "view",
      "type": "function"
    }
  ],
  "bytecode": "0x6080604052600380546001600160401b03191690553480156200002157600080fd5b5060405162001c3038038062001c308339810160408190526200004491620003dd565b828160008263ffffffff1611620000785760405162461bcd60e51b81526004016200006f906200052b565b60405180910390fd5b60208263ffffffff1610620000a15760405162461bcd60e51b81526004016200006f9062000572565b6000805463ffffffff60a01b1916600160a01b63ffffffff851602176001600160a01b0319166001600160a01b0383161781556002805460018181019092557f2fe54c60d3acabf3343a35b6eba15db4821b340f76e741e2249685ed4899af6c60008051602062001bd0833981519152909101819055815480830183559282905260008051602062001c108339815191529092018290555b60005463ffffffff600160a01b90910481169082161015620001b95762000161828062000229565b60028054600181810190925560008051602062001bd0833981519152018290558054808201825560009190915260008051602062001c1083398151915201819055915080620001b081620005c2565b91505062000139565b50620001c6818062000229565b600455505060016068555083620001f15760405162461bcd60e51b81526004016200006f9062000470565b50606c80546001600160a01b039586166001600160a01b031991821617909155606d80549290951691161790925560695550620005f3565b600060008051602062001bf083398151915283106200025c5760405162461bcd60e51b81526004016200006f90620004b5565b60008051602062001bf083398151915282106200028d5760405162461bcd60e51b81526004016200006f90620004ea565b6000805460405163f47d33b560e01b81528592916001600160a01b03169063f47d33b590620002c39085908590600401620005b4565b604080518083038186803b158015620002db57600080fd5b505afa158015620002f0573d6000803e3d6000fd5b505050506040513d601f19601f820116820180604052508101906200031691906200044c565b909250905060008051602062001bf083398151915284830860005460405163f47d33b560e01b81529193506001600160a01b03169063f47d33b590620003639085908590600401620005b4565b604080518083038186803b1580156200037b57600080fd5b505afa15801562000390573d6000803e3d6000fd5b505050506040513d601f19601f82011682018060405250810190620003b691906200044c565b5095945050505050565b80516001600160a01b0381168114620003d857600080fd5b919050565b600080600080600060a08688031215620003f5578081fd5b6200040086620003c0565b945060208601519350604086015163ffffffff8116811462000420578182fd5b92506200043060608701620003c0565b91506200044060808701620003c0565b90509295509295909350565b600080604083850312156200045f578182fd5b505080516020909101519092909150565b60208082526025908201527f64656e6f6d696e6174696f6e2073686f756c6420626520677265617465722074604082015264068616e20360dc1b606082015260800190565b6020808252818101527f5f6c6566742073686f756c6420626520696e7369646520746865206669656c64604082015260600190565b60208082526021908201527f5f72696768742073686f756c6420626520696e7369646520746865206669656c6040820152601960fa1b606082015260800190565b60208082526027908201527f5f747265654c6576656c732073686f756c642062652067726561746572207468604082015266616e207a65726f60c81b606082015260800190565b60208082526022908201527f5f747265654c6576656c732073686f756c64206265206c657373207468616e20604082015261199960f11b606082015260800190565b918252602082015260400190565b600063ffffffff80831681811415620005e957634e487b7160e01b83526011600452602483fd5b6001019392505050565b6115cd80620006036000396000f3fe6080604052600436106101405760003560e01c806390eeb02b116100b6578063cd87a3b41161006f578063cd87a3b41461034a578063e5285dcc1461035f578063e82955881461037f578063ec7329591461039f578063f178e47c146103b4578063fc7e9c6f146103d457610140565b806390eeb02b146102a057806397fc007c146102b55780639fa12d0b146102d5578063b214faa514610302578063ba70f75714610315578063c2b40ae41461032a57610140565b8063414a37ba11610108578063414a37ba146101ff5780634ecf518b14610214578063570ca735146102365780636d9833e31461024b578063839df9451461026b5780638bca6d161461028b57610140565b806306394c9b1461014557806317cc915c1461016757806321a0adb61461019d5780632b7ac3f3146101b057806338bf282e146101d2575b600080fd5b34801561015157600080fd5b50610165610160366004610de6565b6103e9565b005b34801561017357600080fd5b50610187610182366004610e96565b61043e565b604051610194919061101e565b60405180910390f35b6101656101ab366004610ecf565b610453565b3480156101bc57600080fd5b506101c561064c565b6040516101949190610fa3565b3480156101de57600080fd5b506101f26101ed366004610eae565b61065b565b6040516101949190611029565b34801561020b57600080fd5b506101f26107dd565b34801561022057600080fd5b506102296107ef565b60405161019491906112f2565b34801561024257600080fd5b506101c5610802565b34801561025757600080fd5b50610187610266366004610e96565b610811565b34801561027757600080fd5b50610187610286366004610e96565b6108a0565b34801561029757600080fd5b506101f26108b5565b3480156102ac57600080fd5b506102296108bb565b3480156102c157600080fd5b506101656102d0366004610de6565b6108c7565b3480156102e157600080fd5b506102f56102f0366004610e07565b610913565b6040516101949190610fd8565b610165610310366004610e96565b6109f3565b34801561032157600080fd5b506101f2610acb565b34801561033657600080fd5b506101f2610345366004610e96565b610aff565b34801561035657600080fd5b50610229610b16565b34801561036b57600080fd5b5061018761037a366004610e96565b610b1b565b34801561038b57600080fd5b506101f261039a366004610e96565b610b30565b3480156103ab57600080fd5b506101f2610b51565b3480156103c057600080fd5b506101f26103cf366004610e96565b610b75565b3480156103e057600080fd5b50610229610b85565b606d546001600160a01b0316331461041c5760405162461bcd60e51b815260040161041390611268565b60405180910390fd5b606d80546001600160a01b0319166001600160a01b0392909216919091179055565b606a6020526000908152604090205460ff1681565b6001606860008282546104669190611319565b90915550506068546069548311156104905760405162461bcd60e51b815260040161041390611113565b6000868152606a602052604090205460ff16156104bf5760405162461bcd60e51b8152600401610413906111f0565b6104c887610811565b6104e45760405162461bcd60e51b8152600401610413906110dc565b606c546040805160c081018252898152602081018990526001600160a01b038881168284015287811660608301526080820187905260a08201869052915163695ef6f960e01b8152919092169163695ef6f991610548918d918d9190600401611032565b602060405180830381600087803b15801561056257600080fd5b505af1158015610576573d6000803e3d6000fd5b505050506040513d601f19601f8201168201806040525081019061059a9190610e76565b6105b65760405162461bcd60e51b8152600401610413906111c0565b6000868152606a60205260409020805460ff191660011790556105db85858585610b99565b836001600160a01b03167fe9e508bad6d4c3227e881ca19068f099da81b5164dd6d62b2eaf1e8bc6c3493186888660405161061893929190610fb7565b60405180910390a260685481146106415760405162461bcd60e51b8152600401610413906112ad565b505050505050505050565b606c546001600160a01b031681565b6000600080516020611578833981519152831061068a5760405162461bcd60e51b81526004016104139061114a565b60008051602061157883398151915282106106b75760405162461bcd60e51b81526004016104139061117f565b6000805460405163f47d33b560e01b81528592916001600160a01b03169063f47d33b5906106eb90859085906004016112e4565b604080518083038186803b15801561070257600080fd5b505afa158015610716573d6000803e3d6000fd5b505050506040513d601f19601f8201168201806040525081019061073a9190610f80565b909250905060008051602061157883398151915284830860005460405163f47d33b560e01b81529193506001600160a01b03169063f47d33b59061078490859085906004016112e4565b604080518083038186803b15801561079b57600080fd5b505afa1580156107af573d6000803e3d6000fd5b505050506040513d601f19601f820116820180604052508101906107d39190610f80565b5095945050505050565b60008051602061157883398151915281565b600054600160a01b900463ffffffff1681565b606d546001600160a01b031681565b6000816108205750600061089b565b60035463ffffffff165b60048163ffffffff166064811061085157634e487b7160e01b600052603260045260246000fd5b015483141561086457600191505061089b565b63ffffffff8116610873575060645b8061087d816114c9565b60035490925063ffffffff80841691161415905061082a5760009150505b919050565b606b6020526000908152604090205460ff1681565b60695481565b60035463ffffffff1681565b606d546001600160a01b031633146108f15760405162461bcd60e51b815260040161041390611268565b606c80546001600160a01b0319166001600160a01b0392909216919091179055565b60608167ffffffffffffffff81111561093c57634e487b7160e01b600052604160045260246000fd5b604051908082528060200260200182016040528015610965578160200160208202803683370190505b50905060005b828110156109ec576109a284848381811061099657634e487b7160e01b600052603260045260246000fd5b90506020020135610b1b565b156109da5760018282815181106109c957634e487b7160e01b600052603260045260246000fd5b911515602092830291909101909101525b806109e4816114e9565b91505061096b565b5092915050565b600160686000828254610a069190611319565b90915550506068546000828152606b602052604090205460ff1615610a3d5760405162461bcd60e51b815260040161041390611227565b6000610a4883610b9f565b6000848152606b60205260409020805460ff191660011790559050610a6b610dcd565b827fa945e51eec50ab98c161376f0db4cf2aeba3ec92755fe2fcd388bdbbb80ff1968242604051610a9d929190611303565b60405180910390a2506068548114610ac75760405162461bcd60e51b8152600401610413906112ad565b5050565b60035460009060049063ffffffff1660648110610af857634e487b7160e01b600052603260045260246000fd5b0154905090565b60048160648110610b0f57600080fd5b0154905081565b606481565b6000908152606a602052604090205460ff1690565b60028181548110610b4057600080fd5b600091825260209091200154905081565b7f2fe54c60d3acabf3343a35b6eba15db4821b340f76e741e2249685ed4899af6c81565b60018181548110610b4057600080fd5b600354640100000000900463ffffffff1681565b50505050565b60035460008054909163ffffffff640100000000909104811691610bcd91600160a01b9091041660026113c2565b63ffffffff168163ffffffff161415610bf85760405162461bcd60e51b81526004016104139061108d565b6001600360048282829054906101000a900463ffffffff16610c1a9190611331565b92506101000a81548163ffffffff021916908363ffffffff160217905550600083905060008060005b60005463ffffffff600160a01b90910481169082161015610d4657610c69600286611528565b63ffffffff16610ce35783925060028163ffffffff1681548110610c9d57634e487b7160e01b600052603260045260246000fd5b906000526020600020015491508360018263ffffffff1681548110610cd257634e487b7160e01b600052603260045260246000fd5b600091825260209091200155610d1b565b60018163ffffffff1681548110610d0a57634e487b7160e01b600052603260045260246000fd5b906000526020600020015492508391505b610d25838361065b565b9350610d32600286611359565b945080610d3e81611504565b915050610c43565b50600354606490610d5e9063ffffffff166001611331565b610d689190611528565b6003805463ffffffff191663ffffffff928316179081905584916004911660648110610da457634e487b7160e01b600052603260045260246000fd5b0155600354610dc390600190640100000000900463ffffffff166114a4565b9695505050505050565b565b80356001600160a01b038116811461089b57600080fd5b600060208284031215610df7578081fd5b610e0082610dcf565b9392505050565b60008060208385031215610e19578081fd5b823567ffffffffffffffff80821115610e30578283fd5b818501915085601f830112610e43578283fd5b813581811115610e51578384fd5b8660208083028501011115610e64578384fd5b60209290920196919550909350505050565b600060208284031215610e87578081fd5b81518015158114610e00578182fd5b600060208284031215610ea7578081fd5b5035919050565b60008060408385031215610ec0578182fd5b50508035926020909101359150565b60008060008060008060008060e0898b031215610eea578384fd5b883567ffffffffffffffff80821115610f01578586fd5b818b0191508b601f830112610f14578586fd5b813581811115610f22578687fd5b8c6020828501011115610f33578687fd5b60209283019a50985050890135955060408901359450610f5560608a01610dcf565b9350610f6360808a01610dcf565b925060a0890135915060c089013590509295985092959890939650565b60008060408385031215610f92578182fd5b505080516020909101519092909150565b6001600160a01b0391909116815260200190565b6001600160a01b039390931683526020830191909152604082015260600190565b6020808252825182820181905260009190848201906040850190845b81811015611012578351151583529284019291840191600101610ff4565b50909695505050505050565b901515815260200190565b90815260200190565b600060e082528360e0830152610100848682850137828501810191909152601f8401601f191682010160208083018460005b600681101561108157815183529183019190830190600101611064565b50505050949350505050565b6020808252602f908201527f4d65726b6c6520747265652069732066756c6c2e204e6f206d6f7265206c656160408201526e199cc818d85b881899481859191959608a1b606082015260800190565b6020808252601c908201527f43616e6e6f742066696e6420796f7572206d65726b6c6520726f6f7400000000604082015260600190565b6020808252601a908201527f4665652065786365656473207472616e736665722076616c7565000000000000604082015260600190565b6020808252818101527f5f6c6566742073686f756c6420626520696e7369646520746865206669656c64604082015260600190565b60208082526021908201527f5f72696768742073686f756c6420626520696e7369646520746865206669656c6040820152601960fa1b606082015260800190565b60208082526016908201527524b73b30b634b2103bb4ba34323930bb90383937b7b360511b604082015260600190565b6020808252601f908201527f546865206e6f746520686173206265656e20616c7265616479207370656e7400604082015260600190565b60208082526021908201527f54686520636f6d6d69746d656e7420686173206265656e207375626d697474656040820152601960fa1b606082015260800190565b60208082526025908201527f4f6e6c79206f70657261746f722063616e2063616c6c20746869732066756e636040820152643a34b7b71760d91b606082015260800190565b6020808252601f908201527f5265656e7472616e637947756172643a207265656e7472616e742063616c6c00604082015260600190565b918252602082015260400190565b63ffffffff91909116815260200190565b63ffffffff929092168252602082015260400190565b6000821982111561132c5761132c61154b565b500190565b600063ffffffff8083168185168083038211156113505761135061154b565b01949350505050565b600063ffffffff8084168061137057611370611561565b92169190910492915050565b80825b600180861161138e57506113b9565b8187048211156113a0576113a061154b565b808616156113ad57918102915b9490941c93800261137f565b94509492505050565b600063ffffffff6113d8818286168386166113e0565b949350505050565b6000826113ef57506001610e00565b816113fc57506000610e00565b8160018114611412576002811461141c57611449565b6001915050610e00565b60ff84111561142d5761142d61154b565b6001841b9150848211156114435761144361154b565b50610e00565b5060208310610133831016604e8410600b841016171561147c575081810a838111156114775761147761154b565b610e00565b611489848484600161137c565b80860482111561149b5761149b61154b565b02949350505050565b600063ffffffff838116908316818110156114c1576114c161154b565b039392505050565b600063ffffffff8216806114df576114df61154b565b6000190192915050565b60006000198214156114fd576114fd61154b565b5060010190565b600063ffffffff8083168181141561151e5761151e61154b565b6001019392505050565b600063ffffffff8084168061153f5761153f611561565b92169190910692915050565b634e487b7160e01b600052601160045260246000fd5b634e487b7160e01b600052601260045260246000fdfe30644e72e131a029b85045b68181585d2833e84879b9709143e1f593f0000001a2646970667358221220c30c9f05d41d60b4164fed46da9d6beb53b8a257c7328282f3bbeedbb6c2801564736f6c63430008000033405787fa12a823e0f2b7631cc41b3ba8828b3321ca811111fa75cd3aa3bb5ace30644e72e131a029b85045b68181585d2833e84879b9709143e1f593f0000001b10e2d527612073b26eecdfd717e6a320cf44b4afac2b0732d9fcbe2b7fa0cf6",
  "linkReferences": {},
  "deployedLinkReferences": {}
}