{
  "_format": "hh-sol-artifact-1",
  "contractName": "TornadoCash_erc20",
  "sourceName": "contracts/TornadoCash_erc20.sol",
  "abi": [
    {
      "inputs": [
        {
          "internalType": "address",
          "name": "_verifier",
          "type": "address"
        },
        {
          "internalType": "uint256",
          "name": "_denomination",
          "type": "uint256"
        },
        {
          "internalType": "uint32",
          "name": "_merkleTreeHeight",
          "type": "uint32"
        },
        {
          "internalType": "address",
          "name": "_operator",
          "type": "address"
        },
        {
          "internalType": "address",
          "name": "_token",
          "type": "address"
        },
        {
          "internalType": "address",
          "name": "_hasher",
          "type": "address"
        }
      ],
      "stateMutability": "nonpayable",
      "type": "constructor"
    },
    {
      "anonymous": false,
      "inputs": [
        {
          "indexed": true,
          "internalType": "bytes32",
          "name": "commitment",
          "type": "bytes32"
        },
        {
          "indexed": false,
          "internalType": "uint32",
          "name": "leafIndex",
          "type": "uint32"
        },
        {
          "indexed": false,
          "internalType": "uint256",
          "name": "timestamp",
          "type": "uint256"
        }
      ],
      "name": "Deposit",
      "type": "event"
    },
    {
      "anonymous": false,
      "inputs": [
        {
          "indexed": false,
          "internalType": "address",
          "name": "to",
          "type": "address"
        },
        {
          "indexed": false,
          "internalType": "bytes32",
          "name": "nullifierHash",
          "type": "bytes32"
        },
        {
          "indexed": true,
          "internalType": "address",
          "name": "relayer",
          "type": "address"
        },
        {
          "indexed": false,
          "internalType": "uint256",
          "name": "fee",
          "type": "uint256"
        }
      ],
      "name": "Withdrawal",
      "type": "event"
    },
    {
      "inputs": [],
      "name": "FIELD_SIZE",
      "outputs": [
        {
          "internalType": "uint256",
          "name": "",
          "type": "uint256"
        }
      ],
      "stateMutability": "view",
      "type": "function"
    },
    {
      "inputs": [],
      "name": "ROOT_HISTORY_SIZE",
      "outputs": [
        {
          "internalType": "uint32",
          "name": "",
          "type": "uint32"
        }
      ],
      "stateMutability": "view",
      "type": "function"
    },
    {
      "inputs": [],
      "name": "ZERO_VALUE",
      "outputs": [
        {
          "internalType": "uint256",
          "name": "",
          "type": "uint256"
        }
      ],
      "stateMutability": "view",
      "type": "function"
    },
    {
      "inputs": [
        {
          "internalType": "address",
          "name": "_newOperator",
          "type": "address"
        }
      ],
      "name": "changeOperator",
      "outputs": [],
      "stateMutability": "nonpayable",
      "type": "function"
    },
    {
      "inputs": [
        {
          "internalType": "bytes32",
          "name": "",
          "type": "bytes32"
        }
      ],
      "name": "commitments",
      "outputs": [
        {
          "internalType": "bool",
          "name": "",
          "type": "bool"
        }
      ],
      "stateMutability": "view",
      "type": "function"
    },
    {
      "inputs": [],
      "name": "currentRootIndex",
      "outputs": [
        {
          "internalType": "uint32",
          "name": "",
          "type": "uint32"
        }
      ],
      "stateMutability": "view",
      "type": "function"
    },
    {
      "inputs": [],
      "name": "denomination",
      "outputs": [
        {
          "internalType": "uint256",
          "name": "",
          "type": "uint256"
        }
      ],
      "stateMutability": "view",
      "type": "function"
    },
    {
      "inputs": [
        {
          "internalType": "bytes32",
          "name": "_commitment",
          "type": "bytes32"
        }
      ],
      "name": "deposit",
      "outputs": [],
      "stateMutability": "payable",
      "type": "function"
    },
    {
      "inputs": [
        {
          "internalType": "uint256",
          "name": "",
          "type": "uint256"
        }
      ],
      "name": "filledSubtrees",
      "outputs": [
        {
          "internalType": "bytes32",
          "name": "",
          "type": "bytes32"
        }
      ],
      "stateMutability": "view",
      "type": "function"
    },
    {
      "inputs": [],
      "name": "getLastRoot",
      "outputs": [
        {
          "internalType": "bytes32",
          "name": "",
          "type": "bytes32"
        }
      ],
      "stateMutability": "view",
      "type": "function"
    },
    {
      "inputs": [
        {
          "internalType": "bytes32",
          "name": "_left",
          "type": "bytes32"
        },
        {
          "internalType": "bytes32",
          "name": "_right",
          "type": "bytes32"
        }
      ],
      "name": "hashLeftRight",
      "outputs": [
        {
          "internalType": "bytes32",
          "name": "",
          "type": "bytes32"
        }
      ],
      "stateMutability": "view",
      "type": "function"
    },
    {
      "inputs": [
        {
          "internalType": "bytes32",
          "name": "_root",
          "type": "bytes32"
        }
      ],
      "name": "isKnownRoot",
      "outputs": [
        {
          "internalType": "bool",
          "name": "",
          "type": "bool"
        }
      ],
      "stateMutability": "view",
      "type": "function"
    },
    {
      "inputs": [
        {
          "internalType": "bytes32",
          "name": "_nullifierHash",
          "type": "bytes32"
        }
      ],
      "name": "isSpent",
      "outputs": [
        {
          "internalType": "bool",
          "name": "",
          "type": "bool"
        }
      ],
      "stateMutability": "view",
      "type": "function"
    },
    {
      "inputs": [
        {
          "internalType": "bytes32[]",
          "name": "_nullifierHashes",
          "type": "bytes32[]"
        }
      ],
      "name": "isSpentArray",
      "outputs": [
        {
          "internalType": "bool[]",
          "name": "spent",
          "type": "bool[]"
        }
      ],
      "stateMutability": "view",
      "type": "function"
    },
    {
      "inputs": [],
      "name": "levels",
      "outputs": [
        {
          "internalType": "uint32",
          "name": "",
          "type": "uint32"
        }
      ],
      "stateMutability": "view",
      "type": "function"
    },
    {
      "inputs": [],
      "name": "nextIndex",
      "outputs": [
        {
          "internalType": "uint32",
          "name": "",
          "type": "uint32"
        }
      ],
      "stateMutability": "view",
      "type": "function"
    },
    {
      "inputs": [
        {
          "internalType": "bytes32",
          "name": "",
          "type": "bytes32"
        }
      ],
      "name": "nullifierHashes",
      "outputs": [
        {
          "internalType": "bool",
          "name": "",
          "type": "bool"
        }
      ],
      "stateMutability": "view",
      "type": "function"
    },
    {
      "inputs": [],
      "name": "operator",
      "outputs": [
        {
          "internalType": "address",
          "name": "",
          "type": "address"
        }
      ],
      "stateMutability": "view",
      "type": "function"
    },
    {
      "inputs": [
        {
          "internalType": "uint256",
          "name": "",
          "type": "uint256"
        }
      ],
      "name": "roots",
      "outputs": [
        {
          "internalType": "bytes32",
          "name": "",
          "type": "bytes32"
        }
      ],
      "stateMutability": "view",
      "type": "function"
    },
    {
      "inputs": [],
      "name": "token",
      "outputs": [
        {
          "internalType": "address",
          "name": "",
          "type": "address"
        }
      ],
      "stateMutability": "view",
      "type": "function"
    },
    {
      "inputs": [
        {
          "internalType": "address",
          "name": "_newVerifier",
          "type": "address"
        }
      ],
      "name": "updateVerifier",
      "outputs": [],
      "stateMutability": "nonpayable",
      "type": "function"
    },
    {
      "inputs": [],
      "name": "verifier",
      "outputs": [
        {
          "internalType": "contract IVerifier",
          "name": "",
          "type": "address"
        }
      ],
      "stateMutability": "view",
      "type": "function"
    },
    {
      "inputs": [
        {
          "internalType": "bytes",
          "name": "_proof",
          "type": "bytes"
        },
        {
          "internalType": "bytes32",
          "name": "_root",
          "type": "bytes32"
        },
        {
          "internalType": "bytes32",
          "name": "_nullifierHash",
          "type": "bytes32"
        },
        {
          "internalType": "address",
          "name": "_recipient",
          "type": "address"
        },
        {
          "internalType": "address",
          "name": "_relayer",
          "type": "address"
        },
        {
          "internalType": "uint256",
          "name": "_fee",
          "type": "uint256"
        },
        {
          "internalType": "uint256",
          "name": "_refund",
          "type": "uint256"
        }
      ],
      "name": "withdraw",
      "outputs": [],
      "stateMutability": "payable",
      "type": "function"
    },
    {
      "inputs": [
        {
          "internalType": "uint256",
          "name": "",
          "type": "uint256"
        }
      ],
      "name": "zeros",
      "outputs": [
        {
          "internalType": "bytes32",
          "name": "",
          "type": "bytes32"
        }
      ],
      "stateMutability": "view",
      "type": "function"
    }
  ],
  "bytecode": "0x6080604052600380546001600160401b03191690553480156200002157600080fd5b5060405162002265380380620022658339810160408190526200004491620003ff565b8585858584828160008263ffffffff16116200007d5760405162461bcd60e51b815260040162000074906200055e565b60405180910390fd5b60208263ffffffff1610620000a65760405162461bcd60e51b81526004016200007490620005a5565b6000805463ffffffff60a01b1916600160a01b63ffffffff851602176001600160a01b0319166001600160a01b0383161781556002805460018181019092557f2fe54c60d3acabf3343a35b6eba15db4821b340f76e741e2249685ed4899af6c600080516020620022058339815191529091018190558154808301835592829052600080516020620022458339815191529092018290555b60005463ffffffff600160a01b90910481169082161015620001be576200016682806200024b565b6002805460018181019092556000805160206200220583398151915201829055805480820182556000919091526000805160206200224583398151915201819055915080620001b581620005f5565b9150506200013e565b50620001cb81806200024b565b600455505060016068555083620001f65760405162461bcd60e51b81526004016200007490620004a3565b50606c80546001600160a01b039586166001600160a01b031991821617909155606d80549286169282169290921790915560699290925550606e80549490921693169290921790915550620006269350505050565b60006000805160206200222583398151915283106200027e5760405162461bcd60e51b81526004016200007490620004e8565b600080516020620022258339815191528210620002af5760405162461bcd60e51b815260040162000074906200051d565b6000805460405163f47d33b560e01b81528592916001600160a01b03169063f47d33b590620002e59085908590600401620005e7565b604080518083038186803b158015620002fd57600080fd5b505afa15801562000312573d6000803e3d6000fd5b505050506040513d601f19601f820116820180604052508101906200033891906200047f565b90925090506000805160206200222583398151915284830860005460405163f47d33b560e01b81529193506001600160a01b03169063f47d33b590620003859085908590600401620005e7565b604080518083038186803b1580156200039d57600080fd5b505afa158015620003b2573d6000803e3d6000fd5b505050506040513d601f19601f82011682018060405250810190620003d891906200047f565b5095945050505050565b80516001600160a01b0381168114620003fa57600080fd5b919050565b60008060008060008060c0878903121562000418578182fd5b6200042387620003e2565b955060208701519450604087015163ffffffff8116811462000443578283fd5b93506200045360608801620003e2565b92506200046360808801620003e2565b91506200047360a08801620003e2565b90509295509295509295565b6000806040838503121562000492578182fd5b505080516020909101519092909150565b60208082526025908201527f64656e6f6d696e6174696f6e2073686f756c6420626520677265617465722074604082015264068616e20360dc1b606082015260800190565b6020808252818101527f5f6c6566742073686f756c6420626520696e7369646520746865206669656c64604082015260600190565b60208082526021908201527f5f72696768742073686f756c6420626520696e7369646520746865206669656c6040820152601960fa1b606082015260800190565b60208082526027908201527f5f747265654c6576656c732073686f756c642062652067726561746572207468604082015266616e207a65726f60c81b606082015260800190565b60208082526022908201527f5f747265654c6576656c732073686f756c64206265206c657373207468616e20604082015261199960f11b606082015260800190565b918252602082015260400190565b600063ffffffff808316818114156200061c57634e487b7160e01b83526011600452602483fd5b6001019392505050565b611bcf80620006366000396000f3fe60806040526004361061014b5760003560e01c806397fc007c116100b6578063e5285dcc1161006f578063e5285dcc1461036a578063e82955881461038a578063ec732959146103aa578063f178e47c146103bf578063fc0c546a146103df578063fc7e9c6f146103f45761014b565b806397fc007c146102c05780639fa12d0b146102e0578063b214faa51461030d578063ba70f75714610320578063c2b40ae414610335578063cd87a3b4146103555761014b565b80634ecf518b116101085780634ecf518b1461021f578063570ca735146102415780636d9833e314610256578063839df945146102765780638bca6d161461029657806390eeb02b146102ab5761014b565b806306394c9b1461015057806317cc915c1461017257806321a0adb6146101a85780632b7ac3f3146101bb57806338bf282e146101dd578063414a37ba1461020a575b600080fd5b34801561015c57600080fd5b5061017061016b366004611176565b610409565b005b34801561017e57600080fd5b5061019261018d366004611226565b61045e565b60405161019f9190611427565b60405180910390f35b6101706101b636600461125f565b610473565b3480156101c757600080fd5b506101d061066c565b60405161019f919061136f565b3480156101e957600080fd5b506101fd6101f836600461123e565b61067b565b60405161019f9190611432565b34801561021657600080fd5b506101fd6107fd565b34801561022b57600080fd5b5061023461080f565b60405161019f91906118dd565b34801561024d57600080fd5b506101d0610822565b34801561026257600080fd5b50610192610271366004611226565b610831565b34801561028257600080fd5b50610192610291366004611226565b6108c0565b3480156102a257600080fd5b506101fd6108d5565b3480156102b757600080fd5b506102346108db565b3480156102cc57600080fd5b506101706102db366004611176565b6108e7565b3480156102ec57600080fd5b506103006102fb366004611197565b610933565b60405161019f91906113e1565b61017061031b366004611226565b610a13565b34801561032c57600080fd5b506101fd610aeb565b34801561034157600080fd5b506101fd610350366004611226565b610b1f565b34801561036157600080fd5b50610234610b36565b34801561037657600080fd5b50610192610385366004611226565b610b3b565b34801561039657600080fd5b506101fd6103a5366004611226565b610b50565b3480156103b657600080fd5b506101fd610b71565b3480156103cb57600080fd5b506101fd6103da366004611226565b610b95565b3480156103eb57600080fd5b506101d0610ba5565b34801561040057600080fd5b50610234610bb4565b606d546001600160a01b0316331461043c5760405162461bcd60e51b815260040161043390611853565b60405180910390fd5b606d80546001600160a01b0319166001600160a01b0392909216919091179055565b606a6020526000908152604090205460ff1681565b6001606860008282546104869190611904565b90915550506068546069548311156104b05760405162461bcd60e51b815260040161043390611566565b6000868152606a602052604090205460ff16156104df5760405162461bcd60e51b815260040161043390611754565b6104e887610831565b6105045760405162461bcd60e51b81526004016104339061152f565b606c546040805160c081018252898152602081018990526001600160a01b038881168284015287811660608301526080820187905260a08201869052915163695ef6f960e01b8152919092169163695ef6f991610568918d918d919060040161143b565b602060405180830381600087803b15801561058257600080fd5b505af1158015610596573d6000803e3d6000fd5b505050506040513d601f19601f820116820180604052508101906105ba9190611206565b6105d65760405162461bcd60e51b8152600401610433906116f9565b6000868152606a60205260409020805460ff191660011790556105fb85858585610bc8565b836001600160a01b03167fe9e508bad6d4c3227e881ca19068f099da81b5164dd6d62b2eaf1e8bc6c34931868886604051610638939291906113a7565b60405180910390a260685481146106615760405162461bcd60e51b815260040161043390611898565b505050505050505050565b606c546001600160a01b031681565b6000600080516020611b7a83398151915283106106aa5760405162461bcd60e51b815260040161043390611634565b600080516020611b7a83398151915282106106d75760405162461bcd60e51b815260040161043390611669565b6000805460405163f47d33b560e01b81528592916001600160a01b03169063f47d33b59061070b90859085906004016118cf565b604080518083038186803b15801561072257600080fd5b505afa158015610736573d6000803e3d6000fd5b505050506040513d601f19601f8201168201806040525081019061075a9190611310565b9092509050600080516020611b7a83398151915284830860005460405163f47d33b560e01b81529193506001600160a01b03169063f47d33b5906107a490859085906004016118cf565b604080518083038186803b1580156107bb57600080fd5b505afa1580156107cf573d6000803e3d6000fd5b505050506040513d601f19601f820116820180604052508101906107f39190611310565b5095945050505050565b600080516020611b7a83398151915281565b600054600160a01b900463ffffffff1681565b606d546001600160a01b031681565b600081610840575060006108bb565b60035463ffffffff165b60048163ffffffff166064811061087157634e487b7160e01b600052603260045260246000fd5b01548314156108845760019150506108bb565b63ffffffff8116610893575060645b8061089d81611acb565b60035490925063ffffffff80841691161415905061084a5760009150505b919050565b606b6020526000908152604090205460ff1681565b60695481565b60035463ffffffff1681565b606d546001600160a01b031633146109115760405162461bcd60e51b815260040161043390611853565b606c80546001600160a01b0319166001600160a01b0392909216919091179055565b60608167ffffffffffffffff81111561095c57634e487b7160e01b600052604160045260246000fd5b604051908082528060200260200182016040528015610985578160200160208202803683370190505b50905060005b82811015610a0c576109c28484838181106109b657634e487b7160e01b600052603260045260246000fd5b90506020020135610b3b565b156109fa5760018282815181106109e957634e487b7160e01b600052603260045260246000fd5b911515602092830291909101909101525b80610a0481611aeb565b91505061098b565b5092915050565b600160686000828254610a269190611904565b90915550506068546000828152606b602052604090205460ff1615610a5d5760405162461bcd60e51b81526004016104339061178b565b6000610a6883610cb8565b6000848152606b60205260409020805460ff191660011790559050610a8b610ee6565b827fa945e51eec50ab98c161376f0db4cf2aeba3ec92755fe2fcd388bdbbb80ff1968242604051610abd9291906118ee565b60405180910390a2506068548114610ae75760405162461bcd60e51b815260040161043390611898565b5050565b60035460009060049063ffffffff1660648110610b1857634e487b7160e01b600052603260045260246000fd5b0154905090565b60048160648110610b2f57600080fd5b0154905081565b606481565b6000908152606a602052604090205460ff1690565b60028181548110610b6057600080fd5b600091825260209091200154905081565b7f2fe54c60d3acabf3343a35b6eba15db4821b340f76e741e2249685ed4899af6c81565b60018181548110610b6057600080fd5b606e546001600160a01b031681565b600354640100000000900463ffffffff1681565b803414610be75760405162461bcd60e51b81526004016104339061159d565b610bfe8483606954610bf99190611a8f565b610f13565b8115610c0e57610c0e8383610f13565b8015610cb2576000846001600160a01b031682604051610c2d9061136c565b60006040518083038185875af1925050503d8060008114610c6a576040519150601f19603f3d011682016040523d82523d6000602084013e610c6f565b606091505b5050905080610cb0576040516001600160a01b0385169083156108fc029084906000818181858888f19350505050158015610cae573d6000803e3d6000fd5b505b505b50505050565b60035460008054909163ffffffff640100000000909104811691610ce691600160a01b9091041660026119ad565b63ffffffff168163ffffffff161415610d115760405162461bcd60e51b815260040161043390611496565b6001600360048282829054906101000a900463ffffffff16610d33919061191c565b92506101000a81548163ffffffff021916908363ffffffff160217905550600083905060008060005b60005463ffffffff600160a01b90910481169082161015610e5f57610d82600286611b2a565b63ffffffff16610dfc5783925060028163ffffffff1681548110610db657634e487b7160e01b600052603260045260246000fd5b906000526020600020015491508360018263ffffffff1681548110610deb57634e487b7160e01b600052603260045260246000fd5b600091825260209091200155610e34565b60018163ffffffff1681548110610e2357634e487b7160e01b600052603260045260246000fd5b906000526020600020015492508391505b610e3e838361067b565b9350610e4b600286611944565b945080610e5781611b06565b915050610d5c565b50600354606490610e779063ffffffff16600161191c565b610e819190611b2a565b6003805463ffffffff191663ffffffff928316179081905584916004911660648110610ebd57634e487b7160e01b600052603260045260246000fd5b0155600354610edc90600190640100000000900463ffffffff16611aa6565b9695505050505050565b3415610f045760405162461bcd60e51b8152600401610433906117cc565b610f113330606954611038565b565b606e5460405160009182916001600160a01b039091169063a9059cbb90610f4090879087906024016113c8565b6040516020818303038152906040529060e01b6020820180516001600160e01b038381831617835250505050604051610f799190611333565b6000604051808303816000865af19150503d8060008114610fb6576040519150601f19603f3d011682016040523d82523d6000602084013e610fbb565b606091505b509150915081610fdd5760405162461bcd60e51b815260040161043390611729565b805115610cb25780516020146110055760405162461bcd60e51b8152600401610433906114e5565b808060200190518101906110199190611206565b915081610cb25760405162461bcd60e51b8152600401610433906115ed565b606e5460405160009182916001600160a01b03909116906323b872dd9061106790889088908890602401611383565b6040516020818303038152906040529060e01b6020820180516001600160e01b0383818316178352505050506040516110a09190611333565b6000604051808303816000865af19150503d80600081146110dd576040519150601f19603f3d011682016040523d82523d6000602084013e6110e2565b606091505b5091509150816111045760405162461bcd60e51b81526004016104339061181c565b805115610cb057805160201461112c5760405162461bcd60e51b8152600401610433906114e5565b808060200190518101906111409190611206565b915081610cb05760405162461bcd60e51b8152600401610433906116aa565b80356001600160a01b03811681146108bb57600080fd5b600060208284031215611187578081fd5b6111908261115f565b9392505050565b600080602083850312156111a9578081fd5b823567ffffffffffffffff808211156111c0578283fd5b818501915085601f8301126111d3578283fd5b8135818111156111e1578384fd5b86602080830285010111156111f4578384fd5b60209290920196919550909350505050565b600060208284031215611217578081fd5b81518015158114611190578182fd5b600060208284031215611237578081fd5b5035919050565b60008060408385031215611250578182fd5b50508035926020909101359150565b60008060008060008060008060e0898b03121561127a578384fd5b883567ffffffffffffffff80821115611291578586fd5b818b0191508b601f8301126112a4578586fd5b8135818111156112b2578687fd5b8c60208285010111156112c3578687fd5b60209283019a509850508901359550604089013594506112e560608a0161115f565b93506112f360808a0161115f565b925060a0890135915060c089013590509295985092959890939650565b60008060408385031215611322578182fd5b505080516020909101519092909150565b60008251815b818110156113535760208186018101518583015201611339565b818111156113615782828501525b509190910192915050565b90565b6001600160a01b0391909116815260200190565b6001600160a01b039384168152919092166020820152604081019190915260600190565b6001600160a01b039390931683526020830191909152604082015260600190565b6001600160a01b03929092168252602082015260400190565b6020808252825182820181905260009190848201906040850190845b8181101561141b5783511515835292840192918401916001016113fd565b50909695505050505050565b901515815260200190565b90815260200190565b600060e082528360e0830152610100848682850137828501810191909152601f8401601f191682010160208083018460005b600681101561148a5781518352918301919083019060010161146d565b50505050949350505050565b6020808252602f908201527f4d65726b6c6520747265652069732066756c6c2e204e6f206d6f7265206c656160408201526e199cc818d85b881899481859191959608a1b606082015260800190565b6020808252602a908201527f64617461206c656e6774682073686f756c64206265206569746865722030206f6040820152697220333220627974657360b01b606082015260800190565b6020808252601c908201527f43616e6e6f742066696e6420796f7572206d65726b6c6520726f6f7400000000604082015260600190565b6020808252601a908201527f4665652065786365656473207472616e736665722076616c7565000000000000604082015260600190565b60208082526030908201527f496e636f727265637420726566756e6420616d6f756e7420726563656976656460408201526f08189e481d1a194818dbdb9d1c9858dd60821b606082015260800190565b60208082526027908201527f6e6f7420656e6f75676820746f6b656e732e20546f6b656e2072657475726e73604082015266103330b639b29760c91b606082015260800190565b6020808252818101527f5f6c6566742073686f756c6420626520696e7369646520746865206669656c64604082015260600190565b60208082526021908201527f5f72696768742073686f756c6420626520696e7369646520746865206669656c6040820152601960fa1b606082015260800190565b6020808252602f908201527f6e6f7420656e6f75676820616c6c6f77656420746f6b656e732e20546f6b656e60408201526e103932ba3ab93739903330b639b29760891b606082015260800190565b60208082526016908201527524b73b30b634b2103bb4ba34323930bb90383937b7b360511b604082015260600190565b6020808252601190820152706e6f7420656e6f75676820746f6b656e7360781b604082015260600190565b6020808252601f908201527f546865206e6f746520686173206265656e20616c7265616479207370656e7400604082015260600190565b60208082526021908201527f54686520636f6d6d69746d656e7420686173206265656e207375626d697474656040820152601960fa1b606082015260800190565b60208082526030908201527f4554482076616c756520697320737570706f73656420746f206265203020666f60408201526f7220455243323020696e7374616e636560801b606082015260800190565b60208082526019908201527f6e6f7420656e6f75676820616c6c6f77656420746f6b656e7300000000000000604082015260600190565b60208082526025908201527f4f6e6c79206f70657261746f722063616e2063616c6c20746869732066756e636040820152643a34b7b71760d91b606082015260800190565b6020808252601f908201527f5265656e7472616e637947756172643a207265656e7472616e742063616c6c00604082015260600190565b918252602082015260400190565b63ffffffff91909116815260200190565b63ffffffff929092168252602082015260400190565b6000821982111561191757611917611b4d565b500190565b600063ffffffff80831681851680830382111561193b5761193b611b4d565b01949350505050565b600063ffffffff8084168061195b5761195b611b63565b92169190910492915050565b80825b600180861161197957506119a4565b81870482111561198b5761198b611b4d565b8086161561199857918102915b9490941c93800261196a565b94509492505050565b600063ffffffff6119c3818286168386166119cb565b949350505050565b6000826119da57506001611190565b816119e757506000611190565b81600181146119fd5760028114611a0757611a34565b6001915050611190565b60ff841115611a1857611a18611b4d565b6001841b915084821115611a2e57611a2e611b4d565b50611190565b5060208310610133831016604e8410600b8410161715611a67575081810a83811115611a6257611a62611b4d565b611190565b611a748484846001611967565b808604821115611a8657611a86611b4d565b02949350505050565b600082821015611aa157611aa1611b4d565b500390565b600063ffffffff83811690831681811015611ac357611ac3611b4d565b039392505050565b600063ffffffff821680611ae157611ae1611b4d565b6000190192915050565b6000600019821415611aff57611aff611b4d565b5060010190565b600063ffffffff80831681811415611b2057611b20611b4d565b6001019392505050565b600063ffffffff80841680611b4157611b41611b63565b92169190910692915050565b634e487b7160e01b600052601160045260246000fd5b634e487b7160e01b600052601260045260246000fdfe30644e72e131a029b85045b68181585d2833e84879b9709143e1f593f0000001a2646970667358221220d1df1a0c4421148b763b1a52d00c4ee0c335b8c0600b7944e21888c4598972f364736f6c63430008000033405787fa12a823e0f2b7631cc41b3ba8828b3321ca811111fa75cd3aa3bb5ace30644e72e131a029b85045b68181585d2833e84879b9709143e1f593f0000001b10e2d527612073b26eecdfd717e6a320cf44b4afac2b0732d9fcbe2b7fa0cf6",
  "linkReferences": {},
  "deployedLinkReferences": {}
}