{
  "_format": "hh-sol-artifact-1",
  "contractName": "Verifier",
  "sourceName": "contracts/Verifier.sol",
  "abi": [
    {
      "inputs": [
        {
          "internalType": "bytes",
          "name": "proof",
          "type": "bytes"
        },
        {
          "internalType": "uint256[6]",
          "name": "input",
          "type": "uint256[6]"
        }
      ],
      "name": "verifyProof",
      "outputs": [
        {
          "internalType": "bool",
          "name": "",
          "type": "bool"
        }
      ],
      "stateMutability": "view",
      "type": "function"
    }
  ],
  "bytecode": "0x608060405234801561001057600080fd5b506111fc806100206000396000f3fe608060405234801561001057600080fd5b506004361061002b5760003560e01c8063695ef6f914610030575b600080fd5b61004361003e366004610f1a565b610059565b6040516100509190610fbc565b60405180910390f35b600080838060200190518101906100709190610e95565b905060005b60088160ff161015610102577f30644e72e131a029b85045b68181585d97816a916871ca8d3c208c16d87cfd47828260ff16600881106100c557634e487b7160e01b600052603260045260246000fd5b6020020151106100f05760405162461bcd60e51b81526004016100e79061102a565b60405180910390fd5b806100fa8161115a565b915050610075565b5061010b610cca565b6040805180820182528351815260208085015181830152908352815160808082018452858401518285019081526060808801519084015282528351808501855290860151815260a08601518184015281830152838201528151808301835260c0850151815260e08501519181019190915290820152600061018a61030a565b90506000604051806040016040528060008152602001600081525090506101da8183608001516000600781106101d057634e487b7160e01b600052603260045260246000fd5b60200201516107d5565b905060005b60068110156102ca577f30644e72e131a029b85045b68181585d2833e84879b9709143e1f593f000000187826006811061022957634e487b7160e01b600052603260045260246000fd5b60200201511061024b5760405162461bcd60e51b81526004016100e790610ff3565b6102b6826102b1856080015184600161026491906110f1565b6007811061028257634e487b7160e01b600052603260045260246000fd5b60200201518a85600681106102a757634e487b7160e01b600052603260045260246000fd5b602002015161084b565b6107d5565b9150806102c28161113f565b9150506101df565b506102ff6102db84600001516108a7565b84602001518460000151856020015185876040015189604001518960600151610958565b979650505050505050565b610312610cfc565b6040805180820182527f2dbfc3ec62a3eee5a3b4b464bcf1f8527bbca12adea0f1f12033cd4f61b0e09181527f19e55bd0b72c126da18665039556776642ff82e2f347f24fcea2475f4db087df6020808301919091529083528151608080820184527f1ae724ab134e5a7c6bd8a116fa5505b259522c0f164a5e8126e3ec7d34465f6e8285019081527e9f1bcdc853f8e3531756bb625b0d1dc014f4ab57c3f79f4f4e2e7ef7e0ead6606080850191909152908352845180860186527f23a8ca5760457e726365b92fd0ceb486665797cd68c35dcffd8e4ae8066691e981527f13ec7182c9fd68331a10f8be0fe885d730de5c7f89aa7d0b7bafaa009bbc9e3e818601528385015285840192909252835180820185527f198e9393920d483a7260bfb731fb5d25f1aa493335a9e71297e485b7aef312c28186019081527f1800deef121f1e76426a00665e5c4479674322d4f75edadd46debd5cd992f6ed828501528152845180860186527f090689d0585ff075ec9e99ad690c3395bc4b313370b38ef355acdadcd122975b81527f12c85ea5db8c6deb4aab71808dcb408fe3d1e7690c43d37b4ce6cc0166fa7daa818601528185015285850152835180820185527f2f0c63d0c53b3dfbca27b6b43ae7fbf55a38d78a21470996485b03128accc2088186019081527e556502356e37ed150db2e36531b0f275fd6835c0fc1945922e270b48c48a86828501528152845180860186527f02644c27b5dbd793592a70b735e22c798a5e309fa17a992a7dc2a050e01b298f81527f194776b6a53439d7336f389d2a8f6651e40885f5ca2538b0dc9cb534fb23f7fa818601528185015282860152835180850185527f23df1bc9165e9c1c9b2bc036d8ebdd10e7aeae7e5e8019fde68aec7c818bb23e81527f0b6c92080d37c5fb2ddf30892a33665e5478432ef3f71ac8768ecbbe62c7789281850152818601805191909152845180860186527f1c7b2adf45e046caea000956b2ecb2d8617e710d2a7bb201a95ea276f92307b481527f2b15f07536f45948cf4abe6596637d902ffabb18c8c2f5c151544c294ce4a672818601528151850152845180860186527f1cecfe92882a8c835a47bf01bfa655cf628cbba7f81cf4042179fd13edcd6a3981527f0154bfbb2cb786ca247d4b69183d1751f267bbc7656be8d0f0e7a5a47e2c1101818601528151860152845180860186527f1584616a7423efcc72f69ea84fa0b2bc01433677297f4e8351bebfc15bcd0cda81527f0623755b1488526daa9fecf0e11b110dd6df12c461579d792e1db65af523c8be81860152815190930192909252835180850185527f12fbb5bfca9d61357ba2d641604cf4852e21ef54faa180fe539c18994dc1da5a81527f2f09dd9972a1af5f7bcfccf3d7ab600c9d898ea6d6933150ba0ae228ece17e5f81850152825190910152825180840184527f0adb513796fdf2103022c64151ce05f7c7a6d9200e8d819fa59e654fc4bfe83c81527f2d64f72ef4eddf9ca032058ed2bf691758387e913a77cf99d6a3cfb37c8ba7ee81840152815160a0015282518084019093527f21e7c9bffda74bfd2c4393b6803d775545de6fa89145f4a23476241d9881b66183527f0bbe41e52237ac13eb7b01f3cb999b7394d08734e71b1c3ada62713e17eb560c918301919091525160c0015290565b6107dd610d43565b6107e5610d5d565b8351815260208085015181830152835160408301528301516060808301919091526000908360c08460066107d05a03fa905080801561082357610825565bfe5b50806108435760405162461bcd60e51b81526004016100e79061106c565b505092915050565b610853610d43565b61085b610d7b565b835181526020808501519082015260408101839052600060608360808460076107d05a03fa90508080156108235750806108435760405162461bcd60e51b81526004016100e790610fc7565b6108af610d43565b81511580156108c057506020820151155b156108df57506040805180820190915260008082526020820152610953565b6040518060400160405280836000015181526020017f30644e72e131a029b85045b68181585d97816a916871ca8d3c208c16d87cfd478460200151610924919061117a565b61094e907f30644e72e131a029b85045b68181585d97816a916871ca8d3c208c16d87cfd47611128565b905290505b919050565b60408051608080820183528a825260208083018a90528284018890526060808401879052845192830185528b83528282018a9052828501889052820185905283516018808252610320820190955260009491859190839082016103008036833701905050905060005b6004811015610c705760006109d7826006611109565b90508582600481106109f957634e487b7160e01b600052603260045260246000fd5b60200201515183610a0b8360006110f1565b81518110610a2957634e487b7160e01b600052603260045260246000fd5b602002602001018181525050858260048110610a5557634e487b7160e01b600052603260045260246000fd5b60200201516020015183826001610a6c91906110f1565b81518110610a8a57634e487b7160e01b600052603260045260246000fd5b602002602001018181525050848260048110610ab657634e487b7160e01b600052603260045260246000fd5b6020020151515183610ac98360026110f1565b81518110610ae757634e487b7160e01b600052603260045260246000fd5b602002602001018181525050848260048110610b1357634e487b7160e01b600052603260045260246000fd5b6020020151516001602002015183610b2c8360036110f1565b81518110610b4a57634e487b7160e01b600052603260045260246000fd5b602002602001018181525050848260048110610b7657634e487b7160e01b600052603260045260246000fd5b602002015160200151600060028110610b9f57634e487b7160e01b600052603260045260246000fd5b602002015183610bb08360046110f1565b81518110610bce57634e487b7160e01b600052603260045260246000fd5b602002602001018181525050848260048110610bfa57634e487b7160e01b600052603260045260246000fd5b602002015160200151600160028110610c2357634e487b7160e01b600052603260045260246000fd5b602002015183610c348360056110f1565b81518110610c5257634e487b7160e01b600052603260045260246000fd5b60209081029190910101525080610c688161113f565b9150506109c1565b50610c79610d99565b6000602082602086026020860160086107d05a03fa9050808015610823575080610cb55760405162461bcd60e51b81526004016100e790611098565b505115159d9c50505050505050505050505050565b6040518060600160405280610cdd610d43565b8152602001610cea610db7565b8152602001610cf7610d43565b905290565b6040518060a00160405280610d0f610d43565b8152602001610d1c610db7565b8152602001610d29610db7565b8152602001610d36610db7565b8152602001610cf7610dd7565b604051806040016040528060008152602001600081525090565b60405180608001604052806004906020820280368337509192915050565b60405180606001604052806003906020820280368337509192915050565b60405180602001604052806001906020820280368337509192915050565b6040518060400160405280610dca610e04565b8152602001610cf7610e04565b6040518060e001604052806007905b610dee610d43565b815260200190600190039081610de65790505090565b60405180604001604052806002906020820280368337509192915050565b600082601f830112610e32578081fd5b60405160c0810181811067ffffffffffffffff82111715610e5557610e556111b0565b604052808360c08101861015610e69578384fd5b835b6006811015610e8a578135835260209283019290910190600101610e6b565b509195945050505050565b6000610100808385031215610ea8578182fd5b83601f840112610eb6578182fd5b60405181810181811067ffffffffffffffff82111715610ed857610ed86111b0565b6040528084838101871015610eeb578485fd5b8493505b6008841015610f0f57805182526001939093019260209182019101610eef565b509095945050505050565b60008060e08385031215610f2c578081fd5b823567ffffffffffffffff80821115610f43578283fd5b818501915085601f830112610f56578283fd5b8135602082821115610f6a57610f6a6111b0565b610f7c601f8301601f191682016110c7565b92508183528781838601011115610f91578485fd5b818185018285013784818385010152829550610faf88828901610e22565b9450505050509250929050565b901515815260200190565b6020808252601290820152711c185a5c9a5b99cb5b5d5b0b59985a5b195960721b604082015260600190565b6020808252601f908201527f76657269666965722d6774652d736e61726b2d7363616c61722d6669656c6400604082015260600190565b60208082526022908201527f76657269666965722d70726f6f662d656c656d656e742d6774652d7072696d656040820152612d7160f01b606082015260800190565b6020808252601290820152711c185a5c9a5b99cb5859190b59985a5b195960721b604082015260600190565b6020808252601590820152741c185a5c9a5b99cb5bdc18dbd9194b59985a5b1959605a1b604082015260600190565b60405181810167ffffffffffffffff811182821017156110e9576110e96111b0565b604052919050565b600082198211156111045761110461119a565b500190565b60008160001904831182151516156111235761112361119a565b500290565b60008282101561113a5761113a61119a565b500390565b60006000198214156111535761115361119a565b5060010190565b600060ff821660ff8114156111715761117161119a565b60010192915050565b60008261119557634e487b7160e01b81526012600452602481fd5b500690565b634e487b7160e01b600052601160045260246000fd5b634e487b7160e01b600052604160045260246000fdfea26469706673582212200dd9aa83f485ab069be779ba06fc1d9215b66576605b40dd1ce54276c0800b0764736f6c63430008000033",
  "linkReferences": {},
  "deployedLinkReferences": {}
}